:10000000C0210020591E0000B36C00002D1E00000E
:100010002D1E00002D1E00002D1E000000000000FF
:10002000000000000000000000000000891A00002D
:100030002D1E000000000000351A00002D1E0000DB
:10004000391B0000391B0000391B0000391B000060
:10005000391B0000391B0000391B0000391B000050
:10006000391B0000391B0000391B0000391B000040
:10007000391B0000391B0000391B0000391B000030
:10008000391B0000391B0000391B0000391B000020
:10009000391B0000391B0000391B0000391B000010
:1000A000391B0000391B0000391B0000391B000000
:1000B000391B0000391B0000391B0000391B0000F0
:1000C000391B0000391B0000391B0000391B0000E0
:1000D000391B0000391B0000391B0000391B0000D0
:1000E000391B0000391B0000391B0000391B0000C0
:1000F000391B0000391B0000391B0000391B0000B0
:1001000053B94AB9002908BF00281CBF4FF0FF317E
:100110004FF0FF3000F00CB8ADF1080C6DE904CEE3
:1001200000F008F8DDF804E0DDE9022304B07047D0
:10013000704700BF2DE9F04F07468C460846099EE0
:1001400015463C461946002B40F0C6808242B2FA62
:1001500082F746D94FB1C7F1200E24FA0EFE00FAFD
:1001600007F3BD404EEA030CBC404FEA15481FFAA6
:1001700085FEBCFBF8F9220C08FB19C309FB0EFA3B
:1001800042EA03439A4528D9EB1809F1FF3004D21B
:100190009A4502D9A9F102002B44A3EB0A03A4B2A9
:1001A000B3FBF8F208FB123302FB0EFE44EA0344F1
:1001B000A64514D92C1902F1FF3303D2A64501D963
:1001C000931E2C44A4EB0E0443EA00401EB1FC40F5
:1001D000002334607360BDE8F08F4846DDE71346C6
:1001E000F0E702B9FFDE87BB831A01214FEA154E03
:1001F000AAB2B3FBFEFC200C0EFB1C330CFB02F876
:1002000040EA0343984563D9EB180CF1FF3004D260
:10021000984502D9ACF102002B44A3EB0803A4B229
:10022000B3FBFEFC0EFB1C330CFB02F244EA03445E
:10023000A2424FD92C190CF1FF3304D2A24202D9A9
:10024000ACF102032C44A41ABEE7C7F1200C20FA3B
:100250000CF800FA07F324FA0CFCBD404CEA030248
:100260004FEA154EABB2B8FBFEFC110C0EFB1C8026
:100270000CFB03F941EA0040814504FA07F423D955
:1002800028180CF1FF3104D2814502D9ACF10201EA
:100290002844A0EB090092B2B0FBFEFC0EFB1C0050
:1002A0000CFB03F842EA004398450FD9EB180CF118
:1002B000FF3204D2984502D9ACF102022B44A3EBE1
:1002C000080342EA014191E76146E2E76246F6E748
:1002D0006046A2E76346B6E7834205D90EB1C6E998
:1002E00000700021084676E7B3FA83F181B98342B2
:1002F00001D3BA420AD8BC1A60EB030301209C4622
:10030000002E68D0C6E9004C002164E70846F7E7F4
:10031000C1F1200C8B4022FA0CF41C4302FA01F5C7
:1003200000FA01F327FA0CF220FA0CFB4FEA144909
:100330001343BBFBF9F81FFA84FE09FB18BB1A0C28
:1003400008FB0EFA42EA0B42924507FA01F73ED942
:10035000A21808F1FF3004D2924502D9A8F1020098
:100360002244A2EB0A029BB2B2FBF9F809FB182265
:1003700008FB0EFE43EA024296452AD9A21808F16C
:10038000FF3304D2964502D9A8F10203224443EA7E
:100390000040A0FB0593A2EB0E029A42CE4698467F
:1003A00002D306D14F4504D2B9EB050E63EB040826
:1003B000013886B1B7EB0E0362EB080707FA0CFCB5
:1003C000CB404CEA0303CF40C6E900379CE74046E8
:1003D000C7E74346DBE73146FDE6000008B50848BD
:1003E000084C06F050FB06F01AFB02460B4620466E
:1003F00006F049FB4FF47A6006F01FFBF3E700BFFD
:100400001C7800004278000008B50848084C06F047
:100410003AFB06F004FB02460B46204606F033FB8F
:100420004FF4FA6006F009FBF3E700BF72780000B2
:10043000977800002DE9F0411C48DFF8748086B001
:1004400006F021FB01F060FF01F06AFF06F0E7FA19
:10045000002610F57A7441F10005374601F0B8FD29
:10046000CDE9020106F0DBFACDE9006702460B4652
:10047000404606F008FB01F0ABFDCDE9040104A9FC
:1004800002A806F01DFC06F024FC06460F4606F006
:10049000C6FAA04271EB0503E0DA201A06F0CDFAA5
:1004A00014F57A7445F10005D8E700BFC77800005D
:1004B000E17800002DE9F0418CB00024CDE9094439
:1004C0000B94002600270BAB02930AAB0193012586
:1004D00009AB0093CDE90667174B184904940395BF
:1004E0004FF48062164804F0F9F8164B1860164B6A
:1004F00016490094CDE90667CDE90354CDE90144DE
:100500004FF480621248DFF84C8004F0E7F8C8F836
:100510000000114B11490094CDE90667CDE9035461
:10052000CDE901444FF480620D4804F0D7F8C8F8D3
:1005300000000CB0BDE8F08135040000601100201F
:10054000C00100206804002009040000801500207C
:10055000400200206C040020DD030000A0190020F0
:10056000C002002038B54468816004F00304032C05
:10057000054602D02CB1002000E0006800236B602B
:1005800038BD054A05490648452306F076FB024872
:10059000452106F06BFBEEE738790000FD7E000098
:1005A0005B7900000B6801330B60014B1B68184737
:1005B00000000020014B1860704700BF00000020C1
:1005C00007B50B46002102460191034801A900F03E
:1005D00053FB03B05DF804FBA50500002DE9F74FC0
:1005E000B0F81C90009219F0080F044622D001299F
:1005F0000CBF49F0100949F02009A0F81C901434F0
:10060000204604F051F968B99B4A9C499C48B9239B
:1006100006F033FB9B48214606F02FFB9648B92194
:1006200006F024FB009B83F31188BFF36F8F03B0A8
:10063000BDE8F08F944FDFF8488209F007090229DE
:1006400006D1204606F02CFA0028D8D0012864D123
:10065000D4F818B0A38BBBF1000F19DA0026256877
:1006600023F00703C4E9006643F00103A383A38BCF
:1006700003F007024A45019203D0A268002A40F025
:10068000138115B9002E00F059814FF0000A0DE1D9
:1006900003F00702511F012920D8002123F007038E
:1006A000062A25689BB2C4E900110AD13DB1E28B4C
:1006B00029460968013292B20029FAD1E28343F057
:1006C0000203A383204606F0EBF906460028CED0AD
:1006D000A38B43F02003A3830026C8E7042A0DD18F
:1006E00023F007039AB2A283204606F0D9F9054603
:1006F00088B142F02002A2830025EDE7634940F271
:100700001B133A46404606F0B8FA40F21B11384631
:1007100006F0ACFA00252E46A9E7032834D1B9F13A
:10072000000F0BD05A4940464FF4AB733A4606F0DF
:10073000A4FA4FF4AB71384606F098FA23685BB917
:100740005449404640F257133A4606F096FA40F2B2
:100750005711384606F08AFA23691E685EB94E4979
:1007600040464FF4AD733A4606F087FA4FF4AD7148
:10077000384606F07BFAA38B23F0070343F0060309
:10078000A3830025AB4672E7042831D1B9F1020FEB
:100790000BD04249404640F25D133A4606F06DFAEE
:1007A00040F25D11384606F061FAE38B5BB13C49DB
:1007B00040464FF4AF733A4606F05FFA4FF4AF711C
:1007C000384606F053FA23695E685EB932494046FE
:1007D00040F261133A4606F050FA40F26111384691
:1007E00006F044FAA38B23F0070343F00403C7E7A2
:1007F000052831D1B9F1010F0BD02A4940464FF4F9
:10080000B2733A4606F039FA4FF4B271384606F040
:100810002DFA23685BB91F49404640F265133A46FA
:1008200006F02BFA40F26511384606F01FFA2369EC
:100830009E685EB9184940464FF4B4733A4606F0D4
:100840001CFA4FF4B471384606F010FAA38B23F06B
:10085000070343F0050393E70C4940F26B133A4654
:10086000404606F00AFA002540F26B11384606F0C1
:10087000FDF92E4686E700BF1B7A0000487A00008B
:100880005B7900005F7A000078790000FD7E00004F
:100890009A790000A6790000C9790000E07900008B
:1008A000F6790000057A00004FF0010A43F00803D2
:1008B00004F11409A383484603F0F6FF68B9384AE7
:1008C0003849B923404606F0D8F93748494606F07A
:1008D000D4F93348B92106F0C9F9009B83F3118894
:1008E000BFF36F8FBAF1000F37D1002D47D116B18A
:1008F0002E492046B0474FF02003EFF3118B83F3CE
:100900001288BFF36F8F4846CDF800B003F0BEFFEA
:1009100068B9234A26498E23404606F0AEF9254899
:10092000494606F0AAF91E488E2106F09FF948466E
:1009300003F0CAFFA38B23F00803A383A38BDA067B
:1009400025D523F01003A3830121B4F81C9009F0EE
:10095000070900297FF473AE51E6A1680029C4D0CD
:10096000D1F800A04B68019A9C4620465B46E047C0
:10097000BAF1000FB9D05146DAF800A0F2E72946E3
:10098000019A2D685B46204606F0A6F8ADE713F005
:1009900020011EBF23F02003A3830221D5E700BF5F
:1009A0001B7A0000487A00005F7A0000B909000055
:1009B000747A0000897A0000F8B504460D4600F10B
:1009C00014064FF02003EFF3118783F31288BFF36F
:1009D0006F8F304603F05AFF68B90C4A0C490D4836
:1009E0008E2306F04AF90C48314606F046F90748CE
:1009F0008E2106F03BF9304603F066FFA5613A46CA
:100A000020460121BDE8F840FFF7E8BD1B7A000051
:100A1000747A00005B790000897A00002DE9F047C4
:100A200004460F4606F06EF8051E5EDB04F114095D
:100A30004FF02003EFF3118A83F31288BFF36F8F17
:100A4000484603F023FF68B9384A394939488E23AC
:100A500006F013F93848494606F00FF933488E215D
:100A600006F004F9484603F02FFFE38BA28B4FF604
:100A7000FF718B4202F0070650D0022E24D10133C1
:100A8000E38335464FF00108484603F00DFF68B98F
:100A9000264A2A492748B92306F0EFF8284849464C
:100AA00006F0EBF82148B92106F0E0F88AF3118846
:100AB000BFF36F8FB8F1000F17D0002332463946CD
:100AC000204606F009F810E0930701D0062E0FD15A
:100AD00000233B606368F3B9C4E900773546FEB98B
:100AE000524602212046FFF779FD2846BDE8F087EF
:100AF000052E18D0012E0BD012490E48124A40F292
:100B0000C91306F0BAF8104840F2C91106F0AEF861
:100B10006FF0040504E01F606760DFE76FF00A050F
:100B20004FF00008B0E76FF08505F9E71B7A000089
:100B3000747A00005B790000897A0000487A00002E
:100B40005F7A0000057A000078790000B2F5802F06
:100B50002DE9F04104460E4617466AD33E493F4A06
:100B60003F4840F2E31306F088F83E4806F085F867
:100B700040F2E311394806F079F8043FF51D3E4490
:100B800025F0070526F00706761B172E4FEAD60735
:100B90000ED83549314A324840F2F31306F06DF869
:100BA000324806F06AF82D4840F2F31106F05EF87C
:100BB0002560B7FA87F4C4F12008C4F12404A40026
:100BC00007340023E408EB60631CBB42AF600ED91E
:100BD0002749224A22484FF4017306F04EF8234871
:100BE00006F04BF81D484FF4017106F03FF805F18F
:100BF000100303EB88080022984529D1630043F0D5
:100C000001036B8005EBC4013B1B58002A80488020
:100C1000A91925F834404A80AB5305EBC703214698
:100C20005A8842F0010228465A80BDE8F04105F09A
:100C30009ABF042AA1D80F49084A09484FF4F5730E
:100C400006F01BF8094806F018F84FF4F57191E723
:100C500043F8042BD0E700BF6D7B0000A17A0000B1
:100C60005B790000837B0000D47B0000BB7B00002D
:100C7000FD7B00009A7B00002DE9F04F91B08B4680
:100C8000029092461C4600259AF8000008B92846B2
:100C90005FE325280AF1010707D0029B59469847D0
:100CA0000028C0F25683013512E2182200210AA85A
:100CB00006F044F89AF80130252B78D0002210462F
:100CC000964694461646394617F8013B2B2B00F002
:100CD0009D8000F29480202B00F09B80232B00F05D
:100CE0009B802EB19DF8306046F004068DF8306090
:100CF000BCF1000F05D09DF8306046F008068DF875
:100D00003060BEF1000F05D09DF8306046F010064F
:100D10008DF8306028B19DF8300040F020008DF84B
:100D200030002AB19DF8302042F040028DF830208A
:100D30009DF8302002F04400442803D16FF386125E
:100D40008DF830209DF830202A2B42F080028DF85B
:100D500030207BD19DF8312042F001024B1C8DF8F0
:100D600031201A782E2A9DF831200CBF0121002154
:100D700061F341028DF8312074D15A782A2A6AD061
:100D8000013300210A26184610F8012BA2F1300782
:100D9000092F40F28E809DF830200E91C2F3400062
:100DA00040EAD17161F341028DF830205AE00AF136
:100DB00002078DF833309DF83130D90740F1498171
:100DC00054F8049BB9F1000F07DA9DF8302042F087
:100DD00004028DF83020C9F100095A0740F1428120
:100DE00054F8048BB8F1000F80F241819DF8313046
:100DF0006FF341038DF831304FF0FF3837E12D2B81
:100E00000CD0302B7FF46DAF01225CE74FF0010C6A
:100E100059E74FF0010E56E7012054E7012652E74B
:100E20000CFB0202303A33461E4616F8010BA0F1C5
:100E30003007092FF4D9994293D09DF830100D92C4
:100E4000D20F62F341018DF830108AE70B46002281
:100E50004FF00A0CE8E79DF8312042F004028DF8CB
:100E6000312002331F4617F8012B6C2A41D025D8B8
:100E7000682A2BD06A2A46D04C2A4CD01F4617F835
:100E8000012B9DF831308DF83320782A00F2D9807B
:100E9000572A4DD8412A03D0453A022A00F2D18080
:100EA0009DF83230042262F302038DF832300123C0
:100EB0009EE006FB01213039034664E7742A26D000
:100EC0007A2ADBD19DF8313006220DE05A78682A63
:100ED0009DF8312006D1012161F3C6028DF8312041
:100EE0009F1CCCE71346022262F3C6038DF8313013
:100EF000C5E75A786C2A9DF8312001D10421EBE72F
:100F000013460322F0E79DF831300522ECE79DF807
:100F100031300722E8E7BDF8303023F4F04323F006
:100F2000020343F4804343F00203ADF83030A6E7F8
:100F3000A2F15801202900F2848001A050F821F08C
:100F40000510000043100000431000004310000093
:100F50004310000043100000431000004310000045
:100F600043100000A10E0000431000000510000017
:100F7000C50F0000A10E0000A10E0000A10E000090
:100F800043100000C50F0000431000004310000094
:100F900043100000431000000D1000000510000079
:100FA0002910000043100000431000002910000029
:100FB0004310000005100000431000004310000023
:100FC000051000009DF83210012003F0780360F353
:100FD0000201402B8DF8321002BF9DF8301041F015
:100FE00001018DF83010632A31D1003B18BF012375
:100FF0009DF83020C2F340010B4363F341028DF8AA
:101000003020D8E69DF832100220DEE79DF832202D
:1010100003F07803A3F14000032161F3020243428D
:101020008DF832204341E3E79DF83220032113F08D
:10103000780F61F302028DF8322014BF01230023E0
:10104000D6E79DF8303043F001038DF830300023AF
:10105000CEE79DF93020002AB4BFDDF834904FF080
:10106000FF39BAE69B077FF5C7AEDDF838809DF8FB
:1010700031100023CDE90D339DF8323003F0070322
:10108000012BC1F3C30138D1CB1E042B22D8DFE8DA
:1010900003F003090921210054F8043BDA17CDE9D4
:1010A0000A3206E0073424F00704F4E80223CDE90D
:1010B0000A239DF8303013F0030656D002983B46C1
:1010C0005246594605F0BCFD0028C0F24281054455
:1010D000BA46D9E554F8043B01294FEAE372CDE959
:1010E0000A3205D19DF828300A9300230B93E0E7DC
:1010F0000229DED1BDF92830D0E7022B23D1CB1E47
:10110000042B13D8DFE803F0030A0A121200226846
:101110000A920023201D0B930446CAE7E01D20F02D
:101120000700F0E80223CDE90A23F5E754F8043B71
:101130000A9301294FF000030B93D3D00229B8D1B1
:10114000BDF82830D0E7042B09D1E31D23F00703B5
:1011500003F10804D3E90023CDE90A23A9E7032B0F
:1011600004BF54F8043B0A93A3E79DF833007828A2
:10117000AED8622822D825283FF48FAD5828A7D1B1
:101180000DF126030093DDE90A0104AB0CAA05F07A
:1011900011FD8246B8F1000F0DF126000CDB9DF821
:1011A0003020A0EB0A036FF3861298458DF83020AB
:1011B00002D9A8EB03030D9380463DE06338152860
:1011C00086D801A252F820F049120000AD120000AA
:1011D000D1100000D1100000D1100000D11000008B
:1011E000AD120000D1100000D1100000D11000009D
:1011F000D110000007130000D5120000D912000022
:10120000D1100000D110000021120000D110000008
:10121000D5120000D1100000D1100000D51200003E
:10122000B8F1000FDDF828A00ADB4146504605F072
:1012300071FD0AEB00080026BAF1000F0CD147E758
:10124000504605F060FDF4E70A9B8DF8103000264B
:101250000DF1100A0DF11108A8EB0A0306B10133D4
:101260009DF83220D00668D5023352060D9948BF4A
:101270000E9A0B4448BF9B18B9F1000F76DD9DF81C
:101280003020A9EB0309C2F38003039353076DD405
:10129000500661D546B1029B594630469847002812
:1012A00057DB039B01351E46302356E01E070FD443
:1012B00013F0100618BF2026DDE90A23002BBFF625
:1012C0005FAF524263EB4303CDE90A232D2657E774
:1012D0002B26F1E7002653E70A9840B30DF12603C9
:1012E00000930CAA04AB002105F064FCBDF8323079
:1012F00003F0EF0343F4F04343F010038246ADF8EC
:101300003230002646E70A9B07293FF6E1AEDFE8C8
:1013100001F00C04060C08080C0C1D70D8E61D80AA
:10132000D6E6EA17C3E90052D2E61D60D0E6DFF840
:10133000C8A006460AF105088EE7110748BF013329
:1013400093E7184603935946029B98470028039B4E
:1013500004DA11B0BDE8F08F20234D444A46002A3C
:10136000A5EB090109F1FF39EBDC0D4636B1029B13
:101370005946304698470028EBDB01359DF832305E
:10138000D90601D41A0706D5029B59463020984742
:101390000028DEDB01359DF83230DB0607D59DF8ED
:1013A0003300029B594698470028D2DB01350D9E39
:1013B0002E44731B002B16DC0298434652465946B6
:1013C00005F03EFC0028C4DB0544A944A9EB050355
:1013D000002B7FF77DAE029B5946202098470028BE
:1013E000B7DB0135F2E7029B5946302098470028C9
:1013F000AFDB0135DDE700BF287C000008B54FF00A
:101400002002EFF3118382F31288BFF36F8F00F095
:101410005BFF034805F037FB00F068FAFCE700BF0C
:101420002E7C00002DE9F84305464FF02003EFF332
:10143000118683F31288BFF36F8F224803F026FAD8
:1014400068B9214A214922488E2305F016FC1D491E
:10145000204805F012FC1C488E2105F007FC1948B5
:1014600003F032FA1C4B1C689CB11C4FDFF87080F3
:101470004FF00C09D4E90132002D08BF13462BB1FF
:1014800098F8142009FB02F2B85C98472468002CF5
:10149000F0D10C4803F008FA68B90B4A11490C481E
:1014A000B92305F0EAFB07490F4805F0E6FB0648BB
:1014B000B92105F0DBFB86F31188BFF36F8FBDE820
:1014C000F88300BF700400201B7A0000747A0000CB
:1014D0005B790000897A0000740400207C040020FD
:1014E000240B0020487A00005F7A000042090123A3
:1014F00000F01F0003FA00F0074BBFF35B8FC043FF
:1015000003EB820353E8002F024043E80021002947
:10151000F8D1BFF35B8F70478804002038B51A4BB1
:101520001C7DBFF35B8F04F01F0301229A40174B11
:101530006109D04303EB810353E8001F01EA000572
:1015400043E8005CBCF1000FF6D1BFF35B8F1142A2
:1015500013D00F4B0F4D8BB10C236343EA18E85C9B
:10156000517805F003FC0020FFF75CFF0C235C437F
:101570002A1900232B51C2E9013338BD83F31188A6
:10158000BFF36F8FEFE700BF240B00208C04002017
:101590006D6D00007C0400202DE9F843324B334A86
:1015A0001C7DBFF35B8F63094FEA830952F8233038
:1015B0002F4EBFF35B8F04F01F0843FA08F313F0BC
:1015C000010F07460AD10146204600F069F828B10C
:1015D00007C80C2303FB046383E807000C23634361
:1015E000F218F55C2DB92046FFF780FF2846BDE8CC
:1015F000F8837B1C0FD0D2F808C01E481E4A4FF457
:10160000004500210023ECFB0501FEF779FD0121D7
:10161000381A04F097FE03F0D5FC0120FFF702FF13
:10162000BFF35B8F012303FA08F8144B994459E880
:10163000003F43EA080349E80032002AF7D1BFF32C
:101640005B8F0F4B33B10C236343F218F05C51787E
:1016500005F080FBFFF762FF2046FFF747FF04F02D
:101660009BF90120C3E700BF240B00208804002061
:101670007C0400203F420F0040420F008C040020F9
:10168000556D0000054BBFF35B8F53F82000BFF38F
:101690005B8F003818BF0120704700BF9004002006
:1016A0002DE9F04F85B00F4603A900F047F8DFF8A9
:1016B0008080DFF880A0441E24B24FF0000B631C32
:1016C00004D10026304605B0BDE8F08F039A04EB44
:1016D000440302EB830612F82300FFF7D3FF05460D
:1016E00010BB70684FF40049C4462946E0FB09C1AD
:1016F00052465B466046FEF703FD0190B068C44663
:101700002946E0FB09C15B4652466046FEF7F8FCFD
:10171000094B1B68591C01D0834205D97A1CD1D0D2
:10172000019B1844B842CDD9013C24B2C7E700BFA1
:101730003F420F0040420F000400002008B9024B56
:101740000B600020704700BF38760000014804F0AD
:10175000D7BF00BF3876000010B5044618B90D4B4E
:101760000D485B689847616808290DD031F0040383
:101770000AD011F0020108D00848214602F0E6FE26
:10178000002323600023636010BD2068142205F04D
:10179000D5FAF7E7E0000020577C0000AC040020F9
:1017A00008B508B34368042B10D101220368BFF3C6
:1017B0005B8F53E8001F002903D143E80020002875
:1017C000F7D1BFF35B8F0BD1002008BD53B1006888
:1017D0004FF0FF324FF0FF3303F0B0F80028F3D0A2
:1017E0000348F2E70348F0E76FF4E040EDE700BF9D
:1017F000E98FFFFFEA8FFFFF08B5D0B14368042BE4
:1018000011D100220368BFF35B8F53E8001F012949
:1018100003D143E800200028F7D1BFF35B8F0748CE
:1018200008BF104608BD3BB1006803F081F90020F5
:10183000F8E76FF4E040F5E70148F3E7E98FFFFFD1
:10184000EA8FFFFF10B5044618B9164B16485B68BF
:1018500098476368042B23D0082B21D0CBB9236889
:10186000BBB912484FF0FF324FF0FF33214602F070
:1018700001FE08B923681BB90A4B0D485B689847FD
:1018800020681422002105F059FA636843F002032E
:101890006360206805F050FD636843F001036360F6
:1018A00010BD00BFE0000020577C0000AC04002009
:1018B0007D7C000008B5064906484023142205F047
:1018C0000AFDBDE808400449044804F079BF00BFA0
:1018D000CC040020AC0400205076000040760000CC
:1018E000014910220A60704710ED00E072B64040D6
:1018F00080F31188BFF36F8FBFF34F8F30BF62B695
:10190000BFF36F8F704700BF72B6494081F31188F3
:1019100020BF80F3118862B6704700BF43B2002B2E
:1019200008DB012200F01F0002FA00F05B09024A06
:1019300042F82300704700BF00E100E0054B420978
:1019400000F01F0053F82220012303FA00F010409A
:10195000704700BF00E100E070B54C1C072C054645
:101960000E460FD9114A12491248572305F085F93E
:101970001148314607232A4605F07FF90B485721C5
:1019800005F074F96BB2002BACBF03F160430B4B55
:101990004FEA4414B8BF05F00F05E4B2AABF03F53F
:1019A00061435C5583F8004370BD00BFAA7C000012
:1019B000E07C00005B790000FB7C000014ED00E09F
:1019C00030BFFFF7FDBF00BF0B4A08B50B4B22F03D
:1019D0007F029A60BFF34F8FBFF36F8FD3F88820D9
:1019E00022F47002C3F8882002F05AFC04F0E8FAEE
:1019F00000F026FA02F098FC0000000000ED00E084
:101A0000094A0A49936809689967094958674B6800
:101A100043F080534B60002383F31188BFF36F8F33
:101A20009368986F704700BF240B002090770000E8
:101A300000ED00E012498A684FF030001044EFF3E7
:101A4000098C80E8F01F202080F31288BFF36F8F8D
:101A50000C4F4FF00066CA698A603E60506F0023E9
:101A6000536780F3118804B5104600F0D3FABDE83F
:101A7000044002F1300090E8F01F8CF309887047B1
:101A8000240B002004ED00E01EF0040F0CBFEFF368
:101A90000880EFF30980816911F8021C0229FFD048
:101AA00001B505F0FEF801BD42F8203C009B42F86C
:101AB0001C3C0A49019B42F8183C029B42F8143C2A
:101AC00021F001014FF0807342F8043C42F8081CF9
:101AD0000023203A02654367704700BF496B00004E
:101AE000094A0346906870B113F1160F406E05D095
:101AF000A0F120029A4205D8834203D2814228BF36
:101B00000020704700207047240B002008B5094BC7
:101B100098600D46144600F07DFA204685F309884A
:101B2000002163B681F31188BFF36F8F0022002379
:101B300005F00AF8240B002001B572B60B4A906933
:101B400000281EBF0021916105F0E7FB62B6EFF3AC
:101B50000580A0F110004FEAC0000549014409C901
:101B60009847BDE80140034908470000240B0020C6
:101B700090740000791B0000044B9968D869884272
:101B800003D003494FF080520A607047240B0020B5
:101B900004ED00E0264B70B515469A6A9A6A9A6A77
:101BA0009207044621D5586B9A6A16061DD519B1BD
:101BB0009A6A22F080029A629A6A9A6A9A6AD106AE
:101BC00016D49B6A9A0713D40024194B9A6A92067A
:101BD00042BF5A6A22F400525A629A6A42F0FF02E5
:101BE0009A6200232B70204670BD6FF01500E3E76A
:101BF0000F4E73681B05E7D52146FFF771FF0446BA
:101C000018B180F309880224DFE7B36AD906DBD56F
:101C1000084A0949094840F2491305F02EF80848D6
:101C200005F02BF8034840F2491105F01FF8CCE706
:101C300000ED00E03B7D0000757D00005B79000059
:101C4000BF7D00000D4B9A6A9A6A9A6A920508D580
:101C50009A6B9A6A120404D518B19A6A22F4004267
:101C60009A62064B9A6A9A6AD20558BF9A6A9A6A29
:101C7000002042F47F429A620870704700ED00E055
:101C800070B55E4B5C688AB00D46C4F3080400264C
:101C900086F31188BFF36F8F02F07F43B3F17F4F5C
:101CA00008D102F00C03082B04D011075CBF0546D5
:101CB00001267DB9524A5349534840F2FB3304F0A0
:101CC000DCFF524804F0D9FF4D4840F2FB3104F0EC
:101CD000CDFF002500238DF80730E31E032B00F213
:101CE0008680DFE803F0026F7377444BDC6A14F000
:101CF00002047CD1DA6A002A0ADBDA6A520054D57F
:101D0000AA6932F8021C4DF60272914219D12C6870
:101D10009DF807309BB92022294602A805F003F858
:101D2000099B002E65D0C3F3080222B96FEA532342
:101D30006FEA4323099302A9204604F0B0FF0AB0DA
:101D400070BD93F828203AB10DF107020121284611
:101D5000FFF720FF0446DBE793F829202AB10DF1B5
:101D600007010120FFF76EFFF4E75A8D92B262B1CE
:101D70009A6A9A6A9A6A9A6A9A6A9A6A9A6A6FEAEE
:101D800002426FEA12429A62C2E721491C4A1E4887
:101D900040F2CD2304F071FF1E4804F06EFF40F2C4
:101DA000CD21174804F062FFB2E71949144A1648DA
:101DB00040F2D12304F061FF174804F05EFF40F2C7
:101DC000D121EEE70DF107020021C0E70DF1070177
:101DD0000020C7E7094B9A6A9A6A9A6A9A6A9A6ACD
:101DE0009A6A9A6A6FEA02426FEA12429A62002481
:101DF0008EE723F4FF7323F001039BE700ED00E07F
:101E00003B7D0000E27D00005B790000F57D000075
:101E1000FD7E0000337E0000577E0000024A5369B9
:101E200043F010035361704700ED00E0EFF30880CA
:101E3000EFF3098101B57246FFF722FF01BD00BF34
:101E4000044800232021C2180133302B82F80013EC
:101E5000F9D1704700E100E0002080F31488BFF35F
:101E60006F8F05F09FFA00200D490860BFF34F8F78
:101E70000C4880F3088800F02BF8202080F31188AC
:101E800009484FF40261401880F30988EFF3148089
:101E90000221084380F31488BFF36F8FFFF794FD8E
:101EA00094ED00E0C0210020402300200749D1F834
:101EB00090200023C2F307221846934200D17047B6
:101EC000C1F89830C1F8A0000133F6E700ED00E05A
:101ED00008B572B6002383F31388FFF7E7FF144BAE
:101EE0004FF0FF32C3F88020C3F88420C3F8882065
:101EF000C3F88C20C3F89020C3F89420C3F898202E
:101F0000C3F89C20C3F88021C3F88421C3F888213A
:101F1000C3F88C21C3F89021C3F89421C3F8982109
:101F2000C3F89C2162B6BFF34F8FBFF36F8F08BD1C
:101F300000E100E0084B9B6883420BD1EFF305837F
:101F400043B1064B5A6842F080525A605A6A22F4F2
:101F500000425A6203F080BF240B002000ED00E035
:101F6000104A08B5D2F8FC3043F08073C2F8FC3058
:101F70000D4B00225A601A6842F001021A601B6879
:101F80009B010ED509490A4A0A48692304F075FEE7
:101F9000094804F072FEBDE808400548692104F0D4
:101FA00065BE08BD00ED00E0001000E0C27E00004C
:101FB000877E00005B790000FF7E0000034B00225B
:101FC0005A601A6842F001021A607047001000E07F
:101FD000014B002158687047001000E008B501F07F
:101FE00011FA0449044A086800230021FEF788F822
:101FF00008BD00BF5400002040420F00024B034ABE
:102000000348012100F06EB8000004200000002009
:1020100064760000426E054B203A1A60044A202183
:10202000C3E901121846012100F084B8CC09002050
:1020300000000B15F0B51F4F00268E4201DB104645
:10204000F0BD44689CB353B104F1FF3C14EA0C0F9B
:1020500018D11F2C16D905681CEA050F12D1202CA7
:102060000568D0F808C0D2B20FD9B4F1004F0ED82D
:10207000013CB4FA84F4C4F11F046400072A4CEA5A
:10208000040406D96FF01502D9E70824F6E73E24C8
:10209000F4E725F01F05154345F0100544F0010451
:1020A000C7F89820C7F89C500132C7F8A040013605
:1020B0000C30C2E700ED00E0044B0522C3F8942089
:1020C000BFF34F8FBFF36F8F704700BF00ED00E08D
:1020D000BFF35F8F024B0022C3F89420704700BF0C
:1020E00000ED00E038B50E4D01232A78FFF7A2FF7E
:1020F000287016300C4611D140F21113094A0A49D2
:102100000A4804F0BAFD2146094804F0B6FDBDE8CE
:102110003840044840F2111104F0A8BD38BD00BF9A
:10212000440D0020457F0000FD7E00005B7900002B
:102130007C7F000010B5124A00231278FFF77AFF67
:1021400010F1160F0C4609D00E4A072800DD10BD0D
:10215000C2F89800C2F8A0300130F6E70A4A0B49ED
:102160000B484FF4987304F088FD2146094804F0A9
:1021700084FDBDE8104004484FF4987104F076BD2A
:10218000440D002000ED00E0457F0000FD7E0000D2
:102190005B790000A87F0000274910B50C68082C67
:1021A00013D94FF4A473254A2549264804F065FD48
:1021B00025480822214604F060FD20484FF4A47110
:1021C00004F054FD4FF0FF3010BDFFF781FF486869
:1021D0001E490022944200F10C001AD11C4B1C70C5
:1021E000FFF76AFFD1F89030C3F30723082B0ED016
:1021F0001849124A13484FF4D47304F03EFD1648B0
:1022000004F03BFD0D484FF4D47104F02FFD002085
:10221000DAE7C1F8982050F80C3C23F01F03134371
:1022200043F01003C1F89C3050F8043C43F0010324
:10223000C1F8A0300132CDE770760000457F000084
:10224000FD7E00005B790000D57F000000ED00E01E
:10225000440D00200980000059800000014B1860E7
:10226000704700BF2800002010B54FF02003EFF3A7
:10227000118083F31288BFF36F8F114A0123C2F8D4
:1022800040354FF080424FF08051C2F87835D1F898
:102290003041082C08D1D1F83411052904D8094C53
:1022A000615C09B1C2F838364FF080430122C3F8AF
:1022B000802580F31188BFF36F8F002010BD00BF11
:1022C00000E00140898000004FF08043C0B2C3F8B5
:1022D0001C05BFF34F8F0549054BCA6802F4E06245
:1022E0001343CB60BFF34F8F00BFFDE700ED00E06D
:1022F0000400FA0520B1034B800143F001031847A5
:10230000704700BF3076000010B5044C23781BB92D
:10231000FFF726FE0123237010BD00BF450D0020EE
:10232000074BBFF35B8F53E8002F511C43E80010AD
:102330000028F8D1BFF35B8F0AB9FFF73FBE7047A3
:10234000D809002037B50C460A490B4A411A4023E8
:102350000093491105462346084804F020FD011E5C
:1023600005DA2846234603B0BDE83040184703B0DD
:1023700030BD00BFEC0900200F6E00001874000093
:1023800038B5CCB2012C054609D9094909480A4A91
:10239000792304F072FC0848792104F067FC29696C
:1023A0000C2304FB0314A06C00F0070038BD00BF31
:1023B000CC8000005B7900008F800000F8B5CCB2C3
:1023C000012C0669054617460BD918491848194AC1
:1023D00040F24D1304F051FC164840F24D1104F048
:1023E00045FC4FF02003EFF3118183F31288BFF314
:1023F0006F8F0C2202FB04639B6C13F0C00301D0AF
:102400009F4210D102FB04660123B364002081F3D4
:102410001188BFF36F8F28B9696801EBC404636842
:1024200098470020F8BD4FF0FF30F0E7CC80000067
:102430005B7900008F80000070B50D460649411A97
:102440000446491105484022FFF7B8FF2B460146D4
:102450002046BDE870401847EC09002018740000C1
:10246000002270B5012104461046FFF775FA0F48A7
:1024700001F074F90E4B984215D101F095F92669D7
:102480000C49304604F04DFB00280BDB2469094958
:102490000125B56404F1200004F043FB002801DBB2
:1024A0006565002070BD6FF00400FBE7ED240000BF
:1024B0000000AD0BB876000001460C2309484B43E1
:1024C00070B5C418D4E91056002248332264184469
:1024D00004F052FC2DB132462B460348BDE8704053
:1024E000184770BDEC09002018740000012808B5D9
:1024F00006D0032808D0A8B9104B9B6C5B071BD1F2
:10250000BDE80840FFF7D8BF0D490E4A0E4840F21B
:102510005E2304F0B2FB40F25E21BDE808400948AA
:1025200004F0A4BB0649074A074840F2622304F0BE
:10253000A4FB40F26221F0E708BD00BFEC090020D7
:10254000FD7E00008F8000005B79000008B54FF031
:102550002003EFF3118183F31288BFF36F8F124AC8
:10256000136843F0020013F0010310600CD04FF029
:102570008042D2F80C34D2F80C2413F0010303D0BB
:102580000A4804F0F9FB012381F31188BFF36F8F30
:1025900023B1BDE808400020FFF78EBFBDE808402A
:1025A000012001F025B900BF440A0020340A0020B0
:1025B0001FB500220123CDE90223094ACDF800D03E
:1025C0006B46CDF804D004F01BFC002805DB4FF46B
:1025D00080420023684602F0ADFB05B05DF804FBC5
:1025E0002D6E0000094BBFF35B8F53E8002F22F0E4
:1025F000020143E800100028F7D1BFF35B8FD30737
:1026000002D4012001F058B9704700BF440A0020ED
:102610002DE9F0414749BFF35B8F0646012251E89F
:10262000003F41E800200028F9D1BFF35B8FA3B938
:10263000414942484B60CB608A60FEF7EFF90028C1
:102640000BDA3F493F48404A4FF4087304F015FB4A
:102650003D484FF4087104F009FB96B3731E012B3B
:1026600053D8012E07D14FF08043D3F81C3403F028
:102670000303012B25D004F04AFE044618B9334B5E
:102680001B78002B4FD14FF02003EFF3118783F31A
:102690001288BFF36F8F0124DFF8B4804FF08045BC
:1026A000D5F81834D5F81824D2030CD503F0030359
:1026B000012B01D0012E06D10CB387F31188BFF393
:1026C0006F8FBDE8F081ACB13846FFF71DF9D5F842
:1026D0001835002BE4D1D5F80421002AE0D0C5F844
:1026E0000431D5F804310123C5F81835C8F8803114
:1026F000AB60D5E70021212003F070FBE7E74FF046
:1027000080430222C3F80423DBE712490D480E4A36
:1027100040F2322304F0B1FABDE8F0410A4840F239
:10272000322104F0A3BA4FF080430222C3F80823F9
:102730000746B1E7480A0020DC0900200C0A002007
:10274000F08000005B7900008F80000056110020AF
:1027500000E100E0FD7E000008B5084B0848186065
:1027600004F0ABFD38B10748FFF778FD0548FDF7E9
:1027700021FF002008BD6FF01200FBE74C0A00208B
:1027800078740000892700000A2838B5074D0446F0
:1027900004D1286883680D215B689847286883689E
:1027A000E1B25B689847204638BD00BF4C0A002064
:1027B00070B5056916460C4661B92249224A23487C
:1027C000242304F05AFA224804F057FA1E48242120
:1027D00004F04CFA636863B91E491B4A1B48252361
:1027E00004F04BFA1C4804F048FA1748252104F07D
:1027F0003DFA6B685BB100229C4212D12368A96844
:1028000052B9A1426B6000D1AB60002323606EB966
:10281000002070BD0B46EFE7A142136008BFAA601D
:10282000F3E719681A460029F4D13EB1A8686B682D
:1028300023606C600028EBD1AC60EAE76FF0150014
:10284000E7E700BF2C810000FF8000005B790000FB
:102850003581000044810000568100007FB540684A
:10286000057B01F01F04B2F5001F44EA45144FF048
:10287000000504D1204601F045FB002054E0B2F5EC
:10288000800FCDE9025551D1B3F1007F0CBF042375
:1028900005238DF80830836823FA01F111F0010156
:1028A00055D1B2F1A07F52D166094AD04FF6FF73DD
:1028B000012E08BF194604F01F05E940CA070BD4D2
:1028C0002B492C482C4A40F2292304F0D6F92A48F7
:1028D00040F2292104F0CAF96EB1012E34D0274903
:1028E0002448254A40F22E2304F0C7F9224840F23A
:1028F0002E2104F0BBF94FF0A04305F5E07553F825
:102900002530DB0723D40DF107052946204601F0C9
:102910001DFA1B4B984219D1284601F079FA194B40
:10292000984213D06FF00B0004B070BDB3F1C06FCC
:1029300005D0B3F1007F0CBF02230123A9E70323D5
:10294000A7E74FF0FF31B6E70F4BD6E7039500231B
:10295000194602AA204601F0D1F80A4B984204D148
:102960000121204601F05AFA87E76FF00400DBE707
:10297000A08100005B7900006D810000FD7E0000F9
:102980000400AD0B0000AD0B0003005010B501F0CA
:102990002FFA044668B901F003FA084B98420AD1AD
:1029A0000748214601F0CCF9224605210620FEF712
:1029B000D3FF002010BD6FF00400FBE70000AD0B5B
:1029C000C529000043092DE9F04703D0012B2ED083
:1029D000BDE8F087174F3B695C68002CF8D000F029
:1029E0001F0001262568DFF85080DFF85090DFF8DF
:1029F00050A08640A3681E4214D0636863B949465C
:102A000045234246504604F038F90E4804F035F9A3
:102A10004521404604F02AF9D4E9013221463240EA
:102A200038469847002DD3D02C462D68E2E7064F54
:102A3000D1E700BF30740000FF800000C3810000B8
:102A40005B79000056810000487400002DE9F043D6
:102A500047683B7B01F01F0585B00E4645EA4315EC
:102A60001446CAB902A9284601F070F9044628465E
:102A700001F072FA4A4B984204D06FF0040005B09E
:102A8000BDE8F083844205D19DF8080001F0BAF951
:102A9000A042F2D10020F2E74FF000090DF103014E
:102AA0003046CDE9029901F051F94B46804602AA21
:102AB0004946284601F022F8394B984202D06FF07F
:102AC0001500DCE7804503D19DF8030001F09AF979
:102AD000A30351D540F20663234040F206229342FD
:102AE0003BD00CD8062B15D004D89BB1022BE6D1D5
:102AF00004230FE0B3F5007FE1D101230AE040F2A7
:102B0000024293422BD0B3F5C06F2AD0B3F5806F49
:102B1000D5D102238DF8043084F48033C3F300430D
:102B2000E0068DF8053054BFC4F34013032321039E
:102B30008DF8063017D57B68012101FA06F6C3F837
:102B40000865002201A9284601F086F8144B984236
:102B500014BF6FF01500002091E70723DAE7052383
:102B6000D8E70323D6E7620341BF7B68012101FA5E
:102B700006F6C3F80C65E4E7E3064FF0000354BF24
:102B8000C4F3401403241A4601A928468DF80440D2
:102B900000F0B4FF024B98423FF47CAF8FE700BFD8
:102BA0000000AD0BF0B54B79012B26D0032B21D1C2
:102BB00010268B79032B1DD1CC790CB1012C19D1A6
:102BC0000A7912B1022A15D10E220B684568B3F5B5
:102BD000164F2D6865D02DD8B3F5165F64D016D882
:102BE000B3F5966F62D00AD8B3F5967F61D0B3F58E
:102BF000167F61D06FF0850052E00026D9E7B3F56B
:102C0000166F5CD0B3F5965FF4D1374B3CE0B3F56B
:102C1000E14F57D007D8B3F5615F55D0B3F5964F64
:102C2000E8D1324B30E047F61227BB42E2D14FF4F5
:102C3000000329E0B3F5613F48D013D8B3F5963FC0
:102C400047D009D84DF6C027BB4244D0B3F5614FF9
:102C5000D0D14FF46B0317E0B3F5E13FCAD14FF089
:102C6000EB7311E0B3F5612F38D008D8204FBB4289
:102C700037D0B3F5E12FBDD14FF0E86304E01D4F2D
:102C8000BB42B7D14FF080530069C5F82435031D0E
:102C900003C934432243C5F86C2583E803000020B0
:102CA000F0BD4FF41D03EFE7134BEDE74FF49E2308
:102CB000EAE74FF4A033E7E74FF41C33E4E74FF4BF
:102CC0001D23E1E70D4BDFE70D4BDDE74FF06C73A4
:102CD000DAE70C4BD8E74FF46503D5E74FF07063A4
:102CE000D2E74FF08063CFE700B0130000A04E00A2
:102CF00090D0030040420F000050270000C0750034
:102D000000F03A0000903A012DE9F743D0F8048032
:102D10000669D8F80040D8F80C900021C4F80015D6
:102D20000746306001AA484604F034F9051E56DB18
:102D3000019BD9F800201979186804F082F9051E62
:102D40004DDB311D3846FFF72DFF0546002846D1E3
:102D5000D8F80430990719D506F1120001F0F8F9F6
:102D6000224B98423FD1B07CC30003F1804303F56E
:102D7000F83304F10C0204F59071C3F81015C3F890
:102D800014251B4A01238340C2F804350823C4F8E4
:102D9000003598F808305BB9C4F81031D4F8103118
:102DA00006F11103C4F834350123C4F83835236023
:102DB000D8F804309A075CBF4FF48072C4F804233B
:102DC000DB0644BF4FF48003C4F8043310360023FD
:102DD000C4F84465C4F848350123A360E36028467D
:102DE00003B0BDE8F0836FF00405F8E70000AD0B19
:102DF00000F00140F8B5066905460F4604F087FA71
:102E000010B92C4B1B7883B94FF02003EFF31184DA
:102E100083F31288BFF36F8F686804F053F828BB00
:102E200084F31188BFF36F8FEEE76424686804F0C1
:102E300049F870B9012004F0BCF9013CF6D1002139
:102E4000212002F0CBFFF0E784F31188BFF36F8FEE
:102E5000F5E74FF02003EFF3118483F31288BFF3FB
:102E60006F8F686804F02EF80028EDD006F8107F08
:102E700069680B680122C3F84465C3F8482500223D
:102E8000C3F82021D3F82001C3F85821D3F85821E2
:102E90004A68D20641BF0822C3F800254FF48002D9
:102EA000C3F8042301229A6084F31188BFF36F8F63
:102EB000F8BD00BF5611002010B501238340114A10
:102EC000BFF35B8FDC4352E8001F01EA040C42E8C9
:102ED00000CEBEF1000FF6D1BFF35B8F4FF480320E
:102EE00002FA00F002F1804202F58052C2F80803B3
:102EF000BFF35F8FBFF36F8F0B4214BF0120002021
:102F000010BD00BF6C0A00201949F8B5044622F034
:102F10007F450868C1E90023A5F50013101AB3F531
:102F2000400F22D2134B1B681A0A1B065E19124B64
:102F300042F10007C3E90067012603F053FAA3003A
:102F400003F1804303F58833D3F84025AA420BD11F
:102F50001EB94FF40002C3F84025084B4FF48030EF
:102F600000FA04F4C3F84443F8BD0026E5E700BFC7
:102F700058030020700A0020400300200010014088
:102F800019B3BFF35B8F0123104A834052E8001F3F
:102F9000194342E8001CBCF1000FF7D1BFF35B8F6F
:102FA0000B4A4FF480338340C2F80433094BBFF31C
:102FB0005B8F1B68BFF35B8F23FA00F0C30742BF30
:102FC000054B4FF40032C3F8002170476C0A002013
:102FD00000100140680A002000E100E00D4B186875
:102FE000010A0006BFF35F8F0B4BD3F804351818A6
:102FF00041F10001B3F5801F0AD2084BD3E9002349
:10300000904271EB030303D210F1807041F1000193
:10301000704700BF700A00200010014040030020EC
:103020002DE9F04F85B0164698460546FFF744FF58
:103030000090FFF7D3FFB04271EB080378D2464B04
:10304000301A68EB0101984271F1000380F0818031
:10305000424B03EB0513D3E902ABD84508BF5645F5
:1030600051D04FEA850909F1804905F1500709F56A
:103070008839BF004FF4803101FA05F3BFB226F062
:103080007F4207F180470193D9F84005344B07F59B
:1030900088371446D3F80415401A20F07F4021F0F9
:1030A0007F4C0128C9F840C507D1CDE90221132082
:1030B00004F06BF9DDE90221294B01F1020CA4EBCC
:1030C0000C0020F07F40B0F5000F88BF6446002060
:1030D000386038680198C3F8440324F07F40C9F889
:1030E0004005D3F80405814206D0201A023820F0AA
:1030F0007F40B0F5000F19D8A41A24F07F4414EBD8
:10310000060A48F1000B15490E982B0101EB051238
:10311000C2E902ABC8500F9B5360002428460099B7
:10312000FFF72EFF204605B0BDE8F08F2046B1E73F
:1031300001230C4ABFF35B8FAB4052E8001F1943D9
:1031400042E800100028F8D1BFF35B8FB246C346B7
:10315000D9E76FF01504E1E7010000014803002002
:1031600000100140680A002073B5194B194D002466
:103170004FF0FF304FF0FF31C5F80845C3E90201B9
:103180004FF48033C5F80433134B02264FF400325A
:103190000121C5F804631120C3F880212246FEF7FF
:1031A000DBFB1120FEF7BAFB0C4A0123AB602B605E
:1031B00013600B4B0B4A0093019400232046FFF74A
:1031C0002FFF3046FFF724FA204602B070BD00BF43
:1031D000480300200010014000E100E06C0A0020DC
:1031E000092F0000FFFF7F002DE9F743354CD4F88D
:1031F00004339A070BD5D4F8043143B1324A002383
:10320000C4F80431D4F804311368013313604FF06B
:103210002003EFF3118283F31288BFF36F8FD4F88A
:103220000433DB0312D5BFF35B8F284B53E8001F39
:1032300021F0010043E80006002EF7D1BFF35B8FB9
:10324000002936D1D4F84031002B32D1002382F34B
:103250001188BFF36F8F4BB3FFF7C0FE4FF0200311
:10326000EFF3118C83F31288BFF36F8F184BD3E900
:103270000267B04271EB07024FF0000220D34FF01B
:10328000FF384FF0FF39D3E90015C3E902891A600E
:103290004FF48033C4F848338CF31188BFF36F8F39
:1032A00021B1009532463B460020884703B0BDE877
:1032B000F0830023C4F84031D4F840310123C6E73D
:1032C0001146E9E700100140700A0020680A00205A
:1032D00048030020431C13B521D0012821DDB0F59F
:1032E000000F20DA441EFFF779FE104BD3E90013DC
:1032F000401AB0F5000F28BF0024013002190C4815
:10330000824228BF024652184FF00000094901903E
:10331000009143F10003FFF783FE02B010BD0448A3
:10332000E0E70024DFE7024CDDE700BF58030020A0
:10333000FFFF7F00092F000008B5FFF74FFE024B8B
:103340001B68C01A08BD00BF58030020026853095B
:1033500010B504462CD0012B4FF6FF7318BF002385
:1033600002F01F02D340DB070BD414491448154A5E
:1033700040F2292303F081FC124840F2292103F096
:1033800075FC236803F01F025B0922600DD0012B3E
:1033900011D00D490A480B4A40F22E2303F06DFC70
:1033A000084840F22E2103F061FC4FF0A04010BD10
:1033B0004FF0FF33D4E70548F9E700BFA0810000D4
:1033C0005B7900006D810000FD7E0000000300506D
:1033D0004FF08053D3F83021082A06D1D3F8343186
:1033E000052B02D8024AD05C70470020704700BF0E
:1033F000F1810000024AD2F80034002BFBD0704764
:1034000000E00140014B024A1A607047540000205E
:103410000090D00310B503F0C2FE40B14FF08043DE
:103420000022C3F80C21C3F81021C3F8382503F09B
:10343000B6FE002846D04FF08052604BD2F80414FC
:10344000C3F82015D2F80814C3F82415D2F80C14C8
:10345000C3F82815D2F81014C3F82C15D2F8141498
:10346000C3F83015D2F81814C3F83415D2F81C1468
:10347000C3F84015D2F82014C3F84415D2F8241428
:10348000C3F84815D2F82814C3F84C15D2F82C14F8
:10349000C3F85015D2F83014C3F85415D2F83414C8
:1034A000C3F86015D2F83814C3F86415D2F83C1488
:1034B000C3F86815D2F84014C3F86C15D2F8442448
:1034C000C3F87025FFF784FF18B13D4B3D4AC3F8A0
:1034D0008C26FFF77DFF18B13B4BFB22C3F8182564
:1034E000FFF776FF70B14FF080414FF08053D1F875
:1034F000E42ED3F8583222F00F0203F00F031343E7
:10350000C1F8E43EFFF764FF20B1304B4FF4007286
:10351000C3F8402603F043FE48B14FF08043D3F890
:103520000024D20744BF6FF00102C3F800244FF01B
:103530008053D3F83021082A0ED1D3F83431052B2B
:1035400002D8234AD35C3BB14FF01023D3F80822B2
:103550004FF08043C3F858254FF01023D3F80022D2
:10356000002A03DBD3F80432002B22DA19490123A5
:103570004FF01020C1F804351224FFF73BFFC0F8CC
:103580000042FFF737FFC0F80442FFF733FF002384
:10359000C1F80435FFF72EFFBFF34F8F0E490F4BD5
:1035A000CA6802F4E0621343CB60BFF34F8F00BFE1
:1035B000FDE70B4B0B4A1A6010BD00BF00C0004076
:1035C000005000404881030000F00040009002409D
:1035D000EB81000000E0014000ED00E00400FA058E
:1035E000540000200090D00370B501250268B2FAA3
:1035F00082F3C3F11F035E1CDCB214D0BFF35B8FF8
:1036000005FA03F322EA030350E8006F964204D15F
:1036100040E8003CBCF1000FF6D1BFF35B8FE5D171
:1036200002480C7070BD0248FCE700BF0000AD0B03
:103630000200AD0B0368CB40DB0710B515D40123A6
:1036400003FA01F10368BFF35B8F41EA030250E81C
:10365000004F9C4204D140E8002CBCF1000FF6D191
:10366000BFF35B8FEED1024810BD0248FCE700BFFC
:103670000000AD0B0400AD0BF7B5044670B1012896
:1036800031D031493148324AD82303F0F6FA304874
:10369000D82103B0BDE8F04003F0E8BA4FF0804312
:1036A0000222C3F80823C3F80401D3F8042101223D
:1036B000DA6001239C428DF8073014BF00250DF11C
:1036C000070542F210774FF08046BCB1012C2CD098
:1036D0001D491E481F4A4FF44F7303F0CEFA1D4890
:1036E0004FF44F71D5E74FF080430022C3F8080331
:1036F000C3F80021D3F800215860DAE725B1D6F8E5
:10370000183403F003032B60D6F81834DA0319D504
:103710001DB19DF80730012B04D1012003F049FDB4
:10372000013FD2D1012C0AD00CE025B1D6F80C34DF
:1037300003F001032B70D6F80C34DB03E8D4064BFE
:1037400000225A7103B0F0BDFD7E00005B790000DD
:10375000F781000034820000740A002010B504468E
:1037600058B90B490B480C4A40F2151303F085FA7F
:10377000094840F2151103F079FA084B1A7922B979
:10378000012207481C609A8010BD0648FCE700BF74
:10379000688200005B790000F7810000740A002055
:1037A0000000AD0B0C00AD0B08B50D4B1B795BB9E0
:1037B0000C490D480D4A4FF4977303F05EFA0B481D
:1037C0004FF4977103F052FA0020FEF7B7F808B9EA
:1037D000FEF7A4F84FF080430022C3F8182508BD77
:1037E000740A0020768200005B790000F7810000F7
:1037F0002C4B1B7910B504465BB92B492B482C4A3E
:103800004FF4B47303F039FA29484FF4B47103F05C
:103810002DFA7CB1012C3AD026492448244A4FF491
:10382000D37303F02AFABDE8104021484FF4D37156
:1038300003F01CBA4FF08042D2F81814D2F81834B2
:1038400013F480330BD1D2F81414C90710D5D2F871
:103850001C349B0708D40223C2F8043316E001F09D
:103860000303012B04D01BB10020FFF705FF002349
:103870004FF08042C2F818350023C2F80431D2F864
:1038800004310223C2F804330123936010BD4FF0CA
:1038900080430022C3F80021D3F80021C3F8044379
:1038A0001C60F3E7740A0020768200005B79000058
:1038B000F7810000FD7E00000A4B1B7910B504461D
:1038C0005BB9094909480A4A40F2AD1303F0D5F93A
:1038D000074840F2AD1103F0C9F92046BDE8104099
:1038E000FFF7CABE740A0020768200005B790000F0
:1038F000F78100004FF0804310B5D3F800216AB182
:103900000022C3F80021D3F800210122C3F80823C4
:10391000114B587910B95A711B6898474FF0804382
:10392000D3F8042172B10022C3F80421D3F8042192
:10393000D3F81824D3F81814920704D10122C3F83D
:1039400018259A6010BD0222C3F80823024BBDE877
:1039500010401B6801201847740A0020034B0830F0
:1039600033F81000C0F34010704700BF580000202B
:10397000044B083033F8100010F01C0018BF012071
:10398000704700BF58000020034B083033F8100088
:10399000C0F34000704700BF5800002070B500F130
:1039A00008030C4C34F81330DA0505460E4607D5EB
:1039B000C3F3432304EBC30254F8333052689847EF
:1039C000A3682BB1E26831462846BDE8704018472D
:1039D00070BD00BF58000020194A083010B532F8F9
:1039E0001030D9051DD5C3F3432123F4F85322F831
:1039F000103002F11004002034F8023B13F4807FF1
:103A000003D0C3F3432399420BD001303028F3D1C4
:103A1000002342F831300B48FFF70CFE0A4B984266
:103A200000D110BD09490A480A4A4FF4997303F0BE
:103A300024F9BDE8104007484FF4997103F016B916
:103A400058000020CC0000200000AD0BF8820000E0
:103A50005B7900009482000038B50246FFF77EFFD4
:103A6000094C02F1080540B134F8153007495B0BE9
:103A700003F5A273002041F823001046FFF7ACFFC6
:103A8000002324F8153038BD5800002000600040A5
:103A900010B50446006803F08EFB58B9124913486C
:103AA000134A40F2292303F0E8F8114840F2292193
:103AB00003F0DCF8236803F01F025B0922600DD0DD
:103AC000012B0ED00B490948094A40F22E2303F07E
:103AD000D4F8074840F22E2103F0C8F84FF0A04078
:103AE00010BD0548FCE700BFA08100005B79000025
:103AF0006D810000FD7E000000030050F0B504461B
:103B000085B017461D46F1B103F066FB10B14D4874
:103B100005B0F0BD0B46CDE900008DF80E008DF824
:103B20000F000DF10F020DF10E01204603F063FBB3
:103B3000454A04F1080132F8113023F0020343F042
:103B4000010322F8113097B120463E787A68FFF7DA
:103B50001BFF80B1002ADAD13B4A04F1080132F898
:103B6000113023F01C0343EA860322F81130002DA4
:103B70003DD13648CCE7344F04F1080C37F81C101F
:103B800021F02001C904C90C27F81C10002AE3D039
:103B9000032EBCD813782EB92D4A03F5A27142F832
:103BA0002160D9E79A0002F1804202F5C04241EA61
:103BB0004331D2F8100520F00300C2F81005D2F806
:103BC000100520F44F3020F44070C2F81005D2F8F0
:103BD00010E5200200F47C504EEA064E40EA0E004A
:103BE00041F0200127F81C10C2F81005B4E7D5E910
:103BF00000672046FFF7F0FE002EBAD0124D2B686A
:103C00009E4204D16B689F4201D100220AE0114814
:103C10000DF10F01FFF7E8FC0C4B98427FF478AFF1
:103C20009DF80F2045F8326005EBC20308345F6051
:103C300035F8143043EA422343F4807325F81430F6
:103C400097E700BF0400AD0B580000200000AD0B4B
:103C500000600040CC000020F0B5044685B0154659
:103C600021B3FFF791FE20B92046FFF777FE002829
:103C70005ED12046FFF77CFE10B14B78012B57D068
:103C800001238DF80F300023CDE900134A1C8B1C53
:103C900020460DF10F0103F0AEFA264A04F10801A7
:103CA00032F8113043F0030322F8113015B92248DD
:103CB00005B0F0BD2046FFF767FEC8B31D4E95F86E
:103CC00000C004F10807614636F81700890020F0AB
:103CD000200001F18041C00401F5C041C00C26F86C
:103CE00017000023C1F810356A78002ADFD0D1F818
:103CF0001035AD7823F4991323F4F853C1F8103537
:103D0000D1F810E5230203F47C53120402F440328C
:103D100043EA0E0313432A0502F4801240EA4C30B2
:103D2000134340F0200026F81700C1F81035BEE715
:103D30000248BDE7580000200000AD0B0400AD0BA9
:103D4000014BC3E9020170475800002038B5044612
:103D50000D4659B90C490D480D4A40F2352302F081
:103D60008CFF0B4840F2352102F080FF2046FFF720
:103D7000F5FD38B1074B0848083433F814305B0BB5
:103D80002B7038BD0548FCE70C8300005B79000010
:103D900094820000580000200000AD0B0400AD0B21
:103DA00038B50F4C94F87850BDB96022294604F11B
:103DB000100002F0C3FF0620FDF7B0FD094B0A48D2
:103DC000C3F87C51D3F87C214FF00042C3F80423A0
:103DD000012384F87830636738BD0448FCE700BFEE
:103DE00058000020006000400000AD0B0500AD0B46
:103DF000034B93F87800003818BF0120704700BFCC
:103E00005800002001460148FFF714BCC8000020FC
:103E100001460148FFF7E8BBC8000020F7B504469B
:103E20000D46FFF7A5FD58B930493148314A40F2F7
:103E3000DF3302F022FF2F4840F2DF3102F016FF9D
:103E40002046FFF78BFD2C4E04F1080718B32046DF
:103E5000FFF79AFD0246F0B936F81700410B084605
:103E600003F0C5F900F1804303F5C0431A601B68F5
:103E70008B0003F1804303F5C043D3F8102542F0D3
:103E80000102C3F8102525B11C4A01238B40C2F85A
:103E9000043303B0F0BD5DB919491548154A40F225
:103EA000EE3302F0EAFE134840F2EE3102F0DEFE9D
:103EB00036F81730C3F38203042B12D0052B12D02F
:103EC00001A80194FFF7E4FD019BD0F81015D9403B
:103ED00001F001010231204603B0BDE8F04003F0DB
:103EE000D5B90321F7E70221F5E700BF16830000EB
:103EF0005B790000948200005800002000600040C0
:103F00002B83000008B50246FFF728FDC8B1104614
:103F1000FFF73AFDA8B908320D4B0E4933F81230BD
:103F200001225B0B9A409B0003F1804303F5C043E1
:103F3000C1F80823D3F8102522F00302C3F8102596
:103F400008BDBDE808400021104603F09FB900BF3E
:103F500058000020006000400E4B00F1080213B52D
:103F600033F81230DB07044611D5FFF7CBFF2046AC
:103F7000FFF772FD01A80194FFF78AFD019B03F58D
:103F8000E073022240F82320034802B010BD03482A
:103F9000FBE700BF580000200000AD0B0400AD0B94
:103FA0002DE9F04F654B66486649002687B001222F
:103FB00034461D6835B1D0F8045315421EBF1C604D
:103FC0001D68164304338B424FEA4202F1D1DFF8F9
:103FD0007081D8F87C31002B00F093804FF0A04323
:103FE000D3F820250492C3F82025D3F82028059281
:103FF000C3F8202800270DF110097B0100934FF032
:10400000010A4BE0009B504A94FAA4F4B4FA84F4F9
:104010001C4404F10803E00832F81330039404F060
:1040200007020AFA02FC19F8002022EA0C02990899
:1040300009F8002003A8C3F382050191FFF728FDCA
:10404000039A019902F5E0724B0750F82220AB4623
:10405000C2F3014229D559462046D5B2FFF79EFC4E
:1040600003A80394FFF714FD039B03F5E07350F8D6
:104070002330C3F301439D4207D10021204603F0C2
:1040800005F92946204603F001F903A80394FFF738
:10409000FFFC039B0AFA03F3C0F8203559F82740C8
:1040A000002CAFD1CFB90127A7E7022A0CBF03210B
:1040B00002212046019203F0E9F8032D04D0019A71
:1040C000022A06D1012DE0D159462046FFF766FCB1
:1040D000DBE7032AD9D1022DF5E7C8F87C41D8F8EF
:1040E0007C311A494FF0A043D3F820250492C3F83D
:1040F0002025D1F820350593C1F8203513437FF4EE
:1041000079AF012416B907B0BDE8F08F96FAA6F38F
:10411000B3FA83F304FA03F29B0003F1804303F53F
:10412000C04326EA0206D3F81005D3F81015C0F3F1
:104130000520C1F30141FFF731FCE3E700610040D6
:104140000060004020610040580000200003005043
:1041500001460148FFF748BAD400002010B5144CBE
:10416000144A1549032323616361144BA261E3617F
:104170004FF4806323620023A3626362E3622266DA
:104180000F4A6266E01D1022A2662367E36663673A
:1041900002F0AFFDBFF35F8F0A49204602F0A9FD90
:1041A000BFF35F8F2023A371BFF35F8F10BD00BFEC
:1041B0007C0A0020368300003F830000560D00205B
:1041C000460D0020438300000E4B70B553F820408D
:1041D000013053F82060A64200D870BDD4E9003504
:1041E0002846984765B1EB6830B10028B8BF404217
:1041F000FF28A8BFFF2018705A7842F001025A70B9
:104200000834E8E77C770000F8B504460E464FF026
:104210002003EFF3118783F31288BFF36F8F01F050
:1042200015FE31460546204602F0AAFF042C0CD1AB
:104230000A490B4A0B488F2302F01FFD0A4802F07F
:104240001CFD07488F2102F011FD87F31188BFF391
:104250006F8F2846BDE8F840FDF76CBE6C83000008
:104260004A8300005B7900008983000008B50A4B8F
:10427000012202201A70FFF7A7FF02F0C3F9032002
:10428000FFF7A2FF00F07AFAFCF714F9034A137B58
:1042900023F00103137308BD56110020E003002032
:1042A00008B50348034A0021121A03F010F808BDAC
:1042B000C00100205811002070B5002386B00122F3
:1042C000CDE90423134E144D01930F22CDE90232A0
:1042D0001249182303FB005506EBC01604464FF4A1
:1042E000B07000FB04110E4B00954FF4A0723046E5
:1042F00000F090F9737B0B482C7523F00403737363
:104300004FF4026303FB04041C44EE606C6006B0CF
:1043100070BD00BF60030020240B0020E0210020BE
:10432000D94800004023002080B52E4BA6B083F36F
:1043300008882D4D2D4E6B692D4F43F400736B6132
:104340000024E02385F82230EC772C766C76AC766E
:1043500085F820406B6A43F4E0236B6285F82340C4
:10436000FDF75CFDFDF7BCFA4FF0FF33AB62EB628B
:1043700006ADFDF711FFFDF741FE40F2011328469F
:10438000ADF82430CDE91F4402F036F9B56002F0F3
:1043900093FF2046FFF718FF0120164DFFF714FF8B
:1043A00001F0C6FB144BF5610593012313490094FA
:1043B000CDE903434FF480623B46CDE901442846F2
:1043C00000F028F96A7B064622F0040228466A7348
:1043D00001F000F82046FFF76FFF3A4631462846C5
:1043E000FDF794FB602B002000ED00E0240B002083
:1043F0006D420000E0030020BE830000C01D0020CD
:10440000F8B5164C164D174EAC420CD91649174844
:104410003D23324602F031FC154802F02EFC3D21CE
:10442000304602F023FCAC4201D30020F8BDD4E9B1
:10443000042141EA020313F003030BD1E068A361F6
:10444000834201D12034DFE7A7690F600133A16106
:104450001144F5E76FF01500E8E700BF54010020B4
:1044600054010020C3830000E88300005B79000052
:10447000058400002DE9F74304460E4690461F468A
:1044800000F108054FF02003EFF3118983F3128840
:10449000BFF36F8F284600F0F9F968B9244A25491F
:1044A00025488E2302F0E9FB2448294602F0E5FB6B
:1044B0001F488E2102F0DAFB284600F005FAA369B6
:1044C000EBB133601B68A361E3690133E36100244E
:1044D000284600F0E9F968B9154A19491648B92380
:1044E00002F0CBFB1748294602F0C7FB1048B92160
:1044F00002F0BCFB89F31188BFF36F8F13E058EA19
:10450000070203D133606FF00B04E1E72246CDE9E7
:1045100000874946284601F00DF9044618B90A4BB0
:104520009B685B693360204603B0BDE8F08300BF41
:104530001B7A0000747A00005B790000897A000021
:10454000487A00005F7A0000240B00202DE9F0413A
:1045500004460E4600F108054FF02003EFF31187E3
:1045600083F31288BFF36F8F284600F08FF968B984
:10457000224A234923488E2302F07FFB2248294602
:1045800002F07BFB1D488E2102F070FB284600F0F4
:104590009BF9D4F81880B8F1000F0FD1204601F034
:1045A00077FA58B132684261C0F8788000F012FFA3
:1045B00039462846BDE8F04100F0C0BC3368A26926
:1045C0001A603368A361E369013BE361284600F0A8
:1045D0006BF968B9094A0D490A48B92302F04DFB45
:1045E0000B48294602F049FB0448B92102F03EFB82
:1045F00087F31188BFF36F8FBDE8F0811B7A00004D
:10460000747A00005B790000897A0000487A000023
:104610005F7A00002DE9F04385B00446DDF83C8068
:10462000B8F10F0F0F461546994632D1254B9945E3
:1046300033D104F15803C4E91633109B23730735B3
:104640000423637325F0070507F12003C4E9193536
:104650000E9B84F80E80029305F120080D9B0193B8
:1046600000260C9B0093B8444B46C4E90666A6603E
:10467000E673E666424639462046FDF715FA124BC8
:1046800066659B6803B11B6F2367404605B0BDE8B4
:10469000F08308F110031E2BCBD90C4A0C490D48AE
:1046A00040F2FF1302F0E9FA41460B486FF00F03A6
:1046B0000E2202F0E2FA054840F2FF1102F0D6FAAB
:1046C000B7E700BFD9480000240B00202484000075
:1046D000478400005B790000C78400002DE9F043A7
:1046E00087B0DDE9146504460F4690469946EFF31E
:1046F000058373B11C491D4A1D4840F26E2302F028
:10470000BCFA1C4802F0B9FA184840F26E2102F0D7
:10471000ADFA00230593129B0493119B0393109B06
:1047200002930F9B01930E9B009342464B463946E2
:104730002046FFF76FFFB5F1FF3F08BFB6F1FF3F1F
:1047400005D055EA060306D1204600F08BFE204630
:1047500007B0BDE8F083084932462B4604F1180043
:1047600001F092FCF3E700BFF8840000248400000D
:104770005B7900000A8500000D5500002DE9F0432B
:104780003B4C3C4D3C4F87B0AC4226460ED93B4992
:104790003B4840F2D5233A4602F06FFA394802F01E
:1047A0006CFA40F2D521384602F060FAAE4204F1CC
:1047B00030041FD300F006FC2D4C2F4EDFF8BC80D8
:1047C000DFF8BC90AC420ED941464FF43D733246FF
:1047D000484602F052FA2B4802F04FFA4FF43D716E
:1047E000304602F043FAAC4220D307B0BDE8F043B4
:1047F00001F0D2B854F8043C059354F8103C0493EB
:1048000054F8143C039354F8183C029354F81C3C9D
:10481000019354F8203C009354E90C0154E90A2315
:10482000FFF7F8FE54F8303C5E65ADE7636A5A1C4A
:104830000FD023EAE3734FF4004240F2E730002147
:10484000C3FB020151EAC333276804D1384600F0A4
:1048500009FE3034B6E74FF47A720023FBF750FCC0
:1048600002460B4607F11800074901F00DFCF0E77E
:104870005401002054010020248400002F850000F2
:104880005B790000058400000D550000006838B118
:10489000044B1B7D00F00300C01A18BF01207047B5
:1048A00001207047240B0020064903468A68087DD2
:1048B0001968024391424FF0000004BF18600120C4
:1048C000704700BF240B0020024A117D93680B4300
:1048D00003607047240B0020134C08B5A36893F9BC
:1048E0000E30002B09DA11491148124A272302F031
:1048F000C4F91048272102F0B9F90F4D4FF02002FA
:10490000EFF3118382F31288BFF36F8F01F0D2FCB3
:104910002B78A06113B9FCF7E9FFEFE7FCF73CFE49
:104920000028EBD1F7E700BF240B00207D850000B5
:104930005B7900005C850000561100202DE9F341F1
:10494000044617461E46EFF3058363B16D496E4A70
:104950006E48652302F091F96D4802F08EF96A48BD
:10496000652102F083F94FF02003EFF3118883F300
:104970001288BFF36F8F6748FFF788FF68B9664AF0
:10498000664962488E2302F078F96249644802F071
:1049900074F961488E2102F069F95E48FFF794FFCF
:1049A000E368604AFBB1A068916888423DD057EA4D
:1049B00006033CD15748FFF777FF68B9564A5A4972
:1049C0005248B92302F059F95249584802F055F9B2
:1049D0005148B92102F04AF988F31188BFF36F8F6B
:1049E0006FF00F001EE0916891F90E1049482161A7
:1049F0000133E3609368A360FFF756FF68B9464A46
:104A000049494248B92302F038F94249474802F07F
:104A100034F94148B92102F029F988F31188BFF32C
:104A20006F8F002002B0BDE8F0812169DEE791F9C7
:104A30000E1090F90E309942A8BF19466FF07E0211
:104A40009142B8BF11468B4243DD02F06DFC054632
:104A5000CDE900762F482246414600F06BFE002843
:104A6000E0D04FF02003EFF3118683F31288BFF3F9
:104A70006F8F2848FFF70AFF68B9274A274923485C
:104A80008E2302F0FAF82349254802F0F6F822486E
:104A90008E2102F0EBF81F48FFF716FF236821690B
:104AA0009C420AD04BB193F90E309942A8BF1946E7
:104AB0006FF07E039942B8BF1946A06802F034FC3B
:104AC00000B945B11348314600F038FA6FF00A00DA
:104AD000A8E70025BCE70F48FFF7E6FE68B90E4AD5
:104AE00011490A48B92302F0C8F80A490F4802F0F0
:104AF000C4F80948B92102F0B9F886F31188BFF368
:104B00006F8FE3E7F8840000A58500005B79000063
:104B1000C78500004C0B00201B7A0000747A00004F
:104B2000897A0000240B0020487A00005F7A000098
:104B300038B50446EFF3058363B15049504A5148F4
:104B4000C72302F09AF8504802F097F84C48C72162
:104B500002F08CF8A368002B00F089804B4DAA6806
:104B6000934240F08780E3684BB949494548444A3D
:104B7000DF2302F082F84248DF2102F077F8EFF3FA
:104B8000058363B13D49434A3E48FD2302F075F871
:104B9000414802F072F83F48FD2102F067F8AB6827
:104BA000DB7B012B0CD13D493A4A3648FE2302F00B
:104BB00064F8394802F061F83648FE2102F056F8F0
:104BC000AA68D37B013BD373E368012B05D9013B72
:104BD000E36000F0E1FE002038BD4FF02003EFF36A
:104BE000118583F31288BFF36F8F2D48FFF74EFEB8
:104BF00068B92C4A2C4923488E2302F03EF82849F4
:104C00002A4802F03AF827488E2102F02FF824486B
:104C1000FFF75AFE2169A06802F086FB204600F0EB
:104C200037FFA06058B190F90E2022610022826700
:104C300000F0D0FB1A48294600F080F9C9E7E0608F
:104C40001748FFF731FE68B9164A19490D48B923CC
:104C500002F013F81249174802F00FF81148B92171
:104C600002F004F885F31188BFF36F8FB1E76FF09E
:104C70001500B1E74FF0FF30AEE700BFF884000049
:104C8000A58500005B790000C7850000240B00208B
:104C9000EC850000038600002E86000031860000AF
:104CA0004C0B00201B7A0000747A0000897A000007
:104CB000487A00005F7A000038B504464FF02003C0
:104CC000EFF3118583F31288BFF36F8F1448FFF75A
:104CD000DDFD68B9134A144914488E2301F0CDFF55
:104CE0000F49134801F0C9FF0E488E2101F0BEFFA5
:104CF0000B48FFF7E9FD204600F0CAFE48B100224C
:104D0000826700F067FB29460548BDE8384000F09F
:104D100015B9D4E902329A4218BF0133A360F2E711
:104D2000500B00201B7A0000747A00005B790000B1
:104D3000897A0000F7B5044616461D46EFF3058351
:104D40007BB152EA05030CD03549364A36487923FF
:104D500001F093FF354801F090FF3248792101F0CE
:104D600085FF4FF02003EFF3118783F31288BFF321
:104D70006F8F2F48FFF78AFD68B92E4A2E492A48BF
:104D80008E2301F07AFF2A492C4801F076FF29484A
:104D90008E2101F06BFF2648FFF796FDA368D3B183
:104DA000013B2348A360FFF77FFD68B9214A2449EE
:104DB0001D48B92301F061FF1D49224801F05DFF44
:104DC0001C48B92101F052FF87F31188BFF36F8FA0
:104DD000002003B0F0BD56EA050318D11448FFF7D0
:104DE00063FD68B9134A16490F48B92301F045FF1E
:104DF0000F49144801F041FF0E48B92101F036FF78
:104E000087F31188BFF36F8F6FF00F00E1E7CDE9F3
:104E1000006522463946064800F08CFCD9E700BF01
:104E200082860000628600005B7900002E8600000A
:104E3000500B00201B7A0000747A0000897A000071
:104E4000487A00005F7A000038B5074D2C6854B1ED
:104E5000FEF772FA054B04441C6128680021BDE886
:104E6000384001F06FBA38BD600B0020240B0020E1
:104E7000F8B504460D464FF02003EFF3118783F396
:104E80001288BFF36F8F2348FFF700FD68B9224AED
:104E9000224923488E2301F0F0FE1E49214801F0EB
:104EA000ECFE1D488E2101F0E1FE1A481E4EFFF770
:104EB0000BFD00214FF4004C40F2E730316100233C
:104EC0004FF47A72E4FB0C01FBF71AF9002C174B34
:104ED0001CDC1860164BB0681D60FFF7B5FF0D486D
:104EE000FFF7E2FC68B90C4A12490D48B92301F0FA
:104EF000C4FE0849104801F0C0FE0748B92101F07E
:104F0000B5FE87F31188BFF36F8FF8BD0228B8BFD5
:104F10000220DEE7580B00201B7A0000747A0000A4
:104F20005B790000897A0000240B0020600B0020D0
:104F30005C0B0020487A00005F7A000038B5044618
:104F40000D46E9B9EFF30583D3B9194BDA699B68CC
:104F50009A4215D0FFF7A8FC68B9164A16491748B7
:104F6000D02301F08AFE1648214601F086FE114842
:104F7000D02101F07BFEBDE838400020FCF740BDA9
:104F80002046FFF791FC68B90A4A0B490B48B92340
:104F900001F073FE0A48214601F06FFE0548B92171
:104FA00001F064FE85F31188BFF36F8F38BD00BF39
:104FB000240B00201B7A0000487A00005B79000077
:104FC0005F7A000038B54FF02003EFF3118583F3CB
:104FD0001288BFF36F8F2948FFF758FC68B9284A39
:104FE000284929488E2301F048FE2449274801F02A
:104FF00044FE23488E2101F039FE2048FFF764FC6F
:10500000EFF3058363B12249224A1F48FD2301F0D3
:1050100034FE214801F031FE1E48FD2101F026FE3C
:105020001E4CA368DB7B012B0CD11D49194A164885
:10503000FE2301F022FE184801F01FFE1548FE2154
:1050400001F014FEA268D37B013BD3730B48FFF73A
:105050002BFC68B90A4A13490B48B92301F00DFE2D
:105060000649114801F009FE0548B92101F0FEFD8D
:1050700085F31188BFF36F8F38BD00BF580B002038
:105080001B7A0000747A00005B790000897A0000C6
:10509000F8840000038600002E860000240B002008
:1050A00031860000487A00005F7A00000C4B99427C
:1050B00010B50C460BD10B490B480C4A40F23D434E
:1050C00001F0DBFD094840F23D4101F0CFFDD4E99C
:1050D000003213605A600023C4E9003310BD00BFE2
:1050E00060030020F28600005B790000D08600009B
:1050F000836810B504465BB90B490C480C4A40F272
:10510000B92301F0BAFD0A4840F2B92101F0AEFD21
:10511000A0682146FFF7CAFF637B23F00203637395
:105120000023A36010BD00BF138700005B7900005F
:10513000D086000038B502461448154D02F019F922
:10514000044600B9EC68CAB9AB6863B91149124AA0
:105150001248892301F091FD114801F08EFD0E489F
:10516000892101F083FDAB685A7BD20606D1A26982
:1051700022B9DA897F2A01D9EB6138BDAB68A34235
:1051800002D02046FFF760FEEC61F6E7440B0020FA
:10519000240B00202A870000D08600005B790000E5
:1051A0002E86000070B590F90D20437B002A04463E
:1051B00006DA03F07F03437301461E48FFF776FFCC
:1051C000637B63F07F0363731B4B9C4209D11B49D4
:1051D0001B481C4ABA2301F050FD1A48BA2101F0BD
:1051E00045FD194AD2E9083002F12005AB421BD037
:1051F000D3B194F90E6093F90E108E420FD0891B33
:1052000000290CDD5968C4E900310C605C609068CD
:10521000031B5842BDE870405841FFF78BBF8342E3
:1052200002D01B68002BE6D1C4E900500460546230
:10523000EDE700BF440B002060030020F286000071
:105240005B790000D0860000240B002070B5054675
:105250004FF02003EFF3118683F31288BFF36F8FB3
:105260002A48FFF713FB68B9294A2A492A488E239E
:1052700001F003FD2549294801F0FFFC24488E2157
:1052800001F0F4FC2148FFF71FFB254B254A9C68E1
:1052900011688C4219D12046FFF7D6FD1B48FFF755
:1052A00003FB68B91A4A20491B48B92301F0E5FC01
:1052B00016491E4801F0E1FC1548B92101F0D6FC61
:1052C00086F31188BFF36F8F70BD00211160184AFB
:1052D0001268C2B1E2897F2A15D8627BD20612D148
:1052E000144A94F90E10126891420CDB124A94424F
:1052F00009D01A69AA4203DC2046FFF753FFCAE728
:10530000521B1A61CAE70022FBE700BF580B0020BE
:105310001B7A0000747A00005B790000897A000033
:10532000240B0020540B0020487A00005F7A000014
:10533000600B00205C0B00206003002070B590F92A
:105340000D20437B002A044639DBDA0637D1826917
:10535000002A34D163F07F034373194B984209D17B
:1053600018491948194ABA2301F087FC1748BA218D
:1053700001F07CFC164AD2E9083002F12005AB426C
:1053800018D0BBB194F90E6093F90E108E420CD078
:10539000891B002909DD5A68C4E9003214605C6089
:1053A000BDE870400020FFF7C5BE984202D01B68E0
:1053B000002BE9D1C4E9005004605462F0E770BDED
:1053C00060030020F28600005B790000D0860000B8
:1053D000240B002038B504464FF02003EFF311856D
:1053E00083F31288BFF36F8F1748FFF74FFA68B93E
:1053F000164A174917488E2301F03FFC12491648F8
:1054000001F03BFC11488E2101F030FC0E48FFF703
:105410005BFA2046FFF792FF0B48FFF745FA68B9A1
:105420000A4A0E490B48B92301F027FC06490C48EB
:1054300001F023FC0548B92101F018FC85F311881F
:10544000BFF36F8F38BD00BF580B00201B7A0000E0
:10545000747A00005B790000897A0000487A0000C5
:105460005F7A000038B504464FF02003EFF3118552
:1054700083F31288BFF36F8F1D48FFF707FA68B9EF
:105480001C4A1D491D488E2301F0F7FB18491C4892
:1054900001F0F3FB17488E2101F0E8FB1448FFF7F9
:1054A00013FA637B5A0716D41148FFF7FDF968B960
:1054B000104A14491148B92301F0DFFB0C49124886
:1054C00001F0DBFB0B48B92101F0D0FB85F311881B
:1054D000BFF36F8F38BD23F0040320466373FFF7DB
:1054E0002DFF29460248BDE83840FFF727BD00BF21
:1054F000580B00201B7A0000747A00005B790000D2
:10550000897A0000487A00005F7A000070B504468E
:105510004FF02003EFF3118683F31288BFF36F8FF0
:105520002048FFF7B3F968B91F4A204920488E2365
:1055300001F0A3FB1B491F4801F09FFB1A488E2175
:1055400001F094FB1748FFF7BFF914F80B3C13F078
:10555000280F10D154F8103CA4F1180513B12846B7
:10556000FFF7C6FD14F80B3C23F0140304F80B3CC2
:105570002846FFF7E3FE0B48FFF796F968B90A4A99
:105580000D490B48B92301F078FB06490B4801F09F
:1055900074FB0548B92101F069FB86F31188BFF35C
:1055A0006F8F70BD580B00201B7A0000747A0000CA
:1055B0005B790000897A0000487A00005F7A000079
:1055C00010B590F90D20437B002A044606DA03F05B
:1055D0007F03437301460648FFF768FD054B986853
:1055E000031B5842BDE810405841FFF7A3BD00BF60
:1055F000440B0020240B002038B504460D46FFF76D
:10560000DFFF637B43F002036373FDB1164BA560BC
:105610009C4209D115491648164ABA2301F02DFBC0
:105620001448BA2101F022FB2B689D4215D0A3B18A
:1056300094F90E1093F90E20914208D0521A002AC4
:1056400005DD5A68C4E9003214605C6038BD6A68E0
:10565000934202D01B68002BECD16B68C4E9005365
:105660001C606C60F2E700BF60030020F28600005F
:105670005B790000D08600002DE9F04104468846A1
:1056800016461D464FF02003EFF3118783F312886F
:10569000BFF36F8F1F48FFF7F9F868B91E4A1F491B
:1056A0001F488E2301F0E9FA1A491E4801F0E5FA75
:1056B00019488E2101F0DAFA1648FFF705F920465D
:1056C0004146FFF799FF1348FFF7EEF868B9124A11
:1056D00015491348B92301F0D0FA0E49134801F0D7
:1056E000CCFA0D48B92101F0C1FA87F31188BFF354
:1056F0006F8FB5F1FF3F08BFB6F1FF3F08D03246CC
:105700002B4604F118000A49BDE8F04100F0BCBC8A
:10571000BDE8F081580B00201B7A0000747A00006D
:105720005B790000897A0000487A00005F7A000007
:105730000D55000038B5114B04469868104B0D46C6
:1057400018601146DDE90423FFF796FF2046FFF7B6
:10575000ABF868B90B4A0C490C48D02301F08DFA1C
:105760000B48214601F089FA0648D02101F07EFA63
:105770002846BDE83840FCF743B900BF240B0020A1
:10578000540B00201B7A0000487A00005B7900006F
:105790005F7A0000F8B504460D464FF02003EFF3A2
:1057A000118683F31288BFF36F8F3A48FFF76EF8C4
:1057B00068B9394A39493A488E2301F05EFA3549C9
:1057C000384801F05AFA34488E2101F04FFA314836
:1057D000FFF77AF8637BDA066DB257D1A269002A27
:1057E00054D103F07F0363732F482146FFF75EFC1B
:1057F000637BA57363F07F0363732C4B9C4209D1D9
:105800002B4927482B4ABA2301F037FA2948BA21F5
:1058100001F02CFA284AD2E9083002F12005AB4207
:105820002FD073B394F90E7093F90E108F4223D0DA
:10583000C91B002920DD5A68C4E9003214605C608D
:105840000120FFF777FC01241248FFF72DF868B913
:10585000114A1A491248B92301F00FFA0D491848A4
:1058600001F00BFA0C48B92101F000FA86F3118817
:10587000BFF36F8F2046F8BD834202D01B68002B18
:10588000D2D1C4E9005004605462D9E7A573002462
:10589000DAE700BF580B00201B7A0000747A000082
:1058A0005B790000897A0000440B0020600300202F
:1058B000F2860000D0860000240B0020487A000009
:1058C0005F7A000070B50446183000F0A5FC4FF078
:1058D0002003EFF3118683F31288BFF36F8F2548FF
:1058E000FEF7D4FF68B9244A244925488E2301F0E5
:1058F000C4F92049234801F0C0F91F488E2101F066
:10590000B5F91C48FEF7E0FF94F90D20637B002AEF
:1059100006DA03F07F031C4863732146FFF7C6FBDA
:105920001A4D637BA86843F010036373031B58424E
:105930005841FFF7FFFB0F48FEF7B6FF68B90E4A64
:1059400013490F48B92301F098F90A49114801F0A9
:1059500094F90948B92101F089F986F31188BFF358
:105960006F8FAB68A34203D1BDE8704001F0F7BC74
:1059700070BD00BF580B00201B7A0000747A000035
:105980005B790000897A0000440B0020240B002082
:10599000487A00005F7A000038B54FF02003EFF33B
:1059A000118583F31288BFF36F8F2D48FEF76EFFCA
:1059B00068B92C4A2C492D488E2301F05EF92849FC
:1059C0002B4801F05AF927488E2101F04FF9294C54
:1059D0002348FEF779FFA368DB7B73B92649274A82
:1059E000224840F2BB3301F048F9254801F045F95F
:1059F000224840F2BB3101F039F9EFF3058373B16E
:105A000020491E4A19484FF46F7301F036F91C48BB
:105A100001F033F919484FF46F7101F027F9A268CA
:105A2000D37B01330020D373FFF784FB0C48FEF7D0
:105A30003BFF68B90B4A14490C48B92301F01DF922
:105A40000749124801F019F90648B92101F00EF989
:105A500085F31188BFF36F8FBDE8384001F07FBC3C
:105A6000580B00201B7A0000747A00005B7900005C
:105A7000897A0000240B002051870000D0860000A6
:105A80002E860000F8840000487A00005F7A00004B
:105A900038B504464FF02003EFF3118583F31288E5
:105AA000BFF36F8F1B48FEF7F1FE68B91A4A1B4916
:105AB0001B488E2301F0E1F816491A4801F0DDF881
:105AC00015488E2101F0D2F81248FEF7FDFE20465F
:105AD00001F04FFC044628B1FFF70AFB04F118005F
