:1000000020140020752700009B6100004927000094
:100010004927000049270000492700000000000090
:10002000000000000000000000000000D9200000D7
:10003000492700000000000085200000492700003B
:100040008921000089210000892100008921000008
:1000500089210000892100008921000089210000F8
:1000600089210000892100008921000089210000E8
:1000700089210000892100008921000089210000D8
:1000800089210000892100008921000089210000C8
:1000900089210000892100008921000089210000B8
:1000A00089210000892100008921000089210000A8
:1000B0008921000089210000892100008921000098
:1000C0008921000089210000892100008921000088
:1000D0008921000089210000892100008921000078
:1000E0008921000089210000892100008921000068
:1000F0008921000089210000892100008921000058
:1001000053B94AB9002908BF00281CBF4FF0FF317E
:100110004FF0FF3000F00CB8ADF1080C6DE904CEE3
:1001200000F008F8DDF804E0DDE9022304B07047D0
:10013000704700BF2DE9F04F07468C460846099EE0
:1001400015463C461946002B40F0C6808242B2FA62
:1001500082F746D94FB1C7F1200E24FA0EFE00FAFD
:1001600007F3BD404EEA030CBC404FEA15481FFAA6
:1001700085FEBCFBF8F9220C08FB19C309FB0EFA3B
:1001800042EA03439A4528D9EB1809F1FF3004D21B
:100190009A4502D9A9F102002B44A3EB0A03A4B2A9
:1001A000B3FBF8F208FB123302FB0EFE44EA0344F1
:1001B000A64514D92C1902F1FF3303D2A64501D963
:1001C000931E2C44A4EB0E0443EA00401EB1FC40F5
:1001D000002334607360BDE8F08F4846DDE71346C6
:1001E000F0E702B9FFDE87BB831A01214FEA154E03
:1001F000AAB2B3FBFEFC200C0EFB1C330CFB02F876
:1002000040EA0343984563D9EB180CF1FF3004D260
:10021000984502D9ACF102002B44A3EB0803A4B229
:10022000B3FBFEFC0EFB1C330CFB02F244EA03445E
:10023000A2424FD92C190CF1FF3304D2A24202D9A9
:10024000ACF102032C44A41ABEE7C7F1200C20FA3B
:100250000CF800FA07F324FA0CFCBD404CEA030248
:100260004FEA154EABB2B8FBFEFC110C0EFB1C8026
:100270000CFB03F941EA0040814504FA07F423D955
:1002800028180CF1FF3104D2814502D9ACF10201EA
:100290002844A0EB090092B2B0FBFEFC0EFB1C0050
:1002A0000CFB03F842EA004398450FD9EB180CF118
:1002B000FF3204D2984502D9ACF102022B44A3EBE1
:1002C000080342EA014191E76146E2E76246F6E748
:1002D0006046A2E76346B6E7834205D90EB1C6E998
:1002E00000700021084676E7B3FA83F181B98342B2
:1002F00001D3BA420AD8BC1A60EB030301209C4622
:10030000002E68D0C6E9004C002164E70846F7E7F4
:10031000C1F1200C8B4022FA0CF41C4302FA01F5C7
:1003200000FA01F327FA0CF220FA0CFB4FEA144909
:100330001343BBFBF9F81FFA84FE09FB18BB1A0C28
:1003400008FB0EFA42EA0B42924507FA01F73ED942
:10035000A21808F1FF3004D2924502D9A8F1020098
:100360002244A2EB0A029BB2B2FBF9F809FB182265
:1003700008FB0EFE43EA024296452AD9A21808F16C
:10038000FF3304D2964502D9A8F10203224443EA7E
:100390000040A0FB0593A2EB0E029A42CE4698467F
:1003A00002D306D14F4504D2B9EB050E63EB040826
:1003B000013886B1B7EB0E0362EB080707FA0CFCB5
:1003C000CB404CEA0303CF40C6E900379CE74046E8
:1003D000C7E74346DBE73146FDE6000000000000CA
:1003E0002DE9F04F054687B0DFF88480D8F8083053
:1003F000039304AA5B68002140469847002830DB3D
:10040000DDE9044A1B4BA4FB03B703FB0A775846FC
:1004100015A3D3E9002339464FF0FF39FFF770FEEB
:10042000D945DFF854B07BEB0703064619D3A5FB8B
:10043000047405FB0A450CA3D3E90023384629467A
:10044000FFF75EFEB9457BEB0502034609D3864202
:1004500007D301220092039A0021146840463246D5
:10046000A04707B0BDE8F08F00CA9A3B000000002B
:10047000BC6C000080969800FFC99A3B10B50C48F0
:100480000C4C83684FF480415B69984723680A48A5
:100490000133052BC8BF01232360216805F0D9FC77
:1004A00023680648B0FBF3F0BDE81040FFF798BFA3
:1004B0005C6C000000000020E8710000809698004D
:1004C00070B52B4C204606F015FA28B9216829484A
:1004D000BDE8704005F0BDBC204606F00BFA10B92F
:1004E00021682548F4E7254D284606F003FA10B99F
:1004F00029682348ECE74FF4D011224805F03DFC71
:10050000011E01DA2048E3E72049214805F035FCC7
:10051000011E01DA1F48DBE72369A5681B68AE6985
:1005200013F4006F0CBF4FF080634FF000730B218A
:100530004FF0A0722046B047011E01DA1648C7E707
:10054000164805F086FC1649164B4B604FF40063C5
:100550008B60EB6913B10122204698471248FFF7E0
:100560003FFF00214FF4F01005F060F8F9E700BFFD
:100570005C6C00000072000024720000BC6C000083
:100580004A720000006F00006D7200001000010050
:10059000F86E0000A4720000DD72000020730000FD
:1005A000D80200207D04000080841E002DE9F04F59
:1005B0008DB01F46169B0292009302F00403C2F313
:1005C000C2020193531C820705460E46049340F075
:1005D0002182041D002840F0208201F00706341D0E
:1005E000C6F108064FF0000A4FF004087B1ECDF854
:1005F0000CA05246D146414605B127600498002818
:1006000007DCCB488742C0F04181CA48874280F06E
:100610003D81029810F0020E00F051814FF0010C64
:10062000601BBEF1000F00F03781B0F5007FC0F015
:1006300033816FF01500FEE0B9F1000F08D12528D5
:1006400040F041814FF001094FF0040841463AE182
:100650002B2825D81F2802D84FF0000933E1A0F13C
:10066000200CBCF10B0FF7D80FF2040E5EF82CF043
:10067000C70800005906000059060000C70800001E
:1006800059060000590600005906000059060000EE
:10069000590600005906000057080000C70800006E
:1006A000A0F12D0C5FFA8CFEBEF14D0FD4D8BCF139
:1006B0004D0FD1D80FF2040E5EF82CF0C7080000E1
:1006C000C708000059060000C7080000C70800005E
:1006D000C7080000C7080000C7080000C7080000DE
:1006E000C7080000C7080000C7080000C7080000CE
:1006F000590600005906000059060000590600007E
:1007000059060000590600005906000013080000B1
:1007100059060000590600005906000013080000A1
:1007200013080000130800005906000059060000D5
:100730005906000059060000C708000059060000CD
:10074000590600005906000059060000590600002D
:10075000590600005906000059060000590600001D
:100760005906000059060000F50700005906000070
:1007700059060000590600005906000059060000FD
:100780005906000059060000590600001308000031
:1007900059060000F5070000F507000013080000E7
:1007A0001308000013080000C7080000F507000048
:1007B0004708000059060000C7080000590600005D
:1007C0004D080000F50700004D0800005906000024
:1007D000590600004D08000049060000F50700001A
:1007E0005906000059060000F507000059060000F0
:1007F0004906000013F801CCBCF16C0F29D113F8A5
:10080000021C6C294FF000093DD04FF0040841460E
:1008100021E0009800F1070B2BF00700F0E80289B7
:100820000734009024F0070455B105982044B042E5
:1008300004D96FF01B000DB0BDE8F08FC4E900894A
:1008400008344FF000094FF00808FFE64FF00009A8
:10085000DBE74FF00009013C4444C8F1000C04EA16
:100860000C0425B1A1EB050CA444B445E1D87328D0
:1008700052D10498DDF800B001385BF8047B049095
:10088000CDF800B0B8E64FF00808C0E702984FF086
:10089000000C00F0020EC3E60F2A3FF6CAAE45B3C5
:1008A0000DF1300EC0F387009644BCF1000F1AD052
:1008B00060F07F000EF8100C0AF1010A0132C5F158
:1008C00008000434059013F8010F00287FF4B4AE3B
:1008D000611BB1F5806FBFF4ACAE002D3ED1A6F127
:1008E00008046018A7E70EF8100C03980130039075
:1008F000E4E7BCF1000F01D1019808B10136DDE752
:100900003846CDE90612059305F078FC0236DDE99C
:100910000612059B0644D1E704290DD1009800F189
:10092000040C0DB1006820600434CDF800C0CAE7A3
:10093000D46B0000187B000008297FF47AAE009881
:10094000073020F0070000F1080CCDF800C01DB101
:10095000D0E900BCC4E900BC0834B4E7019B2860BE
:10096000890829709DF80C10A3B16870E97085F8AA
:1009700002A0BAF1000F06D008A84FF0000CC5F194
:10098000010E62450AD10DF1200808EB0209C5F1FC
:10099000010B39E0019B6970EB70E8E710F8011B6F
:1009A0000B0608D504EB0E08B04501F07F013FF6B9
:1009B00040AF04F8011B0CF1010CE2E7BAF1000FA3
:1009C00003D098F90020002A1CDB019B03BB98F898
:1009D000002055F8227045F82230384605F00EFC0C
:1009E000421C04EB0B011144B1423FF622AF98F8D0
:1009F000001004F8011B39462046009205F00EFC59
:100A0000009A144408F10108C145D7D1601B12E7D0
:100A10000022E6E76FF00D000DE707293FF6E2AD93
:100A200007E700BF014B1860704700BF04000020BB
:100A30002DE9F84FB0F8189019F0080804469346CD
:100A40000DD001290CBF49F0100949F02009A0F888
:100A500018908BF31188BFF36F8FBDE8F88F09F002
:100A60000709022907D1204605F000FA0028F0D036
:100A70000128238B4ED16769218B002F15DA256859
:100A800021F00701C4E9008841F00101218300261B
:100A9000218B01F0070ACA4502D0A368002B5AD166
:100AA0000DB9002E71D0002356E001F007035A1F44
:100AB000012A1ED821F00701062B256889B2C4E956
:100AC00000880AD13DB1638B2A46126801339BB27C
:100AD000002AFAD1638341F002012183204605F008
:100AE000C5F906460028D3D0238B43F02003238387
:100AF000CDE7042B0CD121F0070189B221832046D8
:100B000005F0B4F905460028C1D041F02001218349
:100B10000025BCE7032809D1226923F007031668E2
:100B200043F00603238300252F46B1E7042806D1AE
:100B3000226923F00703566843F00403F2E705280F
:100B400006D1226923F00703966843F00503E9E71D
:100B500000252E46E8E7012341F0080121838BF3AD
:100B60001188BFF36F8FFBB985BB16B11F492046B3
:100B7000B0474FF02003EFF3118B83F31288BFF3DC
:100B80006F8F238B23F008032383238BDA0625D56D
:100B900023F0100323830121B4F8189009F007090A
:100BA00000297FF45EAF54E7A1680029DCD0D1F8BA
:100BB0000090D1F804B03B4652462046D847B9F1E0
:100BC000000FD1D04946D9F80090F2E729463B46BC
:100BD000524620462D6805F065F9C5E713F020015F
:100BE0001EBF23F0200323830221D5E7D15E00003E
:100BF0002DE9F04F91B08B46029092461C4600259D
:100C00009AF8000008B928465FE325280AF1010791
:100C100007D0029B594698470028C0F256830135F9
:100C200012E2182200210AA805F003FB9AF801300D
:100C3000252B78D000221046964694461646394613
:100C400017F8013B2B2B00F09D8000F29480202BA5
:100C500000F09B80232B00F09B802EB19DF830602C
:100C600046F004068DF83060BCF1000F05D09DF809
:100C7000306046F008068DF83060BEF1000F05D0F8
:100C80009DF8306046F010068DF8306028B19DF870
:100C9000300040F020008DF830002AB19DF830205F
:100CA00042F040028DF830209DF8302002F04400E0
:100CB000442803D16FF386128DF830209DF8302040
:100CC0002A2B42F080028DF830207BD19DF8312014
:100CD00042F001024B1C8DF831201A782E2A9DF823
:100CE00031200CBF0121002161F341028DF8312038
:100CF00074D15A782A2A6AD0013300210A2618466C
:100D000010F8012BA2F13007092F40F28E809DF8D8
:100D100030200E91C2F3400040EAD17161F34102EC
:100D20008DF830205AE00AF102078DF833309DF833
:100D30003130D90740F1498154F8049BB9F1000FD3
:100D400007DA9DF8302042F004028DF83020C9F116
:100D500000095A0740F1428154F8048BB8F1000FA2
:100D600080F241819DF831306FF341038DF83130CD
:100D70004FF0FF3837E12D2B0CD0302B7FF46DAFC7
:100D800001225CE74FF0010C59E74FF0010E56E7E6
:100D9000012054E7012652E70CFB0202303A3346A9
:100DA0001E4616F8010BA0F13007092FF4D999421D
:100DB00093D09DF830100D92D20F62F341018DF85F
:100DC00030108AE70B4600224FF00A0CE8E79DF846
:100DD000312042F004028DF8312002331F4617F80B
:100DE000012B6C2A41D025D8682A2BD06A2A46D0FC
:100DF0004C2A4CD01F4617F8012B9DF831308DF846
:100E00003320782A00F2D980572A4DD8412A03D0BE
:100E1000453A022A00F2D1809DF83230042262F372
:100E200002038DF8323001239EE006FB01213039A8
:100E3000034664E7742A26D07A2ADBD19DF8313044
:100E400006220DE05A78682A9DF8312006D101214A
:100E500061F3C6028DF831209F1CCCE713460222B5
:100E600062F3C6038DF83130C5E75A786C2A9DF8D5
:100E7000312001D10421EBE713460322F0E79DF86E
:100E800031300522ECE79DF831300722E8E7BDF864
:100E9000303023F4F04323F0020343F4804343F063
:100EA0000203ADF83030A6E7A2F15801202900F284
:100EB000848001A050F821F07D0F0000BB0F0000DE
:100EC000BB0F0000BB0F0000BB0F0000BB0F0000FA
:100ED000BB0F0000BB0F0000BB0F0000190E00008D
:100EE000BB0F00007D0F00003D0F0000190E000039
:100EF000190E0000190E0000BB0F00003D0F00008E
:100F0000BB0F0000BB0F0000BB0F0000BB0F0000B9
:100F1000850F00007D0F0000A10F0000BB0F000037
:100F2000BB0F0000A10F0000BB0F00007D0F0000F1
:100F3000BB0F0000BB0F00007D0F00009DF83210BA
:100F4000012003F0780360F30201402B8DF832108A
:100F500002BF9DF8301041F001018DF83010632A76
:100F600031D1003B18BF01239DF83020C2F340016E
:100F70000B4363F341028DF83020D8E69DF8321020
:100F80000220DEE79DF8322003F07803A3F1400051
:100F9000032161F3020243428DF832204341E3E72B
:100FA0009DF83220032113F0780F61F302028DF8CF
:100FB000322014BF01230023D6E79DF8303043F0E0
:100FC00001038DF830300023CEE79DF93020002A50
:100FD000B4BFDDF834904FF0FF39BAE69B077FF5D8
:100FE000C7AEDDF838809DF831100023CDE90D3310
:100FF0009DF8323003F00703012BC1F3C30138D150
:10100000CB1E042B22D8DFE803F0030909212100BD
:1010100054F8043BDA17CDE90A3206E0073424F02D
:101020000704F4E80223CDE90A239DF8303013F0D9
:10103000030656D002983B465246594605F011F831
:101040000028C0F242810544BA46D9E554F8043B71
:1010500001294FEAE372CDE90A3205D19DF8283023
:101060000A9300230B93E0E70229DED1BDF9283073
:10107000D0E7022B23D1CB1E042B13D8DFE803F0DB
:10108000030A0A12120022680A920023201D0B9301
:101090000446CAE7E01D20F00700F0E80223CDE98E
:1010A0000A23F5E754F8043B0A9301294FF00003A3
:1010B0000B93D3D00229B8D1BDF82830D0E7042B48
:1010C00009D1E31D23F0070303F10804D3E900234A
:1010D000CDE90A23A9E7032B04BF54F8043B0A9384
:1010E000A3E79DF833007828AED8622822D82528B7
:1010F0003FF48FAD5828A7D10DF126030093DDE909
:101100000A0104AB0CAA04F066FF8246B8F1000F96
:101110000DF126000CDB9DF83020A0EB0A036FF3E5
:10112000861298458DF8302002D9A8EB03030D9361
:1011300080463DE06338152886D801A252F820F099
:10114000C1110000251200004910000049100000E4
:10115000491000004910000025120000491000004D
:101160004910000049100000491000007F120000E3
:101170004D120000511200004910000049100000FB
:1011800099110000491000004D12000049100000A4
:10119000491000004D120000B8F1000FDDF828A042
:1011A0000ADB4146504605F030F80AEB00080026FD
:1011B000BAF1000F0CD147E7504605F01FF8F4E7ED
:1011C0000A9B8DF8103000260DF1100A0DF1110860
:1011D000A8EB0A0306B101339DF83220D00668D58A
:1011E000023352060D9948BF0E9A0B4448BF9B1814
:1011F000B9F1000F76DD9DF83020A9EB0309C2F3A9
:101200008003039353076DD4500661D546B1029B0A
:10121000594630469847002857DB039B01351E4648
:10122000302356E01E070FD413F0100618BF2026F7
:10123000DDE90A23002BBFF65FAF524263EB4303A5
:10124000CDE90A232D2657E72B26F1E7002653E7A1
:101250000A9840B30DF1260300930CAA04AB0021B9
:1012600004F0B9FEBDF8323003F0EF0343F4F0436D
:1012700043F010038246ADF83230002646E70A9B61
:1012800007293FF6E1AEDFE801F00C04060C080880
:101290000C0C1D70D8E61D80D6E6EA17C3E9005293
:1012A000D2E61D60D0E6DFF8C8A006460AF10508C0
:1012B0008EE7110748BF013393E718460393594659
:1012C000029B98470028039B04DA11B0BDE8F08F19
:1012D00020234D444A46002AA5EB090109F1FF39B4
:1012E000EBDC0D4636B1029B594630469847002844
:1012F000EBDB01359DF83230D90601D41A0706D54B
:10130000029B5946302098470028DEDB01359DF8C6
:101310003230DB0607D59DF83300029B59469847CB
:101320000028D2DB01350D9E2E44731B002B16DCEA
:10133000029843465246594604F093FE0028C4DB07
:101340000544A944A9EB0503002B7FF77DAE029B62
:101350005946202098470028B7DB0135F2E7029B69
:101360005946302098470028AFDB0135DDE700BF44
:101370004573000008B54FF02002EFF3118382F3AC
:101380001288BFF36F8F01F08BFB034804F061FDFF
:1013900000F0A0FDFCE700BF4B730000F8B5074666
:1013A0000C4629B9084D094E761B3611B44200DBB4
:1013B000F8BD6B685B7923B12B6839461B682846FA
:1013C000984701341035F1E7A46E0000C46E0000A8
:1013D000014B53F820007047086F0000054A0023B6
:1013E0001370054A1360054B054A1A604FF400401C
:1013F00000F048BAF90B0020E802002008000020A5
:101400009160000070B5124BBFF35B8F53E8005F33
:101410006A1C43E800210029F8D1BFF35B8F2DB986
:101420000C4C0D4E361B3611B54200DB70BD237BD4
:1014300053B123689B690BB1204698476368042227
:101440001968204600F06AF801351034ECE700BF57
:10145000EC020020A46E0000C46E0000F8B50C4F32
:101460003D784DB90B4C0C4EFFF7CCFF361B3611B7
:10147000B54202DB01233B70F8BD63685B791BB1A9
:10148000236820465B69984701351034F0E700BFB8
:10149000F90B0020A46E0000C46E0000014B012275
:1014A0001A707047F80B00200C4BBFF35B8F53E8AA
:1014B000002F013243E800210029F8D1BFF35B8FF0
:1014C00058B1BFF35B8F064B53E8002F013A43E856
:1014D00000210029F8D1BFF35B8F7047E80200209C
:1014E000E4020020054B10B51B6804469847002114
:1014F000A0602046BDE81040FFF750BF0800002064
:10150000044A054B9B1AB1EBD30F34BF52F831009C
:1015100000207047546E0000A46E0000054A436826
:10152000801A001101300122187119605A71FFF7F9
:10153000B5BF00BFA46E00000EB403B503AB0146F7
:1015400053F8042B04480193FFF752FB02B05DF8F7
:1015500004EB03B0704700BFC36000002DE9F04FFB
:1015600087B01C4601F0010305929DF84090BDF93B
:1015700048A004930746884601F0020B01F00806D4
:1015800004F09DFD0246002844D03A493846FFF752
:10159000D3FF0546BBF1000F08D018F0440F3BD134
:1015A000354922463846FFF7C7FF0544049B53B12F
:1015B000324B334953F82920324B3846002A08BFB2
:1015C0001A46FFF7B9FF3EB12F4B304953F8292097
:1015D0003846FFF7B1FF0646BAF1000F16DB059B50
:1015E000002B45D0012303FA09F9294B294C19F0A6
:1015F000100F18BF1C4651469DF84400FFF780FFAE
:10160000214602463846FFF797FF0644701907B097
:10161000BDE8F08F0546BDE71F4B18680028C4D011
:101620001E4B4FF47A781B68B4FBF3F44FF46161FE
:10163000B4FBF0F300FB134408FB04F44FF03C0C44
:10164000B3FBF1F201FB1231B4FBF0FEB1FBFCF392
:1016500000FB1E440CFB131108FB04F40091B4FBC7
:10166000F0F00F49CDE901E03846FFF765FF9CE750
:10167000084CC0E7867300008A730000146F0000F6
:10168000F178000078730000286F0000AF7300004D
:10169000827300007D730000F0020020F40200203D
:1016A000937300002DE9F0471D46089B1746DA06A4
:1016B00004460E4605D499064CBF2A492A49FFF72D
:1016C0003BFFDFF8A8904FF00008A8452ADBDFF8C1
:1016D000A080DFF8A090DFF894A00025BD422FD2B3
:1016E000725D49462046FFF727FF0135102D20D1B6
:1016F0002149DFF87880DFF884902046FFF71CFF4F
:101700000025AF4228D9725DA2F120035F2B28BFCC
:101710002E2249462046FFF70FFF0135102D14D128
:10172000BDE8F08749462046FFF706FF08F10108AB
:10173000CBE76A07D2D151462046FFF7FDFECDE741
:1017400041462046FFF7F8FECFE76B07D9D1414667
:101750002046FFF7F1FED4E741462046FFF7ECFEB6
:10176000DBE700BFB6730000B5730000C073000074
:10177000BE730000B8730000C2730000C4730000A1
:1017800038B50C46E107054603D5084A0849FFF776
:10179000D3FEE20608D4A30628464CBF05490649F5
:1017A000BDE83840FFF7C8BE38BD00BF7873000001
:1017B000F1780000B6730000B57300002DE9FF4713
:1017C0000B8813F4E07F06460C469046C3F382195B
:1017D0004DD00A784B68C2F3C202002B44D0254991
:1017E0005B1A43F3CF03CDE90123CDF80090A36842
:1017F000002241463046FFF7B1FE8246254655F8A5
:10180000103BC3F3492353B11B4F1C481C492B46C3
:101810003246B9F1000F08BF384604F0CDFA6788A8
:10182000C7F3CB0797B12368C3F349231D44102F97
:101830003C4628BF10242946CDF800805346224656
:101840003046FFF72FFF3F1B2544F0D1B9F1000FC1
:1018500004D04A4641463046FFF792FF304604B076
:10186000BDE8F04704F055BC4FF0FF33BBE7CA4674
:10187000C4E700BF546E0000DF600000C3600000DA
:10188000F10B0000084A10B50123084C1360002139
:10189000A04204D801B11360054B186010BD400888
:1018A0005B000121F4E700BFF402002040420F007A
:1018B000F00200202DE9F04F85B002AF9946D7E93C
:1018C0000E3AD7E90C6B05468846144693B31021AF
:1018D000CDF800A05A460020C7F804A0FEF766FE27
:1018E000BB6B014604F0070205F00704E40044EA7C
:1018F0008214114A114D02EAC64217360E4405EA17
:10190000412526F007062C43ADEB060D144302AD2E
:1019100033B1CDF800A05A4605F11000FEF746FE9F
:101920004B4622464146284604F000FC0C37BD4693
:10193000BDE8F08F1946D5E70000F87F00FE0700EC
:10194000F8B5074F0D4604464618B44201D1284663
:10195000F8BD386814F8011B83685B689847F4E7A2
:1019600010030020014B0020196070470003002085
:10197000014B024A1A60704710030020A46C00005B
:10198000024B034801221A7004F0C3BBFA0B00207B
:101990005C6F0000064B10B518680C46FFF718FD89
:1019A00021460346BDE8104002480F22184700BFF9
:1019B000000300205C6F0000014B01221A70704789
:1019C000FD0B0020014B0020196070471C03002014
:1019D000024B034801221A7004F09BBBFE0B00204F
:1019E0008C6F0000064B10B518680C46FFF7F0FC32
:1019F00021460346BDE8104002480F22184700BFA9
:101A00001C0300208C6F0000F8B5194D07460E46E8
:101A1000042432463946002002F090FFC8B1012369
:101A20002B70144B1B782BB93046F8BD5CB92C7069
:101A30004FF0FF34002002F0CDFF0028F4D02B78C7
:101A4000002BF3D1F0E7013C41F2883005F0B8F803
:101A5000F0E72B7813B1013C04D12C702B78002BCC
:101A6000D7D1E1E741F2883005F0AAF8F6E700BFE8
:101A7000FD0B0020FE0B00202DE9F84305464FF03A
:101A80002003EFF3118683F31288BFF36F8F0E4BA1
:101A90001C689CB10D4FDFF838804FF00C09D4E979
:101AA0000132002D08BF13462BB198F8142009FB12
:101AB00002F2B85C98472468002CF0D186F31188B4
:101AC000BFF36F8FBDE8F8832C03002034030020A0
:101AD000E80900204209012300F01F0003FA00F08A
:101AE000074BBFF35B8FC04303EB820353E8002F28
:101AF000024043E800210029F8D1BFF35B8F704713
:101B00004003002038B51A4B1C7DBFF35B8F04F0F7
:101B10001F0301229A40174B6109D04303EB810355
:101B200053E8001F01EA000543E8005CBCF1000F28
:101B3000F6D1BFF35B8F114213D00F4B0F4D8BB11A
:101B40000C236343EA18E85C517804F08AFB002018
:101B5000FFF792FF0C235C432A1900232B51C2E9A3
:101B6000013338BD83F31188BFF36F8FEFE700BFF8
:101B7000E8090020440300206362000034030020D1
:101B80002DE9F843324B334A1C7DBFF35B8F630969
:101B90004FEA830952F823302F4EBFF35B8F04F0D6
:101BA0001F0843FA08F313F0010F07460AD1014654
:101BB000204600F069F828B107C80C2303FB046332
:101BC00083E807000C236343F218F55C2DB9204627
:101BD000FFF780FF2846BDE8F8837B1C0FD0D2F8C2
:101BE00008C01E481E4A4FF4004500210023ECFBAC
:101BF0000501FEF785FA0121381A04F0C3FF03F04E
:101C000095FA0120FFF738FFBFF35B8F012303FA3A
:101C100008F8144B994459E8003F43EA080349E89F
:101C20000032002AF7D1BFF35B8F0F4B33B10C2387
:101C30006343F218F05C517804F007FBFFF762FF92
:101C40002046FFF747FF03F041FC0120C3E700BF38
:101C5000E809002040030020340300203F420F0029
:101C600040420F00440300204B620000054BBFF3CD
:101C70005B8F53F82000BFF35B8F003818BF012043
:101C8000704700BF480300202DE9F04F85B00F4694
:101C900003A900F047F8DFF88080DFF880A0441E39
:101CA00024B24FF0000B631C04D10026304605B06F
:101CB000BDE8F08F039A04EB440302EB830612F8AD
:101CC0002300FFF7D3FF054610BB70684FF40049AF
:101CD000C4462946E0FB09C152465B466046FEF712
:101CE0000FFA0190B068C4462946E0FB09C15B4683
:101CF00052466046FEF704FA094B1B68591C01D096
:101D0000834205D97A1CD1D0019B1844B842CDD961
:101D1000013C24B2C7E700BF3F420F0040420F0022
:101D20000C00002008B9024B0B600020704700BF78
:101D30009C6F0000014803F091BE00BF9C6F000043
:101D400010B5044618B90D4B0D485B68984761689B
:101D500008290DD031F004030AD011F0020108D097
:101D60000848214604F0FFFD002323600023636040
:101D700010BD2068142204F05CFAF7E7E8000020A8
:101D8000147400006403002008B508B34368042BF2
:101D900010D101220368BFF35B8F53E8001F0029B5
:101DA00003D143E800200028F7D1BFF35B8F0BD1AC
:101DB000002008BD53B100684FF0FF324FF0FF33F1
:101DC00003F05AF80028F3D00348F2E70348F0E79D
:101DD0006FF4E040EDE700BFE98FFFFFEA8FFFFF00
:101DE00008B5D0B14368042B11D100220368BFF3BA
:101DF0005B8F53E8001F012903D143E8002000282E
:101E0000F7D1BFF35B8F074808BF104608BD3BB151
:101E1000006803F0A9F80020F8E76FF4E040F5E768
:101E20000148F3E7E98FFFFFEA8FFFFF10B5044693
:101E300018B9164B16485B6898476368042B23D083
:101E4000082B21D0CBB92368BBB912484FF0FF3221
:101E50004FF0FF33214602F037FF08B923681BB962
:101E60000A4B0D485B68984720681422002104F053
:101E7000E0F9636843F002036360206804F0B3FD97
:101E8000636843F00103636010BD00BFE8000020F9
:101E900014740000640300203A74000008B5064979
:101EA00006484023142204F043FDBDE808400449DD
:101EB000044803F033BE00BF800300206403002009
:101EC000B46F0000A46F0000014910220A6070473F
:101ED00010ED00E072B6404080F31188BFF36F8FC1
:101EE000BFF34F8F30BF62B6BFF36F8F704700BF35
:101EF00072B6494081F3118820BF80F3118862B621
:101F0000704700BF70B5064686B00D46002938D030
:101F10008B6805934B6804930B68039300241C4B58
:101F20001C490293012223462046CDE9004404F0D7
:101F30001CF96B6905932B690493EB680393164BAB
:101F400014490094CDE9014301222346204604F0C0
:101F50000CF9EB690393114B0E490094CDE9014351
:101F600001222346204604F000F9AB6903930C4B91
:101F700008490094CDE9014301222346204604F09C
:101F8000F4F82946304606B0BDE8704002F04CBD7A
:101F9000677400007C6E000096740000C574000039
:101FA000D474000043B2002B08DB012200F01F00B4
:101FB00002FA00F05B09024A42F82300704700BFB2
:101FC00000E100E0054B420900F01F0053F8222019
:101FD000012303FA00F01040704700BF00E100E069
:101FE00043B2002BA8BF03F1604301F10101B8BF68
:101FF000064B4FEA4111ACBF03F5614300F00F00FF
:10200000C9B2B4BF195483F80013704714ED00E04F
:1020100030BFFFF7FDBF00BF0B4A08B50B4B22F0E6
:102020007F029A60BFF34F8FBFF36F8FD3F8882082
:1020300022F47002C3F8882002F074FD03F068FBFC
:1020400000F08CFB02F0B2FD0000000000ED00E0AB
:10205000094A0A49936809689967094958674B68AA
:1020600043F080534B60002383F31188BFF36F8FDD
:102070009368986F704700BFE8090020487100001E
:1020800000ED00E012498A684FF030001044EFF391
:10209000098C80E8F01F202080F31288BFF36F8F37
:1020A0000C4F4FF00066CA698A603E60506F002393
:1020B000536780F3118804B5104600F0EBFBBDE8D0
:1020C000044002F1300090E8F01F8CF3098870475B
:1020D000E809002004ED00E01EF0040F0CBFEFF350
:1020E0000880EFF30980816911F8021C0229FFD0F2
:1020F00001B504F04AF801BD42F8203C009B42F8CB
:102100001C3C0A49019B42F8183C029B42F8143CD3
:1021100021F001014FF0807342F8043C42F8081CA2
:102120000023203A02654367704700BFC35F000089
:10213000094A0346906870B113F1160F406E05D03E
:10214000A0F120029A4205D8834203D2814228BFDF
:102150000020704700207047E809002008B5094BAF
:1021600098600D46144600F095FB204685F30988DB
:10217000002163B681F31188BFF36F8F0022002323
:1021800003F01FFFE809002001B572B60B4A906901
:1021900000281EBF0021916104F016FC62B6EFF327
:1021A0000580A0F110004FEAC0000549014409C9AB
:1021B0009847BDE80140034908470000E8090020AE
:1021C000D46C0000C9210000044B9968D86988428A
:1021D00003D003494FF080520A607047E80900209D
:1021E00004ED00E0F0B585B000243B4B0293CDE94F
:1021F0000044234607460E4601223849204603F094
:10220000D3FF374B9B6ADB0409D5364B3349009427
:10221000CDE9014301222346204603F0C5FF304BA0
:102220009B6A1D0509D5304B02930023CDE900338D
:102230002A490122184603F0B7FF294DAB6A9C05D5
:102240001ED50024294B0293012223462046CDE9C6
:102250000044224903F0A8FFAB6BAA6A10040FD513
:102260000393234B1D490094CDE9014301222346EA
:10227000204603F099FF1FB1AB6A23F40043AB6221
:10228000174B9B6A590509D51A4B02930023CDE9D8
:10229000003312490122184603F086FF104A936A60
:1022A00013F4807312D0144B02930023CDE9003352
:1022B0000A490122184603F077FF094A936A002071
:1022C00043F47F439362307005B0F0BD926A92048C
:1022D000F3D50A4A0292E9E7027500007C6E00001D
:1022E00000ED00E018750000297500003C75000045
:1022F000557500006A750000857500009D75000029
:102300001FB50024334B0293CDE9004423463249E4
:102310000122204603F048FF304B9B6A9B0109D500
:102320002F4B2D490094CDE901430122234620463D
:1023300003F03AFF294B9B6ADC0109D5294B029334
:102340000023CDE9003324490122184603F02CFF75
:10235000224B9B6A180309D5234B02930023CDE936
:1023600000331D490122184603F01EFF1B4B9B6AD8
:10237000590309D51D4B02930023CDE900331649BB
:102380000122184603F010FF144B9B6A9A0309D5EB
:10239000174B02930023CDE900330F490122184661
:1023A00003F002FF0D4B9B6ADB0309D5114B02932F
:1023B0000023CDE9003308490122184603F0F4FE5A
:1023C000064A936A6FEA03436FEA1343002093625D
:1023D00004B010BDCC7500007C6E000000ED00E084
:1023E000E4750000F7750000117600002F760000FC
:1023F000547600006E7600002DE9F04385B000248D
:10240000494B0293CDE9004423468046894616464F
:1024100046490122204603F0C7FE454B9B6ADD0674
:1024200009D5444B41490094CDE90143012223469B
:10243000204603F0B9FE3E4B9B6A180709D53E4B78
:1024400002930023CDE9003338490122184603F0F6
:10245000ABFE374DAB6A990736D46FF01507344B96
:102460009B6ADB0709D5354B02930023CDE9003386
:102470002E490122184603F097FE2D4B9B6A9D06BC
:1024800009D52F4B02930023CDE9003327490122C0
:10249000184603F089FE264B9A6AD40636D49A6A07
:1024A000900733D40020224B9A6A920642BF5A6AA0
:1024B00022F400525A629A6A42F0FF029A620023A2
:1024C000337005B0BDE8F08300241E4B0293012257
:1024D0002346CDE900441549204603F065FE6F6BA5
:1024E000AB6A1A06B9D5184B10490397CDE90143D9
:1024F000009423460122204603F056FEB9F1000F56
:10250000ADD0AB6A23F08003AB62A8E75B68190526
:10251000C8D541463846FFF70BFE0028C2D080F3ED
:1025200009880220BFE700BF997600007C6E00009A
:1025300000ED00E0AF760000297500001077000084
:102540009D750000E2760000FA7600002DE9F04368
:102550006D4BD3F8049091B08846C9F30806002764
:1025600087F31188BFF36F8F02F07F43B3F17F4F82
:102570000DD102F00C03082B0BD1644B644900977A
:10258000CDE9017301223B46384603F00DFEB84603
:1025900003E0120701D4804601270025F31E8DF8C1
:1025A0001F50092B00F29680DFE803F0058A8E8722
:1025B000949494949492574B534E55490095CDE979
:1025C000015300230122184603F0EEFDF46A8DF852
:1025D0001F5014F002040BD04F4B4D490095CDE92C
:1025E000015300230122184603F0DEFD00240CE015
:1025F000F36A002B24DA494B45490094CDE90143A5
:1026000001222346204603F0CFFD9DF81F30A3B9D9
:10261000202241460DEB020003F000FE0F9B002F2D
:102620006DD0C3F3080222B96FEA53236FEA432344
:102630000F9308A92046FFF765FC11B0BDE8F083B1
:10264000F36A5B00E1D5364B31490094CDE9014393
:1026500001222346204603F0A7FDD8F8183033F8AE
:10266000022C4DF602739A420AD096F82830BBB17C
:102670000DF11F0201214046FFF7BEFE0446C4E7EC
:10268000D8F800300393274B0094CDE9014320464E
:1026900023461F49012203F087FDD8F80040B4E724
:1026A00096F829302BB10DF11F010120FFF79AFD9B
:1026B000E4E7738D9BB2002BA7D0FFF721FEDDE787
:1026C0000DF11F020021D6E70DF11F010020EDE7FB
:1026D000154B82E7154A164B0D4919F4F87F18BFC0
:1026E0001346103E0024CDE90336124B0293CDE988
:1026F000004423460122204603F056FD85E723F4DB
:10270000FF7323F0010393E700ED00E05D77000025
:102710007C6E0000887700009F770000C077000083
:10272000CE770000ED7700000978000044770000C4
:102730002F7700002D780000024A536943F0100300
:102740005361704700ED00E0EFF30880EFF309817B
:1027500001B57246FFF7FAFE01BD00BF0448002331
:102760002021C2180133302B82F80013F9D17047B1
:1027700000E100E0002080F31488BFF36F8F04F0C5
:1027800023FA00200D490860BFF34F8F0C4880F3F7
:10279000088800F02BF8202080F3118809484FF4B6
:1027A0000261401880F30988EFF314800221084386
:1027B00080F31488BFF36F8FFFF72EFC94ED00E0D9
:1027C00020140020A01500200749D1F890200023F4
:1027D000C2F307221846934200D17047C1F89830DF
:1027E000C1F8A0000133F6E700ED00E008B572B6CD
:1027F000002383F31388FFF7E7FF144B4FF0FF32FA
:10280000C3F88020C3F88420C3F88820C3F88C2044
:10281000C3F89020C3F89420C3F89820C3F89C20F4
:10282000C3F88021C3F88421C3F88821C3F88C2120
:10283000C3F89021C3F89421C3F89821C3F89C21D0
:1028400062B6BFF34F8FBFF36F8F08BD00E100E0AA
:10285000084B9B6883420BD1EFF3058343B1064BD2
:102860005A6842F080525A605A6A22F400425A6210
:1028700002F0FCBEE809002000ED00E0024B034A34
:102880000348012100F084B800000420000000206B
:10289000C86F0000426E054B203A1A60044A20219E
:1028A000C3E901121846012100F07CB8800800201D
:1028B00000000B15F0B5274F85B000268E4215DAC3
:1028C0004468002C43D0D3B104F1FF3C14EA0C0F50
:1028D0000FD0214B0396029300230122CDE9003350
:1028E0001E49184603F070FC6FF01502104605B043
:1028F000F0BD1F2CEDD905681CEA050FE9D1202C8D
:102900000568D0F808C0D2B20FD9B4F1004F0ED884
:10291000013CB4FA84F4C4F11F046400072A4CEAB1
:10292000040406D90E4B0392D5E70824F6E73E24AB
:10293000F4E725F01F05154345F0100544F00104A8
:10294000C7F89820C7F89C500132C7F8A04001365C
:102950000C30B3E700ED00E044780000746E000036
:1029600067780000044B0522C3F89420BFF34F8F13
:10297000BFF36F8F704700BF00ED00E0BFF35F8FC4
:10298000024B0022C3F89420704700BF00ED00E026
:1029900010B5034C01232278FFF78CFF207010BD87
:1029A000FF0B002008B5094A00231278FFF782FFC9
:1029B00010F1160F03D0064B0022072800DD08BDDA
:1029C000C3F89800C3F8A0200130F6E7FF0B002001
:1029D00000ED00E014490868082810B521D8FFF779
:1029E000CDFF124C49680022904201F10C0105D143
:1029F0000F4B1870FFF7B6FF002010BDC4F89820E9
:102A000051F80C3C23F01F03134343F01003C4F8A8
:102A10009C3051F8043C43F00103C4F8A03001326B
:102A2000E2E74FF0FF30E8E7D46F000000ED00E090
:102A3000FF0B0020014B1860704700BF30000020E2
:102A400010B54FF02003EFF3118083F31288BFF32A
:102A50006F8F114A0123C2F840354FF080424FF08A
:102A60008051C2F87835D1F83041082C08D1D1F81E
:102A70003411052904D8094C615C09B1C2F8383613
:102A80004FF080430122C3F8802580F31188BFF303
:102A90006F8F002010BD00BF00E00140A078000053
:102AA0004FF08043C0B2C3F81C05BFF34F8F0549F8
:102AB000054BCA6802F4E0621343CB60BFF34F8F4B
:102AC00000BFFDE700ED00E00400FA0520B1034B74
:102AD000800143F001031847704700BFF06E00000B
:102AE000084B70B5C31A0D4607499B10044659435D
:102AF0000648402203F0D7FB2B4601462046BDE89E
:102B0000704018479C080020B76DDBB6446C00008D
:102B100073B50C4C0C4A4023041B00930D460B4626
:102B20000A49A41061430646094803F0E9FB011E67
:102B300005DA30462B4602B0BDE87040184702B0B7
:102B400070BD00BF9C0800206F630000B76DDBB64E
:102B5000446C0000002270B5012104461046FFF7C6
:102B60003FFA0F4801F012FA0E4B984215D103F0CC
:102B7000DEFD26690C49304603F0C7F900280BDB5F
:102B8000246909490125356404F11C0003F0BDF9ED
:102B9000002801DBE564002070BD6FF00400FBE756
:102BA000E12B00000000AD0B2470000001460C2357
:102BB00009484B4370B5C418D4E90E56002240337F
:102BC000A263184403F05CFB2DB132462B46034848
:102BD000BDE87040184770BD9C080020446C0000A0
:102BE00010B1012804D07047034B1B6C5B0701D167
:102BF000FFF7DCBF704700BF9C08002008B54FF00E
:102C00002003EFF3118183F31288BFF36F8F124A11
:102C1000136843F0020013F0010310600CD04FF072
:102C20008042D2F80C34D2F80C2413F0010303D004
:102C30000A4803F025FB012381F31188BFF36F8F4E
:102C400023B1BDE808400020FFF7B0BFBDE8084051
:102C5000012003F079BD00BFEC080020DC08002053
:102C60001FB500220123CDE90223094ACDF800D087
:102C70006B46CDF804D003F073FB002805DB4FF45E
:102C800080420023684602F0D1F905B05DF804FBEC
:102C90008D630000094BBFF35B8F53E8002F22F0D8
:102CA000020143E800100028F7D1BFF35B8FD30780
:102CB00002D4012003F085BD704700BFEC0800205E
:102CC0002DE9F0413949BFF35B8F0746012251E8F6
:102CD000003F41E800200028F9D1BFF35B8F33B9F2
:102CE000334934484B60CB608A6003F021F97B1E86
:102CF000012B2FD8012F07D14FF08043D3F81C347C
:102D000003F00303012B25D003F056FE044618B947
:102D1000294B1B78002B41D14FF02003EFF3118694
:102D200083F31288BFF36F8F0124DFF890804FF098
:102D30008045D5F81834D5F81824D2030CD503F003
:102D40000303012B01D0012F06D10CB386F31188A8
:102D5000BFF36F8FBDE8F081ACB13046FFF7C8F824
:102D6000D5F81835002BE4D1D5F80421002AE0D09D
:102D7000C5F80431D5F804310123C5F81835C8F871
:102D80008031AB60D5E70021212002F04FFCE7E75E
:102D90004FF080430222C3F80423DBE74FF0804367
:102DA0000222C3F808230646BFE700BFF008002050
:102DB0008C080020B80800201010002000E100E07E
:102DC00008B5084B0848186003F094FD38B107486F
:102DD000FFF730FE0548FDF725FE002008BD6FF027
:102DE0001200FBE7F4080020A46C0000F12D0000A5
:102DF0000A2838B5074D044604D1286883680D2198
:102E00005B68984728688368E1B25B68984720460A
:102E100038BD00BFF408002030B54068047B01F0E5
:102E20001F05B2F5001F45EA441585B04FF00004B8
:102E300004D1284601F02CFB002032E0B2F5800FCF
:102E4000CDE902442FD1B3F1007F0CBF0423052349
:102E50008DF80830836823FA01F1C9072FD4B2F145
:102E6000A07F2CD16A09012A05F01F031C4A03F533
:102E7000E07318BF4FF0A04252F82330DB071ED496
:102E80000DF107042146284601F066FA154B9842D9
:102E900014D1204601F0AEFA134B98420ED06FF0D9
:102EA0000B0005B030BDB3F1C06F05D0B3F1007FAA
:102EB0000CBF02230123CBE70323C9E703940023BC
:102EC000194602AA284601F021F9074B984204D17D
:102ED0000121284601F094FAAEE76FF00400E0E724
:102EE000000300500400AD0B0000AD0B10B501F065
:102EF00071FA044668B901F045FA084B98420AD1C4
:102F00000748214601F022FA224605210620FFF754
:102F100067F8002010BD6FF00400FBE70000AD0B68
:102F2000252F0000420970B5034602D0012A15D0B2
:102F300070BD0B4E326951680029F9D003F01F03B0
:102F400001250C689D408A682A4002D04B683046B3
:102F50009847002CECD021462468F4E7014EE9E7BD
:102F60005C6C0000746C00002DE9F04347683B7B0B
:102F700001F01F0585B00E4645EA43151446CAB94F
:102F800002A9284601F0E8F90446284601F0A8FA0B
:102F90004A4B984204D06FF0040005B0BDE8F083BE
:102FA000844205D19DF8080001F01EFAA042F2D13A
:102FB0000020F2E74FF000090DF103013046CDE9A2
:102FC000029901F0C9F94B46804602AA49462846B3
:102FD00001F09CF8394B984202D06FF01500DCE705
:102FE000804503D19DF8030001F0FEF9A30351D5FC
:102FF00040F20663234040F2062293423BD00CD8B5
:10300000062B15D004D89BB1022BE6D104230FE088
:10301000B3F5007FE1D101230AE040F2024293427E
:103020002BD0B3F5C06F2AD0B3F5806FD5D1022372
:103030008DF8043084F48033C3F30043E0068DF848
:10304000053054BFC4F34013032321038DF8063029
:1030500017D57B68012101FA06F6C3F8086500223E
:1030600001A9284601F000F9144B984214BF6FF0F3
:103070001500002091E70723DAE70523D8E70323AB
:10308000D6E7620341BF7B68012101FA06F6C3F867
:103090000C65E4E7E3064FF0000354BFC4F34014AB
:1030A00003241A4601A928468DF8044001F02EF8A1
:1030B000024B98423FF47CAF8FE700BF0000AD0B9E
:1030C00002480021C2E90001002070470024F400FA
:1030D000F0B546680469B76A87B0054605AA0021BD
:1030E000384603F051FA002853DB059B3A681979FA
:1030F000186803F066FA00284BDB0023E37330689E
:10310000264F4FF0010C03F5AC7250F82210002945
:1031100013DB01F01F0E4909012914BF4FF0A04233
:103120003A46E17BD2F8042522FA0EF212F00102AF
:1031300018BF0CFA03F20A43E2730133042BE2D105
:10314000E17B00230434012000FA03F20A4203F178
:10315000010314BF00224FF40042042B24F8022B79
:10316000F2D100231A4606F10801304601F0B8FA00
:103170000B4B98420FD02B6803930A4B029300230A
:103180001846CDE900330849012203F05FF96FF0DA
:103190000F0007B0F0BD0020FBE700BF00030050A8
:1031A0000000AD0BD47800008C6E00002DE9F04FCC
:1031B00089B00329BDF84890D0F8048005690E460F
:1031C00014461F4609F001090BD96A4B039102937B
:1031D0000023CDE9003368490122184603F036F98F
:1031E00030E05FFA81FA5046294603F023F902469F
:1031F00068BBD0B2824503D0294603F01BF930BB2F
:103200000132042AF5D14FF0010B98F80E00012885
:1032100004BF64087F088CB32B68A3422ED0002320
:10322000291D9E4216D031F81320C2F30E028AB136
:10323000524B02930023CDE900334F490122184637
:1032400003F004F96FF0150009B0BDE8F08F4FF0FE
:10325000000BDAE70133042BE3D122460023B2F559
:10326000004FD9B250D2A973D8F800102C60AA81AF
:10327000C1F80C35C1F80405C1F80825A97BB9F1DE
:10328000000F14BF00204FF4004027FA01F205EBB5
:10329000460302439A803A4B03933A4B0293082227
:1032A0000023CDE90641CDE9003233491846CDE986
:1032B0000467042203F0CAF82946504603F0BAF81E
:1032C00090BBD8F8003006F5AC7653F82630002BCA
:1032D00010DB5A0903F01F03002F44D1A4BB012ABD
:1032E0004FF00101284A18BF4FF0A04201FA03F342
:1032F000C2F80C350022D0B282450DD0294603F029
:1033000099F848B100209FE70133082B4FEA520299
:10331000A5D11E4B03945AE70132042AEBD10021B8
:10332000404603F0C9FAEDE7BBF1000FEAD0404692
:1033300001F0C0FA0028FAD00223012208F1180196
:10334000404601F079FADDE7B9F1000FC7D0012A54
:103350004FF001010C4A18BF4FF0A04201FA03F3ED
:10336000C2F80835C6E7BC42F1D1B9F1000FB6D1B9
:10337000EDE700BFF47800008C6E000009790000D2
:103380008B79000048790000000300501E7900008E
:103390007FB50BAB05930393054B02930023CDE957
:1033A000003301221846FEF785FA07B05DF804FBEA
:1033B0009F790000F0B54B79012B26D0032B21D14A
:1033C00010268B79032B1DD1CC790CB1012C19D18E
:1033D0000A7912B1022A15D10E220B684568B3F59D
:1033E000164F2D6865D02DD8B3F5165F64D016D86A
:1033F000B3F5966F62D00AD8B3F5967F61D0B3F576
:10340000167F61D06FF0850052E00026D9E7B3F552
:10341000166F5CD0B3F5965FF4D1374B3CE0B3F553
:10342000E14F57D007D8B3F5615F55D0B3F5964F4C
:10343000E8D1324B30E047F61227BB42E2D14FF4DD
:10344000000329E0B3F5613F48D013D8B3F5963FA8
:1034500047D009D84DF6C027BB4244D0B3F5614FE1
:10346000D0D14FF46B0317E0B3F5E13FCAD14FF071
:10347000EB7311E0B3F5612F38D008D8204FBB4271
:1034800037D0B3F5E12FBDD14FF0E86304E01D4F15
:10349000BB42B7D14FF080530069C5F82435031DF6
:1034A00003C934432243C5F86C2583E80300002098
:1034B000F0BD4FF41D03EFE7134BEDE74FF49E23F0
:1034C000EAE74FF4A033E7E74FF41C33E4E74FF4A7
:1034D0001D23E1E70D4BDFE70D4BDDE74FF06C738C
:1034E000DAE70C4BD8E74FF46503D5E74FF070638C
:1034F000D2E74FF08063CFE700B0130000A04E008A
:1035000090D0030040420F000050270000C075001B
:1035100000F03A0000903A012DE9F043D0F8048021
:103520000669D8F80050D8F80C9087B00021C5F88B
:1035300000150746306005AA484603F025F8041E2A
:1035400025DB059BD9F800201979186803F039F8B4
:10355000041E1CDB311D3846FFF72CFF0446B0B9B2
:10356000D8F80430990729D506F1120001F0B2F815
:10357000274B98420FD0274B0094CDE901432046BA
:10358000234625490122FFF703FF6FF0040420467C
:1035900007B0BDE8F083B07CC30003F1804303F5BE
:1035A000F83305F10C0205F59071C3F81015C3F856
:1035B00014251A4A01238340C2F804350823C5F8AC
:1035C000003598F808305BB9C5F81031D5F81031DE
:1035D00006F11103C5F834350123C5F838352B60E1
:1035E000D8F804309A075CBF4FF48072C5F8042302
:1035F000DB0644BF4FF48003C5F8043310360023C4
:10360000C5F84465C5F848350123AB60EB60BEE7FB
:103610000000AD0B9F7900009C6E000000F001409F
:10362000F8B5066905460F4603F0C6F910B92C4BEC
:103630001B7883B94FF02003EFF3118483F31288D2
:10364000BFF36F8F686802F033FF28BB84F31188E3
:10365000BFF36F8FEEE76424686802F029FF70B94A
:10366000012003F062F8013CF6D10021212001F095
:10367000DDFFF0E784F31188BFF36F8FF5E74FF0BC
:103680002003EFF3118483F31288BFF36F8F686810
:1036900002F00EFF0028EDD006F8107F69680B6875
:1036A0000122C3F84465C3F848250022C3F820214D
:1036B000D3F82001C3F85821D3F858214A68D2061C
:1036C00041BF0822C3F800254FF48002C3F8042349
:1036D00001229A6084F31188BFF36F8FF8BD00BF99
:1036E0001010002010B501238340114ABFF35B8FF7
:1036F000DC4352E8001F01EA040C42E800CEBEF1B0
:10370000000FF6D1BFF35B8F4FF4803202FA00F066
:1037100002F1804202F58052C2F80803BFF35F8FC6
:10372000BFF36F8F0B4214BF0120002010BD00BFFC
:10373000240900201949F8B5044622F07F4508689D
:10374000C1E90023A5F50013101AB3F5400F22D2EA
:10375000134B1B681A0A1B065E19124B42F1000735
:10376000C3E90067012602F0B1F8A30003F180432A
:1037700003F58833D3F84025AA420BD11EB94FF484
:103780000002C3F84025084B4FF4803000FA04F4DF
:10379000C3F84443F8BD0026E5E700BFC801002098
:1037A00028090020B00100200010014019B3BFF328
:1037B0005B8F0123104A834052E8001F194342E8FF
:1037C000001CBCF1000FF7D1BFF35B8F0B4A4FF425
:1037D00080338340C2F80433094BBFF35B8F1B680F
:1037E000BFF35B8F23FA00F0C30742BF054B4FF4D2
:1037F0000032C3F800217047240900200010014066
:103800002009002000E100E00D4B1868010A0006C5
:10381000BFF35F8F0B4BD3F80435181841F100014B
:10382000B3F5801F0AD2084BD3E90023904271EB15
:10383000030303D210F1807041F10001704700BF13
:103840002809002000100140B00100202DE9F04FB0
:1038500085B0164698460546FFF744FF0090FFF7EF
:10386000D3FFB04271EB080378D2464B301A68EBB5
:103870000101984271F1000380F08180424B03EB1B
:103880000513D3E902ABD84508BF564551D04FEADE
:10389000850909F1804905F1500709F58839BF000C
:1038A0004FF4803101FA05F3BFB226F07F4207F1F1
:1038B00080470193D9F84005344B07F58837144603
:1038C000D3F80415401A20F07F4021F07F4C0128E6
:1038D000C9F840C507D1CDE90221132003F070F9E2
:1038E000DDE90221294B01F1020CA4EB0C0020F0D0
:1038F0007F40B0F5000F88BF64460020386038680C
:103900000198C3F8440324F07F40C9F84005D3F878
:103910000405814206D0201A023820F07F40B0F51D
:10392000000F19D8A41A24F07F4414EB060A48F1BA
:10393000000B15490E982B0101EB0512C2E902ABF1
:10394000C8500F9B5360002428460099FFF72EFFB4
:10395000204605B0BDE8F08F2046B1E701230C4AB0
:10396000BFF35B8FAB4052E8001F194342E80010E1
:103970000028F8D1BFF35B8FB246C346D9E76FF09A
:103980001504E1E701000001B8010020001001402A
:103990002009002073B5194B194D00244FF0FF305A
:1039A0004FF0FF31C5F80845C3E902014FF48033F9
:1039B000C5F80433134B02264FF400320121C5F839
:1039C00004631120C3F880212246FEF709FB112071
:1039D000FEF7E8FA0C4A0123AB602B6013600B4B37
:1039E0000B4A0093019400232046FFF72FFF304637
:1039F000FFF766F9204602B070BD00BFB801002095
:103A00000010014000E100E02409002035370000EB
:103A1000FFFF7F002DE9F743354CD4F804339A07B4
:103A20000BD5D4F8043143B1324A0023C4F8043131
:103A3000D4F804311368013313604FF02003EFF31F
:103A4000118283F31288BFF36F8FD4F80433DB0342
:103A500012D5BFF35B8F284B53E8001F21F0010004
:103A600043E80006002EF7D1BFF35B8F002936D163
:103A7000D4F84031002B32D1002382F31188BFF3F8
:103A80006F8F4BB3FFF7C0FE4FF02003EFF3118CA5
:103A900083F31288BFF36F8F184BD3E90267B042EC
:103AA00071EB07024FF0000220D34FF0FF384FF0C8
:103AB000FF39D3E90015C3E902891A604FF4803356
:103AC000C4F848338CF31188BFF36F8F21B1009590
:103AD00032463B460020884703B0BDE8F083002310
:103AE000C4F84031D4F840310123C6E71146E9E774
:103AF000001001402809002020090020B801002002
:103B0000431C13B521D0012821DDB0F5000F20DAC8
:103B1000441EFFF779FE104BD3E90013401AB0F5AD
:103B2000000F28BF0024013002190C48824228BF30
:103B3000024652184FF0000009490190009143F1EC
:103B40000003FFF783FE02B010BD0448E0E7002445
:103B5000DFE7024CDDE700BFC8010020FFFF7F0068
:103B60003537000008B5FFF74FFE024B1B68C01A3F
:103B700008BD00BFC801002000F01F014009012856
:103B8000044B4FF0010218BF4FF0A0438A40C3F826
:103B90000C2570470003005000F48053002B30B513
:103BA00007BF14460D4601240025C0F3811200F022
:103BB0001F0110F0200F00F4706040EA8202064BF3
:103BC00042EA050208BF4FF0A04301F5E07142EA66
:103BD000440243F8212030BD0003005000F01F01D3
:103BE00040090128044B4FF0010218BF4FF0A043D9
:103BF0008A40C3F808257047000300507FB50BAB1F
:103C000005930393054B02930023CDE90033012272
:103C10001846FDF74FFE07B05DF804FBDC790000A5
:103C20001FB5FDF71BFC0024064B02932046CDE98F
:103C30000044054923460122FFF7E0FF2046FEF736
:103C40002FFF00BFDC7900005C6E00004FF0805356
:103C5000D3F83021082A06D1D3F83431052B02D805
:103C6000024AD05C70470020704700BFFF79000017
:103C7000024AD2F80034002BFBD0704700E001402C
:103C800010B502F048FD40B14FF080430022C3F868
:103C90000C21C3F81021C3F8382502F03CFD0028A0
:103CA00046D04FF08052604BD2F80414C3F8201570
:103CB000D2F80814C3F82415D2F80C14C3F8281548
:103CC000D2F81014C3F82C15D2F81414C3F8301518
:103CD000D2F81814C3F83415D2F81C14C3F84015E0
:103CE000D2F82014C3F84415D2F82414C3F84815A8
:103CF000D2F82814C3F84C15D2F82C14C3F8501578
:103D0000D2F83014C3F85415D2F83414C3F860153F
:103D1000D2F83814C3F86415D2F83C14C3F8681507
:103D2000D2F84014C3F86C15D2F84424C3F87025B7
:103D3000FFF78CFF18B13D4B3D4AC3F88C26FFF7C7
:103D400085FF18B13B4BFB22C3F81825FFF77EFF18
:103D500070B14FF080414FF08053D1F8E42ED3F88A
:103D6000583222F00F0203F00F031343C1F8E43E70
:103D7000FFF76CFF20B1304B4FF40072C3F84026C0
:103D800002F0C9FC48B14FF08043D3F80024D207B9
:103D900044BF6FF00102C3F800244FF08053D3F802
:103DA0003021082A0ED1D3F83431052B02D8234A0A
:103DB000D35C3BB14FF01023D3F808224FF080437F
:103DC000C3F858254FF01023D3F80022002A03DB54
:103DD000D3F80432002B22DA194901234FF01020C6
:103DE000C1F804351224FFF743FFC0F80042FFF783
:103DF0003FFFC0F80442FFF73BFF0023C1F8043542
:103E0000FFF736FFBFF34F8F0E490F4BCA6802F41E
:103E1000E0621343CB60BFF34F8F00BFFDE70B4B56
:103E20000B4A1A6010BD00BF00C0004000500040A7
:103E30004881030000F0004000900240F979000042
:103E400000E0014000ED00E00400FA055C00002005
:103E50000090D00370B501250268B2FA82F3C3F175
:103E60001F035E1CDCB214D0BFF35B8F05FA03F3B3
:103E700022EA030350E8006F964204D140E8003C78
:103E8000BCF1000FF6D1BFF35B8FE5D102480C7097
:103E900070BD0248FCE700BF0000AD0B0200AD0B97
:103EA0000368CB40DB0710B515D4012303FA01F1F9
:103EB0000368BFF35B8F41EA030250E8004F9C4266
:103EC00004D140E8002CBCF1000FF6D1BFF35B8FAA
:103ED000EED1024810BD0248FCE700BF0000AD0B68
:103EE0000400AD0BF7B5044618B1012829D003B082
:103EF000F0BD4FF080430222C3F80823C3F8040149
:103F0000D3F804210122DA6001239C428DF80730A6
:103F100014BF00250DF1070542F210774FF08046DF
:103F2000D4B1012CE3D125B1D6F80C3403F0010350
:103F30002B70D6F80C34DB0318D4134B00225A71C3
:103F4000D5E74FF080430022C3F80803C3F80021EF
:103F5000D3F800215860D7E725B1D6F8183403F01C
:103F600003032B60D6F81834DA03C0D52DB901202D
:103F700002F0DBFB013FD3D103E09DF80730012BBA
:103F8000F5D0012CD9D0B2E72C090020044B1A79C6
:103F900022B9012218609A8002487047024870478F
:103FA0002C0900200000AD0B0C00AD0B4FF080433E
:103FB00010B5D3F800216AB10022C3F80021D3F86C
:103FC00000210122C3F80823114B587910B95A7106
:103FD0001B6898474FF08043D3F8042172B1002248
:103FE000C3F80421D3F80421D3F81824D3F8181403
:103FF000920704D10122C3F818259A6010BD02224D
:10400000C3F80823024BBDE810401B680120184785
:104010002C090020036803F01F025B09012B0260DA
:10402000024818BF4FF0A040704700BF0003005087
:10403000034B083033F81000C0F34010704700BF46
:104040006000002070B500F108030C4C34F8133008
:10405000DA0505460E4607D5C3F3432304EBC30236
:1040600054F8333052689847A3682BB1E268314660
:104070002846BDE87040184770BD00BF60000020B2
:10408000124A083010B432F81030D9051BD5C3F3EA
:10409000432123F4F85322F8103002F110040020D9
:1040A00034F8023B13F4807F03D0C3F343239942D7
:1040B00009D001303028F3D1002342F831300448D0
:1040C00010BCFFF7EDBE10BC704700BF60000020C1
:1040D000D400002038B50246FFF7AAFF094C02F1D0
:1040E000080540B134F8153007495B0B03F5A2739E
:1040F000002041F823001046FFF7C2FF002324F8F8
:10410000153038BD60000020006000402DE9FF41FF
:10411000044617461D4621B34E4E00F1080836F8F6
:1041200018309B0706D5FFF783FF18B14A4804B043
:10413000BDE8F0810023CDE900338DF80E308DF815
:104140000F300DF10F020B4620460DF10E0102F06B
:104150003AFB36F8183023F0020343F0010326F847
:10416000183097B13B4B3E787A6804F1080033F879
:1041700010108F070CD5002AD8D133F8102022F068
:104180001C0242EA860223F81020CDBB3348CEE75A
:1041900021F02001C904C90C23F81010002AECD02A
:1041A000032EC3D817782EB92D4A07F5A27142F80D
:1041B0002160E2E7BA0002F1804202F5C04241EA22
:1041C0004731D2F810C52CF0030CC2F810C5D2F854
:1041D00010C52CF44F3C2CF4407CC2F810C5D2F82A
:1041E00010E54FEA042C0CF47C5C4EEA064E4CEAD7
:1041F0000E0C41F0200123F81010C2F810C5BCE7E6
:10420000D5E900672046FFF73BFF002EBED0114DD9
:104210002B689E4204D16B689F4201D100220AE0C4
:1042200010480DF10F01FFF715FE0C4B98427FF47B
:104230007EAF9DF80F2045F8326005EBC2030834CD
:104240005F6035F8143043EA422343F4807325F865
:1042500014309BE7600000200400AD0B0000AD0BA4
:1042600000600040D4000020F0B5044685B015463B
:1042700019B3334E00F1080736F81720930703D41B
:10428000FFF7D6FE002858D112F01C0F02D04B7851
:10429000012B52D001238DF80F300023CDE90013FC
:1042A0004A1C8B1C20460DF10F0102F08CFA36F8E7
:1042B000173043F0030326F8173015B9214805B02D
:1042C000F0BD1F4E04F1080736F81700830734D5F8
:1042D00095F800C06146890020F0200001F180417E
:1042E000C00401F5C041C00C26F817000023C1F836
:1042F00010356A78002AE1D0D1F81035AD7823F472
:10430000991323F4F853C1F81035D1F810E52302BE
:1043100003F47C53120402F4403243EA0E031343C5
:104320002A0502F4801240EA4C30134340F020008A
:1043300026F81700C1F81035C0E70348BFE700BFF3
:10434000600000200000AD0B0400AD0B014BC3E981
:10435000020170476000002008B50246FFF768FEC2
:1043600038B1054B0548083233F812305B0B0B703F
:1043700008BD0348FCE700BF600000200000AD0B53
:104380000400AD0B38B50F4C94F87850BDB96022DD
:10439000294604F1100001F04CFF0620FDF702FE53
:1043A000094B0A48C3F87C51D3F87C214FF00042F6
:1043B000C3F80423012384F87830636738BD0448C8
:1043C000FCE700BF60000020006000400000AD0B73
:1043D0000500AD0B034B93F87800003818BF01209F
:1043E000704700BF6000002001460148FFF758BD3C
:1043F000D000002001460148FFF72CBDD00000206E
:1044000037B50446FFF714FE04F108021E4B33F8DB
:104410001230E8B113F002051AD15B0B9A0002F1D9
:10442000804000F5C24002F1804202F5C0420560C2
:104430000068D2F8100540F00100C2F8100529B15B
:10444000012202FA03F3114AC2F8043303B030BD6B
:10445000C3F38203042B12D0052B12D001A80194C0
:10446000FFF7D8FD019BD0F81015D94001F00101EC
:104470000231204603B0BDE8304002F0EBB9032121
:10448000F7E70221F5E700BF600000200060004070
:1044900008B50246FFF7CCFDC0B102F108010E4B92
:1044A00033F81130990711D45B0B01229A409B001D
:1044B0000A4903F1804303F5C043C1F80823D3F848
:1044C000102522F00302C3F8102508BDBDE80840FE
:1044D0000021104602F0BEB96000002000600040DC
:1044E0000E4B00F1080213B533F81230DB07044617
:1044F00011D5FFF7CDFF2046FFF7ECFD01A8019491
:10450000FFF788FD019B03F5E073022240F82320AA
:10451000034802B010BD0348FBE700BF6000002065
:104520000000AD0B0400AD0B2DE9F04F644B654866
:104530006549002687B0012234461D6835B1D0F8A0
:10454000045315421EBF1C601D68164304338B4282
:104550004FEA4202F1D1DFF86C81D8F87C31002BB0
:1045600000F091804FF0A043D3F820250492C3F8C7
:104570002025D3F820280592C3F8202800270DF124
:1045800010097B0100934FF0010A49E0009B4F4A5C
:1045900094FAA4F4B4FA84F41C4404F10803E00887
:1045A00032F81330039404F007020AFA02FC19F8F7
:1045B000002022EA0C0209F8002003A8C3F38205B8
:1045C0009908FFF727FD039A02F5E0724B0750F8B0
:1045D0002220AB46C2F3014229D520465946D5B226
:1045E000FFF730FD03A80394FFF714FD039B03F5C9
:1045F000E07350F82330C3F301439D4207D10021FB
:10460000204602F027F92946204602F023F903A8A4
:104610000394FFF7FFFC039B0AFA03F3C0F820356D
:1046200059F82740002CB1D1CFB90127A9E7022AB8
:104630000CBF032102212046019202F00BF9032D49
:1046400004D0019A022A06D1012DE0D15946204614
:10465000FFF7F8FCDBE7032AD9D1022DF5E7C8F80C
:104660007C41D8F87C311A494FF0A043D3F820257B
:104670000492C3F82025D1F820350593C1F82035E0
:1046800013437FF47BAF012416B907B0BDE8F08F68
:1046900096FAA6F3B3FA83F304FA03F29B0003F14C
:1046A000804303F5C04326EA0206D3F81005D3F889
:1046B0001015C0F30520C1F30141FFF7C3FCE3E788
:1046C0000061004000600040206100406000002068
:1046D0000003005001460148FFF7BCBBDC0000208E
:1046E0002DE9F04F90F804804F4C0C2505FB08F5A0
:1046F000661987B0377A002F40F0938091F80CC08C
:1047000073604B7B625186F80AC00093BCF1000FC6
:1047100030D07BB300680123C0F800358D790B8958
:104720004E79C0F80C65C0F80455C0F808354B89BF
:10473000C0F810350023C0F80032C0F80033C0F8CC
:104740001C31D0F81C11C0F81031D0F81011C0F88D
:104750001431D0F81411C0F80431D0F80431002A13
:104760005AD10C2303FB084430480123237207B0BD
:10477000BDE8F08FCB1CDFF8B8E001934F1E02AE0E
:104780004FF0010917F801AFBAF1FF0F40D02AF03E
:1047900080033360BCF1000F1AD11AF0800F0AF0C9
:1047A0001F054FEA531329D1012B14BF4FF0A04A24
:1047B000F24609FA05FBCAF80CB5012B14BF4FF0FD
:1047C000A043734605F5E0754FF0030A43F825A0B2
:1047D000019BBB4206F10406D4D1009B002B99D16A
:1047E0000368029DC3F86055039DC3F86455049D9A
:1047F000C3F86855059DC3F86C558BE7012B14BFB2
:104800004FF0A04AF24609FA05FBCAF808B5D4E70A
:104810004FF0FF333360DBE740F30730FDF7C2FBB7
:104820009FE70448A3E700BF340900200000AD0B58
:10483000000300500500AD0BF0B40D46017900688F
:10484000D5F800C0AF88AE68C0F820C51C46184B2C
:10485000C0F8247501EB410103EB8101EB68C0F85E
:104860002865C0F82C35C0F840C5C0F84475C0F8BC
:104870004865C0F84C3502F0010303EB5202C0F862
:104880001425E20711D414F0020203D0002B14BF48
:1048900008220422002BC0F8002218BF0C23E2B229
:1048A00008BF0823F0BC01F0E4BF1022F2E700BF0C
:1048B000340900200379084A0C2101FB0322016816
:1048C000137AD1F80411DBB219B9981E18BF012070
:1048D00070470120107270473409002010B5114C48
:1048E000114A1249032323616361114BA261E36101
:1048F0004FF4806323620023A3626362E362226653
:104900000C4A6266E01D1022A2662367E3666367B5
:1049100001F06AFC0849204601F066FC2023A371DF
:1049200010BD00BF40090020057A00000E7A00008B
:10493000100C0020000C0020127A00002DE9F84F26
:10494000234F4FF0180B14460BFB00720646936A78
:10495000556AAB42884634D8D2F820A0AAEB0509A4
:1049600009F1FF32944211D84FF0180906FB099360
:104970003B44224658684146284401F04FFC09FB5D
:1049800006762C4474620120BDE8F88F13449C42E3
:104990001BD800FB0BBBBB444A46DBF804002C448D
:1049A000284401F03BFCB4EB0A0406D0DBF8040019
:1049B000224608EB090101F031FC182000FB0676C5
:1049C000E0E7013B5B1BA342CED20020DCE700BF47
:1049D00040090020034B182202FB00339A6A586AF0
:1049E000801A7047400900200E4B70B553F82040E4
:1049F000013053F82060A64200D870BDD4E90035DC
:104A00002846984765B1EB6830B10028B8BF4042EE
:104A1000FF28A8BFFF2018705A7842F001025A7090
:104A20000834E8E7347100002DE9F041064686B00D
:104A30000F464FF02003EFF3118883F31288BFF382
:104A40006F8F00F00DFE042E96BF224B224B53F8C1
:104A50002630224903960024CDE90434204B0094EB
:104A6000CDE90143054623460122204601F04CFFD3
:104A70006FB1FB69C3F308034BB11A4B174900949C
:104A8000CDE9014301222346204601F03DFF2DB12F
:104A9000284601F097FF08B1037803B91248134B79
:104AA00002930023CDE90350CDE9003318460122DB
:104AB0000A4901F029FF39463046FFF7B1F888F37B
:104AC0001188BFF36F8F284606B0BDE8F041FDF7AF
:104AD000BFBE00BF4C710000197A00007C6E000060
:104AE0002F7A0000577A0000277A0000787A0000B9
:104AF00008B50A4B012202201A70FFF775FF00F07B
:104B000059FF0320FFF770FF00F03EF9FBF7D8FCD8
:104B1000034A137B23F00103137308BD1010002018
:104B20005002002008B50348034A0021121A01F080
:104B3000FBFE08BDB00100201410002070B500235A
:104B400086B00122CDE90423134E144D01930F22A8
:104B5000CDE902321249182303FB005506EBC016BB
:104B600004464FF4B07000FB04110E4B00954FF457
:104B7000A072304600F0D6F8737B0B482C7523F0FA
:104B8000040373734FF4026303FB04041C44EE60DC
:104B90006C6006B070BD00BFD0010020E8090020A5
:104BA00040140020414E0000A015002080B52E4B7F
:104BB000A6B083F308882D4D2D4E6B692D4F43F41D
:104BC000007300246B61E02385F82230EC772C76AB
:104BD0006C76AC7685F820406B6A43F4E0236B6218
:104BE00085F82340FDF7A8FDFDF76EF94FF0FF3380
:104BF000AB62EB62FDF7EEFEFDF740FEFCF7EEFB6D
:104C000040F20113ADF8243006ABB360CDE91F4488
:104C1000229401F06EFE2046FFF7E6FE0120164DBD
:104C2000FFF7E2FE00F06EFC144BF56105930123E3
:104C300013490094CDE903434FF480623B46CDE92C
:104C40000144284600F06EF86A7B064622F0040212
:104C500028466A7301F0FCFE2046FFF76FFF3A46D4
:104C600031462846FDF77AFAC01D002000ED00E02D
:104C7000E8090020F14A000050020020DA7A000022
:104C80002010002070B50E4B0E4CA34201D3002023
:104C900070BDD3E9030141EA000212F003020BD117
:104CA0009D685A61AA4201D11C33EEE75E690E602D
:104CB000013259610144F5E76FF01500E8E700BFE4
:104CC000600100206001002037B50C464FF0200540
:104CD000EFF3118185F31288BFF36F8F45695DB1E2
:104CE00025602B684361836901338361002081F370
:104CF0001188BFF36F8F11E052EA030C03D12560D6
:104D00006FF00B00F3E7CDE900230246083000F016
:104D10004FFB18B9024B9B685B69236003B030BD41
:104D2000E80900202DE9FF410E9E06730426467314
:104D30000D9E867300F158050F46D61DC0E9165525
:104D40000C9A002526F007062037C0E90655C0E971
:104D500019768560C573C56606F1200802920B9A24
:104D6000019288440A9A009242460446FDF7C4F92B
:104D7000044B65659B6803B11B6F2367404604B015
:104D8000BDE8F081E80900202DE9F043294C2A4DC7
:104D900087B02646AE4204F130040FD300F0C6F9C6
:104DA000244CDFF898904FF4004640F2E737AC42CD
:104DB00020D307B0BDE8F04300F088BB54F8043CB2
:104DC000059354F8103C049354F8143C039354F89E
:104DD000183C029354F81C3C019354F8203C009377
:104DE00054E90C0154E90A23FFF79CFF54F8303CC6
:104DF0005E65CEE7636A5A1C0DD023EAE373002197
:104E00003846C3FB060151EAC333D4F8008004D10D
:104E1000404600F071FA3034C9E74FF47A7200234B
:104E2000FBF76EF902460B4608F11800494600F000
:104E3000D3FCF0E76001002060010020716A0000EF
:104E400008B50B4C0B4D4FF02002EFF3118382F3AA
:104E50001288BFF36F8F01F085FE2B78A06113B924
:104E6000FDF738F8EFE7FCF78BFE0028EBD1F7E70A
:104E7000E8090020101000202DE9F34104461746F0
:104E80001E464FF02003EFF3118883F31288BFF31F
:104E90006F8FC368324A6BB180689168884219D0BD
:104EA00057EA060318D188F31188BFF36F8F6FF0AC
:104EB0000F000CE0916891F90E1021610133E3605D
:104EC0009368A36088F31188BFF36F8F002002B04E
:104ED000BDE8F0812169F0E791F90E1090F90E30EC
:104EE0009942A8BF19466FF07E029142B8BF1146A1
:104EF0008B422EDD01F06FFD0546CDE900761948A5
:104F00002246414600F054FA0028E0D04FF020033A
:104F1000EFF3118683F31288BFF36F8F2368216943
:104F2000A3420AD04BB193F90E309942A8BF19465B
:104F30006FF07E039942B8BF1946A06801F04BFD9F
:104F400000B945B10748314600F0DEF86FF00A00BD
:104F5000BDE70025D1E786F31188BFF36F8FF5E732
:104F6000E80900201110002038B583680446002BA2
:104F700032D01C4A9268934231D1DA7B013ADA731B
:104F8000C368012B05D9013BC36000F09FFA0020E4
:104F900038BD4FF02003EFF3118583F31288BFF380
:104FA0006F8F0169806801F016FD204601F0ACFDAD
:104FB000A06058B190F90E2022610022826701F0B2
:104FC00047FD0948294600F09FF8DEE7E06085F3D9
:104FD0001188BFF36F8FD8E76FF01500D8E74FF057
:104FE000FF30D5E7E80900201110002038B504464D
:104FF0004FF02003EFF3118583F31288BFF36F8F17
:1050000001F082FD48B10022826701F021FD2946AE
:105010000548BDE8384000F077B8D4E902329A423A
:1050200018BF0133A360F2E71110002013B54FF051
:105030002004EFF3118184F31288BFF36F8F84682B
:1050400044B1013C846081F31188BFF36F8F00206D
:1050500002B010BD52EA030406D181F31188BFF3F8
:105060006F8F6FF00F00F3E7CDE90023024602488F
:1050700000F09EF9ECE700BF1110002038B5074D95
:105080002C6854B1FEF76EFD054B04441C61286882
:105090000021BDE8384001F075BD38BD180A002078
:1050A000E8090020F8B504460D464FF02003EFF361
:1050B000118783F31288BFF36F8F104E00214FF4D6
:1050C000004C40F2E730316100234FF47A72E4FB88
:1050D0000C01FBF715F8002C094B0ADC1860094B92
:1050E000B0681D60FFF7CAFF87F31188BFF36F8FA9
:1050F000F8BD0228B8BF0220F0E700BFE809002091
:10510000180A0020140A002049B9EFF3058030B9CD
:10511000054BDA699B689A4201D0FCF799BF81F38D
:105120001188BFF36F8F7047E80900204FF020030C
:10513000EFF3118183F31288BFF36F8F044B9A68EA
:10514000D37B013BD37381F31188BFF36F8F70471B
:10515000E809002038B502460C480D4D01F072FCFC
:10516000044600B9EC68AB684AB95A7BD20606D14E
:10517000A26922B9DA897F2A01D9EB6138BD9C4244
:1051800002D02046FFF77AFFEC61F7E7080A00201B
:10519000E809002070B590F90D20437B002A0146F4
:1051A00004DA03F07F03437301F024FC4B7B154AC0
:1051B00063F07F034B73D2E9083402F12005AB4260
:1051C0001BD0D3B191F90E6093F90E0086420FD037
:1051D000801B00280CDD5868C1E90030016059606F
:1051E0009068431A5842BDE870405841FFF7B2BF7B
:1051F000A34202D01B68002BE6D1C1E90054216014
:105200005162EDE7E809002038B54FF02003EFF3D5
:10521000118583F31288BFF36F8F174B174A9C6871
:1052200011688C4207D12046FFF728FF85F31188CB
:10523000BFF36F8F38BD00211160114A1268C2B1EF
:10524000E2897F2A15D8627BD20612D10D4A94F9E1
:105250000E10126891420CDB0B4A944209D01A6975
:10526000824203DC2046FFF795FFDCE7121A1A6141
:10527000DCE70022FBE700BFE8090020100A00205D
:10528000180A0020140A0020D001002070B490F900
:105290000D20437B002A2ADBDA0628D1826932BB43
:1052A000144A63F07F034373D2E9083402F1200506
:1052B000AB4217D0B3B190F90E6093F90E108E4245
:1052C0000BD0891B002908DD5A68C0E90032106044
:1052D000586070BC0020FFF73DBFA34202D01B689E
:1052E000002BEAD1C0E9005420605062F1E770BCA5
:1052F000704700BFE809002010B54FF02002EFF31F
:10530000118482F31288BFF36F8F427B510704D45C
:1053100084F31188BFF36F8F10BD22F00402427333
:10532000FFF7B4FF21460248BDE81040FFF7ECBE8E
:105330001110002008B590F90D20437B002A01468A
:1053400004DA03F07F03437301F054FB044B9868C5
:10535000431A58425841BDE80840FFF7FBBE00BF62
:10536000E80900202DE9F041064615461C464FF09D
:105370002003EFF3118783F31288BFF36F8F01F0DF
:1053800099FB87F31188BFF36F8FB4F1FF3F08BF1C
:10539000B5F1FF3F08D02A46234606F1180003491D
:1053A000BDE8F04100F018BABDE8F081716A000074
:1053B00010B5074B9868074B0C4618601146DDE99D
:1053C0000223FFF7CFFF2046BDE81040FCF740BEA8
:1053D000E8090020100A0020F8B504464FF0200329
:1053E000EFF3118683F31288BFF36F8F437BDA06E6
:1053F00049B233D182698ABB03F07F03437301F062
:10540000F9FA437B174A817363F07F0343731046B5
:1054100050F8203F83421BD0D3B1576A93F90E5006
:10542000A94210D06D1A002D0DDD5A68C4E9003272
:1054300014605C600120FFF78DFE012086F3118867
:10544000BFF36F8FF8BDBB4202D01B68002BE5D1C4
:10545000536AC4E900031C605462EBE7A1730020A7
:10546000ECE700BFE809002070B50446183001F0F1
:1054700063FB4FF02003EFF3118683F31288BFF331
:105480006F8F94F90D20637B002A05DA03F07F0308
:105490006373204601F0AEFA0B4D637BA86843F0BE
:1054A00010036373031B58425841FFF753FE86F302
:1054B0001188BFF36F8FAB68A34203D1BDE8704082
:1054C00001F0B6BA70BD00BFE809002010B54FF07A
:1054D0002003EFF3118483F31288BFF36F8F084B1F
:1054E0009A68D37B0133D3730020FFF733FE84F334
:1054F0001188BFF36F8FBDE8104001F099BA00BF6B
:10550000E8090020044B002103F12002C3E908222E
:105510000846FFF7C7BD00BFE8090020F8B54FF007
:105520002003EFF3118583F31288BFF36F8F1A49BD
:105530008868437B03F07F03437301F05BFA8B6859
:105540005A7B084662F07F025A7350F8202F82423D
:105550001CD0DAB14F6A93F90E6092F90E40A64260
:105560000FD0A41B002C0CDD5168C3E900210B6097
:1055700053600120FFF7EEFD2846BDE8F840FCF738
:1055800067BDBA4202D01268002AE6D14A6AC3E96E
:10559000000213604B62ECE7E809002050EA0103C7
:1055A0002DE9F04105460E4603D1FFF7B7FF002075
:1055B00033E06FF00104241A4FF0FF3363EB010373
:1055C000012C73F1000302DA01F0F6FA44194FF0EE
:1055D0002003EFF3118883F31288BFF36F8F104F0E
:1055E000104BB8681860FFF7A5FEB8680E492A4648
:1055F0003346183000F0F0F8BA68537B43F01003DC
:1056000053734046FCF724FD01F0D6FA201A63EBF1
:105610000303012873F10003C9DBBDE8F08100BF7B
:10562000E8090020100A0020716A0000B1F1FF3F74
:1056300008BFB0F1FF3F08B506D1084B9868FFF7E7
:1056400013FF4FF0FF3008BDFFF7A8FF4FF47A7348
:1056500080FB0303C00B40EA4340F4E7E809002065
:10566000014B9868704700BFE80900202DE9F04120
:1056700004464FF02003EFF3118683F31288BFF343
:105680006F8F437B1A0705D586F31188BFF36F8FA1
:10569000BDE8F08123F0200242F00801D20920D1B8
:1056A0004173A36813B1204601F0ACF904F118006E
:1056B00001F042FA04F158074FF00008A56DBD4211
:1056C00000D0B5B90120FFF745FD104B9B68A34200
:1056D000DAD1EFF30583002BD6D13046FCF7B8FCC6
:1056E000D2E703F05F0343F00803437301F082F94C
:1056F000D7E7284601F086F905F1180001F01CFAF9
:10570000C5F878802846FFF7C1FDD7E7E8090020F3
:1057100008B50648064A0749121A01F007F9BDE81C
:105720000840054A0549064801F000B9000000207C
:10573000B0010020187B000000000000187B000072
:1057400000000020034B1B680BB9FEF70BBA0020CA
:10575000704700BF1C0A0020104B10B51C689C420B
:1057600008BF0024FFF7EEFFA4B1D4E904321B1AEE
:1057700062EBE070B3F1004F70F100020ADA00282A
:10578000ACBF18460020064B1B6913B19842A8BF56
:10579000184610BD6FF00040F5E700BFE0000020A4
:1057A000E809002030B5036868B10A4A526890429F
:1057B00009D043B1D3E90421D0E90445121941EBE2
:1057C0000501C3E90421426813605A600023C0E95F
:1057D000003330BDE0000020B3F1FF3F08BFB2F15D
:1057E000FF3FF8B504461F46154667D081604FF06D
:1057F0002003EFF3118683F31288BFF36F8F6FF0EE
:105800000102531B4FF0FF3C6CEB0703002B1BDB2B
:105810002B4BD3E90013521A6CEB0303551B63EBBC
:105820000703012D73F10002BCBF01250023C0E96D
:1058300004532448D0E9003C834218D1C4E9000C49
:10584000CCF80040446026E0FFF77CFF013547F1CB
:1058500000072D1847EBE077C4E90457E9E7521A2F
:1058600065EB07059C45C4E90425E7D01B68002BC0
:10587000E4D0D3E90417D4E904258A4275EB070E76
:10588000EDDA8A1A67EB0505C3E904255A68C4E90D
:10589000003214605C60036883420BD09C4209D1E3
:1058A000FFF75AFF18B1084B1B69834202D0002151
:1058B000FEF726F986F31188BFF36F8FF8BD00BF9E
:1058C000D0020020E0000020E80900202DE9F84384
:1058D0000546FFF799FC4FF02003EFF3118483F3A3
:1058E0001288BFF36F8F244EDFF890803560244D0F
:1058F000D8F8000032684045D5E9001E4FEAE2774B
:105900000BD050B1D0E9043C9A4277EB0C0916DA7F
:105910009B1A6CEB070CC0E9043C52184EEB0707CE
:10592000C5E9002700253560FFF716FF2946FEF779
:10593000E7F884F31188BFF36F8FBDE8F883591837
:105940004EEBE377D31A336000220023C0E904232F
:10595000C5E90017FFF726FF84F31188BFF36F8FA7
:10596000836898474FF02003EFF3118483F3128884
:10597000BFF36F8FBCE700BF1C0A0020E0000020CF
:10598000D002002010B54FF02003EFF3118483F311
:105990001288BFF36F8FFEF7E5F8054AD2E90031B0
:1059A000C01841F1000184F31188BFF36F8F10BD5F
:1059B000D0020020024A0349034800F04ABA00BF5F
:1059C000B7730000E27A0000EF7A000010B50A4CCD
:1059D00023681BB101232360002010BD00F0CEF826
:1059E0000028F7D00138062803D8044B53F82000CC
:1059F00010BD034810BD00BF200A002060710000E8
:105A0000FE8FFFFFBFF34F8F0549064BCA6802F4B4
:105A1000E0621343CB60BFF34F8F00BFFDE700BFD1
:105A200000ED00E00400FA0510B4094B09490A4CE6
:105A30004FF0FE32C3F800244968C3F80424C3F8C9
:105A40000824C3F80C240023C4F8003510BC084710
:105A500000B00250E800002000A00250D0E900127F
:105A6000014BC3E900127047E800002010B504465E
:105A700030B16368DB0602D500232360636010BD8C
:105A8000024B03485B689847F3E700BFE80000203B
:105A90007C710000B0B1436893B1DB060ED50123E1
:105AA00050E8002F194640E8001C9CF0000FF7D189
:105AB000012AF5D0BFF35F8F00207047034870477D
:105AC000034870476FF4E040704700BFE98FFFFF65
:105AD000EA8FFFFF68B143683BB1DB0607D5BFF330
