:10000000E0210020F51E00007D6C0000C91E0000EC
:10001000C91E0000C91E0000C91E0000000000002B
:10002000000000000000000000000000251B000090
:10003000C91E000000000000D11A0000C91E000007
:10004000D51B0000D51B0000D51B0000D51B0000F0
:10005000D51B0000D51B0000D51B0000D51B0000E0
:10006000D51B0000D51B0000D51B0000D51B0000D0
:10007000D51B0000D51B0000D51B0000D51B0000C0
:10008000D51B0000D51B0000D51B0000D51B0000B0
:10009000D51B0000D51B0000D51B0000D51B0000A0
:1000A000D51B0000D51B0000D51B0000D51B000090
:1000B000D51B0000D51B0000D51B0000D51B000080
:1000C000D51B0000D51B0000D51B0000D51B000070
:1000D000D51B0000D51B0000D51B0000D51B000060
:1000E000D51B0000D51B0000D51B0000D51B000050
:1000F000D51B0000D51B0000D51B0000D51B000040
:1001000053B94AB9002908BF00281CBF4FF0FF317E
:100110004FF0FF3000F00CB8ADF1080C6DE904CEE3
:1001200000F008F8DDF804E0DDE9022304B07047D0
:10013000704700BF2DE9F04F07468C460846099EE0
:1001400015463C461946002B40F0C6808242B2FA62
:1001500082F746D94FB1C7F1200E24FA0EFE00FAFD
:1001600007F3BD404EEA030CBC404FEA15481FFAA6
:1001700085FEBCFBF8F9220C08FB19C309FB0EFA3B
:1001800042EA03439A4528D9EB1809F1FF3004D21B
:100190009A4502D9A9F102002B44A3EB0A03A4B2A9
:1001A000B3FBF8F208FB123302FB0EFE44EA0344F1
:1001B000A64514D92C1902F1FF3303D2A64501D963
:1001C000931E2C44A4EB0E0443EA00401EB1FC40F5
:1001D000002334607360BDE8F08F4846DDE71346C6
:1001E000F0E702B9FFDE87BB831A01214FEA154E03
:1001F000AAB2B3FBFEFC200C0EFB1C330CFB02F876
:1002000040EA0343984563D9EB180CF1FF3004D260
:10021000984502D9ACF102002B44A3EB0803A4B229
:10022000B3FBFEFC0EFB1C330CFB02F244EA03445E
:10023000A2424FD92C190CF1FF3304D2A24202D9A9
:10024000ACF102032C44A41ABEE7C7F1200C20FA3B
:100250000CF800FA07F324FA0CFCBD404CEA030248
:100260004FEA154EABB2B8FBFEFC110C0EFB1C8026
:100270000CFB03F941EA0040814504FA07F423D955
:1002800028180CF1FF3104D2814502D9ACF10201EA
:100290002844A0EB090092B2B0FBFEFC0EFB1C0050
:1002A0000CFB03F842EA004398450FD9EB180CF118
:1002B000FF3204D2984502D9ACF102022B44A3EBE1
:1002C000080342EA014191E76146E2E76246F6E748
:1002D0006046A2E76346B6E7834205D90EB1C6E998
:1002E00000700021084676E7B3FA83F181B98342B2
:1002F00001D3BA420AD8BC1A60EB030301209C4622
:10030000002E68D0C6E9004C002164E70846F7E7F4
:10031000C1F1200C8B4022FA0CF41C4302FA01F5C7
:1003200000FA01F327FA0CF220FA0CFB4FEA144909
:100330001343BBFBF9F81FFA84FE09FB18BB1A0C28
:1003400008FB0EFA42EA0B42924507FA01F73ED942
:10035000A21808F1FF3004D2924502D9A8F1020098
:100360002244A2EB0A029BB2B2FBF9F809FB182265
:1003700008FB0EFE43EA024296452AD9A21808F16C
:10038000FF3304D2964502D9A8F10203224443EA7E
:100390000040A0FB0593A2EB0E029A42CE4698467F
:1003A00002D306D14F4504D2B9EB050E63EB040826
:1003B000013886B1B7EB0E0362EB080707FA0CFCB5
:1003C000CB404CEA0303CF40C6E900379CE74046E8
:1003D000C7E74346DBE73146FDE600002DE9F0477D
:1003E0001F48DFF88090DFF88080DFF880A006F0FB
:1003F0002FFB06F00CFB10F57A7441F10006002784
:1004000006F005FB013702460B464846394606F022
:100410001FFBD8F8001050460131C8F8001006F054
:1004200017FB134804F040FC06F0F1FAA04271EB10
:100430000603E5DA251A4FF4004C25EAE57540F28B
:10044000E73000214FF47A720023C5FB0C01FFF75F
:1004500057FE05F0BBFC14F57A7446F10006CFE7B1
:10046000DC770000F6770000000000202D78000007
:1004700070040020F8B51348134F144E144D06F0C5
:10048000E7FA00244FF0FF324FF0FF33384604F014
:1004900049FC06F0BCFA013402460B4630462146C0
:1004A00006F0D6FA29680B4806F0D2FA0A4B0B4838
:1004B00019680131196006F0CBFA094804F0F4FB21
:1004C000E0E700BF4C780000700400208678000050
:1004D00000000020BB78000004000020D578000058
:1004E00080040020F8B50E480E4F0F4E0F4D06F059
:1004F000AFFA00244FF0FF324FF0FF33384604F0DC
:1005000011FC06F084FA013402460B4630462146BF
:1005100006F09EFA2968064806F09AFAEAE700BF54
:10052000F4780000800400202E79000004000020F0
:10053000647900002DE9F041234888B001F0A0FE65
:1005400001220021214806F0CCFE01220021204892
:1005500006F0C7FE0026002700240125CDE9066726
:10056000CDE90354CDE901441A4B1B4900944FF4E3
:1005700080621A4804F0AAF8194B1860194B1A49FE
:100580000094CDE90667CDE90354CDE901444FF469
:1005900080621648DFF8588004F098F8C8F8000028
:1005A000144B15490094CDE90667CDE90354CDE914
:1005B00001444FF48062114804F088F8C8F8000044
:1005C00008B0BDE8F08100BF7E7900007004002013
:1005D00080040020DD03000080110020C8010020FD
:1005E0009004002075040000A0150020480200209F
:1005F00094040020E5040000C0190020C802002077
:1006000038B54468816004F00304032C054602D029
:100610002CB1002000E0006800236B6038BD054A63
:1006200005490648452306F00DFB0248452106F022
:1006300002FBEEE7B17900007C7A0000D47900007B
:100640000B6801330B60014B1B6818470800002042
:10065000014B1860704700BF0800002007B50B462B
:10066000002102460191034801A900F053FB03B0A9
:100670005DF804FB410600002DE9F74FB0F81C902F
:10068000009219F0080F044622D001290CBF49F04E
:10069000100949F02009A0F81C901434204604F0F9
:1006A000FBF868B99B4A9C499C48B92306F0CAFAF2
:1006B0009B48214606F0C6FA9648B92106F0BBFAD7
:1006C000009B83F31188BFF36F8F03B0BDE8F08FF9
:1006D000944FDFF8488209F00709022906D1204625
:1006E00006F0C3F90028D8D0012864D1D4F818B096
:1006F000A38BBBF1000F19DA0026256823F007034E
:10070000C4E9006643F00103A383A38B03F007024F
:100710004A45019203D0A268002A40F0138115B91E
:10072000002E00F059814FF0000A0DE103F007029E
:10073000511F012920D8002123F00703062A25682C
:100740009BB2C4E900110AD13DB1E28B2946096888
:10075000013292B20029FAD1E28343F00203A3836B
:10076000204606F082F906460028CED0A38B43F03F
:100770002003A3830026C8E7042A0DD123F0070332
:100780009AB2A283204606F070F9054688B142F07D
:100790002002A2830025EDE7634940F21B133A468D
:1007A000404606F04FFA40F21B11384606F043FA75
:1007B00000252E46A9E7032834D1B9F1000F0BD04C
:1007C0005A4940464FF4AB733A4606F03BFA4FF4B1
:1007D000AB71384606F02FFA23685BB9544940469E
:1007E00040F257133A4606F02DFA40F257113846B8
:1007F00006F021FA23691E685EB94E4940464FF45F
:10080000AD733A4606F01EFA4FF4AD71384606F065
:1008100012FAA38B23F0070343F00603A3830025FA
:10082000AB4672E7042831D1B9F1020F0BD042492F
:10083000404640F25D133A4606F004FA40F25D117C
:10084000384606F0F8F9E38B5BB13C4940464FF47B
:10085000AF733A4606F0F6F94FF4AF71384606F03A
:10086000EAF923695E685EB93249404640F2611395
:100870003A4606F0E7F940F26111384606F0DBF936
:10088000A38B23F0070343F00403C7E7052831D106
:10089000B9F1010F0BD02A4940464FF4B2733A46E2
:1008A00006F0D0F94FF4B271384606F0C4F9236867
:1008B0005BB91F49404640F265133A4606F0C2F95B
:1008C00040F26511384606F0B6F923699E685EB9B4
:1008D000184940464FF4B4733A4606F0B3F94FF462
:1008E000B471384606F0A7F9A38B23F0070343F051
:1008F000050393E70C4940F26B133A46404606F075
:10090000A1F9002540F26B11384606F094F92E4605
:1009100086E700BF947A0000C17A0000D479000015
:10092000D87A0000F17900007C7A0000137A000088
:100930001F7A0000427A0000597A00006F7A0000A6
:100940007E7A00004FF0010A43F0080304F1140915
:10095000A383484603F0A0FF68B9384A3849B92351
:10096000404606F06FF93748494606F06BF93348C0
:10097000B92106F060F9009B83F31188BFF36F8FF4
:10098000BAF1000F37D1002D47D116B12E492046BC
:10099000B0474FF02003EFF3118B83F31288BFF3BE
:1009A0006F8F4846CDF800B003F068FF68B9234A5E
:1009B00026498E23404606F045F92548494606F06B
:1009C00041F91E488E2106F036F9484603F074FFBF
:1009D000A38B23F00803A383A38BDA0625D523F08A
:1009E0001003A3830121B4F81C9009F00709002922
:1009F0007FF473AE51E6A1680029C4D0D1F800A0FD
:100A00004B68019A9C4620465B46E047BAF1000FCE
:100A1000B9D05146DAF800A0F2E72946019A2D68CC
:100A20005B46204606F03DF8ADE713F020011EBFFF
:100A300023F02003A3830221D5E700BF947A0000AE
:100A4000C17A0000D87A0000550A0000ED7A000053
:100A5000027B0000F8B504460D4600F114064FF085
:100A60002003EFF3118783F31288BFF36F8F3046B3
:100A700003F004FF68B90C4A0C490D488E2306F0B8
:100A8000E1F80C48314606F0DDF807488E2106F003
:100A9000D2F8304603F010FFA5613A462046012106
:100AA000BDE8F840FFF7E8BD947A0000ED7A000059
:100AB000D4790000027B00002DE9F04704460F4680
:100AC00006F005F8051E5EDB04F114094FF0200363
:100AD000EFF3118A83F31288BFF36F8F484603F058
:100AE000CDFE68B9384A394939488E2306F0AAF84C
:100AF0003848494606F0A6F833488E2106F09BF8A0
:100B0000484603F0D9FEE38BA28B4FF6FF718B4270
:100B100002F0070650D0022E24D10133E38335467C
:100B20004FF00108484603F0B7FE68B9264A2A4943
:100B30002748B92306F086F82848494606F082F887
:100B40002148B92106F077F88AF31188BFF36F8F37
:100B5000B8F1000F17D0002332463946204605F081
:100B6000A0FF10E0930701D0062E0FD100233B60B9
:100B70006368F3B9C4E900773546FEB952460221ED
:100B80002046FFF779FD2846BDE8F087052E18D0EE
:100B9000012E0BD012490E48124A40F2C91306F03A
:100BA00051F8104840F2C91106F045F86FF00405FD
:100BB00004E01F606760DFE76FF00A054FF0000890
:100BC000B0E76FF08505F9E7947A0000ED7A000050
:100BD000D4790000027B0000C17A0000D87A0000BE
:100BE0007E7A0000F1790000B2F5802F2DE9F04106
:100BF00004460E4617466AD33E493F4A3F4840F2F4
:100C0000E31306F01FF83E4806F01CF840F2E3112B
:100C1000394806F010F8043FF51D3E4425F007055D
:100C200026F00706761B172E4FEAD6070ED8354951
:100C3000314A324840F2F31306F004F8324806F025
:100C400001F82D4840F2F31105F0F5FF2560B7FAE1
:100C500087F4C4F12008C4F12404A400073400235D
:100C6000E408EB60631CBB42AF600ED92749224AFF
:100C700022484FF4017305F0E5FF234805F0E2FF39
:100C80001D484FF4017105F0D6FF05F1100303EB89
:100C900088080022984529D1630043F001036B8046
:100CA00005EBC4013B1B58002A804880A91925F890
:100CB00034404A80AB5305EBC70321465A8842F0C3
:100CC000010228465A80BDE8F04105F031BF042AF0
:100CD000A1D80F49084A09484FF4F57305F0B2FF4F
:100CE000094805F0AFFF4FF4F57191E743F8042B85
:100CF000D0E700BFE67B00001A7B0000D47900003B
:100D0000FC7B00004D7C0000347C0000767C000001
:100D1000137C00002DE9F04F91B08B460290924673
:100D20001C4600259AF8000008B928465FE32528EC
:100D30000AF1010707D0029B594698470028C0F2E4
:100D40005683013512E2182200210AA805F0C2FFDD
:100D50009AF80130252B78D000221046964694460A
:100D60001646394617F8013B2B2B00F09D8000F208
:100D70009480202B00F09B80232B00F09B802EB1D1
:100D80009DF8306046F004068DF83060BCF1000F2D
:100D900005D09DF8306046F008068DF83060BEF151
:100DA000000F05D09DF8306046F010068DF83060D9
:100DB00028B19DF8300040F020008DF830002AB1B5
:100DC0009DF8302042F040028DF830209DF8302010
:100DD00002F04400442803D16FF386128DF83020CE
:100DE0009DF830202A2B42F080028DF830207BD1F4
:100DF0009DF8312042F001024B1C8DF831201A7809
:100E00002E2A9DF831200CBF0121002161F34102FF
:100E10008DF8312074D15A782A2A6AD00133002102
:100E20000A26184610F8012BA2F13007092F40F2CC
:100E30008E809DF830200E91C2F3400040EAD171BF
:100E400061F341028DF830205AE00AF102078DF873
:100E500033309DF83130D90740F1498154F8049B73
:100E6000B9F1000F07DA9DF8302042F004028DF846
:100E70003020C9F100095A0740F1428154F8048B2F
:100E8000B8F1000F80F241819DF831306FF34103DA
:100E90008DF831304FF0FF3837E12D2B0CD0302B4F
:100EA0007FF46DAF01225CE74FF0010C59E74FF082
:100EB000010E56E7012054E7012652E70CFB02021F
:100EC000303A33461E4616F8010BA0F13007092FC1
:100ED000F4D9994293D09DF830100D92D20F62F35D
:100EE00041018DF830108AE70B4600224FF00A0CC2
:100EF000E8E79DF8312042F004028DF831200233FA
:100F00001F4617F8012B6C2A41D025D8682A2BD010
:100F10006A2A46D04C2A4CD01F4617F8012B9DF860
:100F200031308DF83320782A00F2D980572A4DD8F5
:100F3000412A03D0453A022A00F2D1809DF832308E
:100F4000042262F302038DF8323001239EE006FB97
:100F500001213039034664E7742A26D07A2ADBD18E
:100F60009DF8313006220DE05A78682A9DF831202C
:100F700006D1012161F3C6028DF831209F1CCCE718
:100F80001346022262F3C6038DF83130C5E75A7862
:100F90006C2A9DF8312001D10421EBE7134603228E
:100FA000F0E79DF831300522ECE79DF8313007225B
:100FB000E8E7BDF8303023F4F04323F0020343F4B4
:100FC000804343F00203ADF83030A6E7A2F15801A8
:100FD000202900F2848001A050F821F0A110000027
:100FE000DF100000DF100000DF100000DF10000045
:100FF000DF100000DF100000DF100000DF10000035
:101000003D0F0000DF100000A11000006110000083
:101010003D0F00003D0F00003D0F0000DF100000FD
:1010200061100000DF100000DF100000DF10000082
:10103000DF100000A9100000A1100000C510000082
:10104000DF100000DF100000C5100000DF100000FE
:10105000A1100000DF100000DF100000A110000050
:101060009DF83210012003F0780360F30201402B59
:101070008DF8321002BF9DF8301041F001018DF85B
:101080003010632A31D1003B18BF01239DF8302076
:10109000C2F340010B4363F341028DF83020D8E6E0
:1010A0009DF832100220DEE79DF8322003F078032D
:1010B000A3F14000032161F3020243428DF8322084
:1010C0004341E3E79DF83220032113F0780F61F3E9
:1010D00002028DF8322014BF01230023D6E79DF8C9
:1010E000303043F001038DF830300023CEE79DF916
:1010F0003020002AB4BFDDF834904FF0FF39BAE653
:101100009B077FF5C7AEDDF838809DF831100023CE
:10111000CDE90D339DF8323003F00703012BC1F305
:10112000C30138D1CB1E042B22D8DFE803F003091A
:101130000921210054F8043BDA17CDE90A3206E010
:10114000073424F00704F4E80223CDE90A239DF8CC
:10115000303013F0030656D002983B4652465946AB
:1011600005F053FD0028C0F242810544BA46D9E596
:1011700054F8043B01294FEAE372CDE90A3205D164
:101180009DF828300A9300230B93E0E70229DED173
:10119000BDF92830D0E7022B23D1CB1E042B13D866
:1011A000DFE803F0030A0A12120022680A92002301
:1011B000201D0B930446CAE7E01D20F00700F0E86D
:1011C0000223CDE90A23F5E754F8043B0A930129E9
:1011D0004FF000030B93D3D00229B8D1BDF82830CB
:1011E000D0E7042B09D1E31D23F0070303F1080422
:1011F000D3E90023CDE90A23A9E7032B04BF54F860
:10120000043B0A93A3E79DF833007828AED8622800
:1012100022D825283FF48FAD5828A7D10DF12603F9
:101220000093DDE90A0104AB0CAA05F0A8FC824694
:10123000B8F1000F0DF126000CDB9DF83020A0EB7B
:101240000A036FF3861298458DF8302002D9A8EB77
:1012500003030D9380463DE06338152886D801A22C
:1012600052F820F0E5120000491300006D11000053
:101270006D1100006D1100006D1100004913000098
:101280006D1100006D1100006D1100006D11000066
:10129000A313000071130000751300006D1100000E
:1012A0006D110000BD1200006D11000071130000EF
:1012B0006D1100006D11000071130000B8F1000FF6
:1012C000DDF828A00ADB4146504605F0EFFC0AEBAA
:1012D00000080026BAF1000F0CD147E7504605F090
:1012E000DEFCF4E70A9B8DF8103000260DF1100AA1
:1012F0000DF11108A8EB0A0306B101339DF8322065
:10130000D00668D5023352060D9948BF0E9A0B4499
:1013100048BF9B18B9F1000F76DD9DF83020A9EB8E
:101320000309C2F38003039353076DD4500661D5BC
:1013300046B1029B594630469847002857DB039B2D
:1013400001351E46302356E01E070FD413F0100659
:1013500018BF2026DDE90A23002BBFF65FAF5242FB
:1013600063EB4303CDE90A232D2657E72B26F1E74C
:10137000002653E70A9840B30DF1260300930CAA08
:1013800004AB002105F0FBFBBDF8323003F0EF03A6
:1013900043F4F04343F010038246ADF832300026A8
:1013A00046E70A9B07293FF6E1AEDFE801F00C04AF
:1013B000060C08080C0C1D70D8E61D80D6E6EA174E
:1013C000C3E90052D2E61D60D0E6DFF8C8A00646A9
:1013D0000AF105088EE7110748BF013393E7184665
:1013E00003935946029B98470028039B04DA11B0E7
:1013F000BDE8F08F20234D444A46002AA5EB0901A1
:1014000009F1FF39EBDC0D4636B1029B59463046F7
:1014100098470028EBDB01359DF83230D90601D41E
:101420001A0706D5029B5946302098470028DEDB74
:1014300001359DF83230DB0607D59DF83300029B5D
:10144000594698470028D2DB01350D9E2E44731B68
:10145000002B16DC029843465246594605F0D5FB50
:101460000028C4DB0544A944A9EB0503002B7FF742
:101470007DAE029B5946202098470028B7DB0135F6
:10148000F2E7029B5946302098470028AFDB013530
:10149000DDE700BFA17C000008B54FF02002EFF3AC
:1014A000118382F31288BFF36F8F00F02BFF034884
:1014B00005F0CEFA00F068FAFCE700BFA77C000058
:1014C0002DE9F84305464FF02003EFF3118683F32F
:1014D0001288BFF36F8F224803F0D0F968B9214A10
:1014E000214922488E2305F0ADFB1D49204805F017
:1014F000A9FB1C488E2105F09EFB194803F0DCF97E
:101500001C4B1C689CB11C4FDFF870804FF00C091D
:10151000D4E90132002D08BF13462BB198F81420EE
:1015200009FB02F2B85C98472468002CF0D10C4803
:1015300003F0B2F968B90B4A11490C48B92305F018
:1015400081FB07490F4805F07DFB0648B92105F0EE
:1015500072FB86F31188BFF36F8FBDE8F88300BF7D
:1015600098040020947A0000ED7A0000D4790000FD
:10157000027B00009C040020A4040020480B0020F3
:10158000C17A0000D87A00004209012300F01F0050
:1015900003FA00F0074BBFF35B8FC04303EB8203FA
:1015A00053E8002F024043E800210029F8D1BFF39F
:1015B0005B8F7047B004002038B51A4B1C7DBFF319
:1015C0005B8F04F01F0301229A40174B6109D0433F
:1015D00003EB810353E8001F01EA000543E8005CC8
:1015E000BCF1000FF6D1BFF35B8F114213D00F4B4C
:1015F0000F4D8BB10C236343EA18E85C517805F07A
:1016000083FB0020FFF75CFF0C235C432A190023B7
:101610002B51C2E9013338BD83F31188BFF36F8FBB
:10162000EFE700BF480B0020B4040020096D000064
:10163000A40400202DE9F843324B334A1C7DBFF34C
:101640005B8F63094FEA830952F823302F4EBFF3B3
:101650005B8F04F01F0843FA08F313F0010F0746ED
:101660000AD10146204600F069F828B107C80C23CA
:1016700003FB046383E807000C236343F218F55C63
:101680002DB92046FFF780FF2846BDE8F8837B1C74
:101690000FD0D2F808C01E481E4A4FF40045002162
:1016A0000023ECFB0501FEF72BFD0121381A04F0A5
:1016B00041FE03F07FFC0120FFF702FFBFF35B8FC9
:1016C000012303FA08F8144B994459E8003F43EA10
:1016D000080349E80032002AF7D1BFF35B8F0F4BB4
:1016E00033B10C236343F218F05C517805F000FB32
:1016F000FFF762FF2046FFF747FF04F045F901209E
:10170000C3E700BF480B0020B0040020A404002061
:101710003F420F0040420F00B4040020F16C000073
:10172000054BBFF35B8F53F82000BFF35B8F00388E
:1017300018BF0120704700BFB80400202DE9F04F0A
:1017400085B00F4603A900F047F8DFF88080DFF886
:1017500080A0441E24B24FF0000B631C04D100266D
:10176000304605B0BDE8F08F039A04EB440302EB6A
:10177000830612F82300FFF7D3FF054610BB7068FD
:101780004FF40049C4462946E0FB09C152465B4676
:101790006046FEF7B5FC0190B068C4462946E0FB00
:1017A00009C15B4652466046FEF7AAFC094B1B681E
:1017B000591C01D0834205D97A1CD1D0019B184411
:1017C000B842CDD9013C24B2C7E700BF3F420F0069
:1017D00040420F000C00002008B9024B0B600020B3
:1017E000704700BFF8750000014804F081BF00BFDA
:1017F000F875000010B5044618B90D4B0D485B682C
:101800009847616808290DD031F004030AD011F01F
:10181000020108D00848214602F090FE0023236010
:101820000023636010BD2068142205F053FAF7E727
:10183000E8000020D07C0000D404002008B508B3E4
:101840004368042B10D101220368BFF35B8F53E878
:10185000001F002903D143E800200028F7D1BFF37F
:101860005B8F0BD1002008BD53B100684FF0FF32F1
:101870004FF0FF3303F05AF80028F3D00348F2E7A3
:101880000348F0E76FF4E040EDE700BFE98FFFFFAA
:10189000EA8FFFFF08B5D0B14368042B11D10022B5
:1018A0000368BFF35B8F53E8001F012903D143E8AE
:1018B00000200028F7D1BFF35B8F074808BF104610
:1018C00008BD3BB1006803F02BF90020F8E76FF486
:1018D000E040F5E70148F3E7E98FFFFFEA8FFFFFFC
:1018E00010B5044618B9164B16485B6898476368EC
:1018F000042B23D0082B21D0CBB92368BBB91248C5
:101900004FF0FF324FF0FF33214602F0ABFD08B934
:1019100023681BB90A4B0D485B689847206814225E
:10192000002105F0D7F9636843F002036360206883
:1019300005F0D0FC636843F00103636010BD00BF95
:10194000E8000020D07C0000D4040020F67C0000D9
:1019500008B5064906484023142205F08AFCBDE874
:1019600008400449044804F023BF00BFF4040020E9
:10197000D4040020107600000076000001491022F7
:101980000A60704710ED00E072B6404080F31188A5
:10199000BFF36F8FBFF34F8F30BF62B6BFF36F8F50
:1019A000704700BF72B6494081F3118820BF80F3B1
:1019B000118862B6704700BF43B2002B08DB0122DA
:1019C00000F01F0002FA00F05B09024A42F823000F
:1019D000704700BF00E100E0054B420900F01F0026
:1019E00053F82220012303FA00F01040704700BF93
:1019F00000E100E070B54C1C072C05460E460FD9DF
:101A0000114A12491248572305F01CF91148314672
:101A100007232A4605F016F90B48572105F00BF964
:101A20006BB2002BACBF03F160430B4B4FEA441485
:101A3000B8BF05F00F05E4B2AABF03F561435C55DA
:101A400083F8004370BD00BF237D0000597D000076
:101A5000D4790000747D000014ED00E030BFFFF782
:101A6000FDBF00BF0B4A08B50B4B22F07F029A6006
:101A7000BFF34F8FBFF36F8FD3F8882022F470022B
:101A8000C3F8882002F004FC04F092FA00F026FA71
:101A900002F042FC0000000000ED00E0094A0A49A3
:101AA000936809689967094958674B6843F0805300
:101AB0004B60002383F31188BFF36F8F9368986F97
:101AC000704700BF480B00205077000000ED00E099
:101AD00012498A684FF030001044EFF3098C80E817
:101AE000F01F202080F31288BFF36F8F0C4F4FF050
:101AF0000066CA698A603E60506F0023536780F3B6
:101B0000118804B5104600F085FABDE8044002F1E2
:101B1000300090E8F01F8CF309887047480B0020D4
:101B200004ED00E01EF0040F0CBFEFF30880EFF3AC
:101B30000980816911F8021C0229FFD001B505F066
:101B400095F801BD42F8203C009B42F81C3C0A4934
:101B5000019B42F8183C029B42F8143C21F0010121
:101B60004FF0807342F8043C42F8081C0023203AEE
:101B700002654367704700BF136B0000094A0346C4
:101B8000906870B113F1160F406E05D0A0F12002DD
:101B90009A4205D8834203D2814228BF0020704771
:101BA00000207047480B002008B5094B98600D468F
:101BB000144600F02FFA204685F30988002163B609
:101BC00081F31188BFF36F8F0022002304F0A1FF7F
:101BD000480B002001B572B60B4A906900281EBF61
:101BE0000021916105F067FB62B6EFF30580A0F17B
:101BF00010004FEAC0000549014409C99847BDE8F3
:101C00000140034908470000480B002044740000CD
:101C1000151C0000044B9968D869884203D0034919
:101C20004FF080520A607047480B002004ED00E03E
:101C3000264B70B515469A6A9A6A9A6A92070446C4
:101C400021D5586B9A6A16061DD519B19A6A22F0E9
:101C500080029A629A6A9A6A9A6AD10616D49B6A34
:101C60009A0713D40024194B9A6A920642BF5A6A03
:101C700022F400525A629A6A42F0FF029A620023EA
:101C80002B70204670BD6FF01500E3E70F4E7368B0
:101C90001B05E7D52146FFF771FF044618B180F315
:101CA00009880224DFE7B36AD906DBD5084A094967
:101CB000094840F2491304F0C5FF084804F0C2FF88
:101CC000034840F2491104F0B6FFCCE700ED00E014
:101CD000B47D0000EE7D0000D4790000387E000065
:101CE0000D4B9A6A9A6A9A6A920508D59A6B9A6A13
:101CF000120404D518B19A6A22F400429A62064B83
:101D00009A6A9A6AD20558BF9A6A9A6A002042F47F
:101D10007F429A620870704700ED00E070B55E4B3C
:101D20005C688AB00D46C4F30804002686F3118867
:101D3000BFF36F8F02F07F43B3F17F4F08D102F002
:101D40000C03082B04D011075CBF054601267DB9A2
:101D5000524A5349534840F2FB3304F073FF524850
:101D600004F070FF4D4840F2FB3104F064FF0025A1
:101D700000238DF80730E31E032B00F28680DFE896
:101D800003F0026F7377444BDC6A14F002047CD1D9
:101D9000DA6A002A0ADBDA6A520054D5AA6932F8F4
:101DA000021C4DF60272914219D12C689DF8073041
:101DB0009BB92022294602A804F081FF099B002E2E
:101DC00065D0C3F3080222B96FEA53236FEA4323B5
:101DD000099302A9204604F047FF0AB070BD93F8AA
:101DE00028203AB10DF1070201212846FFF720FF14
:101DF0000446DBE793F829202AB10DF10701012001
:101E0000FFF76EFFF4E75A8D92B262B19A6A9A6A4E
:101E10009A6A9A6A9A6A9A6A9A6A6FEA02426FEAB8
:101E200012429A62C2E721491C4A1E4840F2CD2361
:101E300004F008FF1E4804F005FF40F2CD211748CA
:101E400004F0F9FEB2E71949144A164840F2D123CA
:101E500004F0F8FE174804F0F5FE40F2D121EEE759
:101E60000DF107020021C0E70DF107010020C7E7CF
:101E7000094B9A6A9A6A9A6A9A6A9A6A9A6A9A6AF2
:101E80006FEA02426FEA12429A6200248EE723F45C
:101E9000FF7323F001039BE700ED00E0B47D000039
:101EA0005B7E0000D47900006E7E00007C7A00002A
:101EB000AC7E0000D07E0000024A536943F010035C
:101EC0005361704700ED00E0EFF30880EFF3098104
:101ED00001B57246FFF722FF01BD00BF0448002391
:101EE0002021C2180133302B82F80013F9D170473A
:101EF00000E100E0002080F31488BFF36F8F05F04D
:101F00002BFA00200D490860BFF34F8F0C4880F377
:101F1000088800F02BF8202080F3118809484FF43E
:101F20000261401880F30988EFF31480022108430E
:101F300080F31488BFF36F8FFFF794FD94ED00E0FA
:101F4000E0210020602300200749D1F890200023E1
:101F5000C2F307221846934200D17047C1F8983067
:101F6000C1F8A0000133F6E700ED00E008B572B655
:101F7000002383F31388FFF7E7FF144B4FF0FF3282
:101F8000C3F88020C3F88420C3F88820C3F88C20CD
:101F9000C3F89020C3F89420C3F89820C3F89C207D
:101FA000C3F88021C3F88421C3F88821C3F88C21A9
:101FB000C3F89021C3F89421C3F89821C3F89C2159
:101FC00062B6BFF34F8FBFF36F8F08BD00E100E033
:101FD000084B9B6883420BD1EFF3058343B1064B5B
:101FE0005A6842F080525A605A6A22F400425A6299
:101FF00003F02ABF480B002000ED00E0024B034A2B
:102000000348012100F06EB8000004200000002009
:1020100024760000426E054B203A1A60044A2021C3
:10202000C3E901121846012100F084B8F409002028
:1020300000000B15F0B51F4F00268E4201DB104645
:10204000F0BD44689CB353B104F1FF3C14EA0C0F9B
:1020500018D11F2C16D905681CEA050F12D1202CA7
:102060000568D0F808C0D2B20FD9B4F1004F0ED82D
:10207000013CB4FA84F4C4F11F046400072A4CEA5A
:10208000040406D96FF01502D9E70824F6E73E24C8
:10209000F4E725F01F05154345F0100544F0010451
:1020A000C7F89820C7F89C500132C7F8A040013605
:1020B0000C30C2E700ED00E0044B0522C3F8942089
:1020C000BFF34F8FBFF36F8F704700BF00ED00E08D
:1020D000BFF35F8F024B0022C3F89420704700BF0C
:1020E00000ED00E038B50E4D01232A78FFF7A2FF7E
:1020F000287016300C4611D140F21113094A0A49D2
:102100000A4804F09FFD2146094804F09BFDBDE804
:102110003840044840F2111104F08DBD38BD00BFB5
:10212000680D0020007F00007C7A0000D479000058
:10213000377F000010B5124A00231278FFF77AFFAC
:1021400010F1160F0C4609D00E4A072800DD10BD0D
:10215000C2F89800C2F8A0300130F6E70A4A0B49ED
:102160000B484FF4987304F06DFD2146094804F0C4
:1021700069FDBDE8104004484FF4987104F05BBD60
:10218000680D002000ED00E0007F00007C7A000078
:10219000D4790000637F0000274910B50C68082C33
:1021A00013D94FF4A473254A2549264804F04AFD63
:1021B00025480822214604F045FD20484FF4A4712B
:1021C00004F039FD4FF0FF3010BDFFF781FF486884
:1021D0001E490022944200F10C001AD11C4B1C70C5
:1021E000FFF76AFFD1F89030C3F30723082B0ED016
:1021F0001849124A13484FF4D47304F023FD1648CB
:1022000004F020FD0D484FF4D47104F014FD0020BB
:10221000DAE7C1F8982050F80C3C23F01F03134371
:1022200043F01003C1F89C3050F8043C43F0010324
:10223000C1F8A0300132CDE730760000007F000009
:102240007C7A0000D4790000907F000000ED00E06F
:10225000680D0020C47F000014800000014B18604E
:10226000704700BF300000200239012902D8034B1B
:102270001B6818474FF0FF30704700BF3000002048
:102280000FB407B504AB022153F8042B04480193A3
:10229000FEF740FD03B05DF804EB04B0704700BFEB
:1022A000ED6C000010B54FF02003EFF3118083F3C5
:1022B0001288BFF36F8F114A0123C2F840354FF0E7
:1022C00080424FF08051C2F87835D1F83041082C67
:1022D00008D1D1F83411052904D8094C615C09B141
:1022E000C2F838364FF080430122C3F8802580F3CE
:1022F0001188BFF36F8F002010BD00BF00E00140C8
:10230000448000004FF08043C0B2C3F81C05BFF307
:102310004F8F0549054BCA6802F4E0621343CB6056
:10232000BFF34F8F00BFFDE700ED00E00400FA05AA
:1023300020B1034B800143F001031847704700BFF1
:10234000F075000037B50C460A490B4A411A402384
:102350000093491105462346084804F0EEFC011E8F
:1023600005DA2846234603B0BDE83040184703B0DD
:1023700030BD00BF100A0020AB6D0000CC73000020
:1023800038B5CCB2012C054609D9094909480A4A91
:10239000792304F057FC0848792104F04CFC2969A2
:1023A0000C2304FB0314A06C00F0070038BD00BF31
:1023B00087800000D47900004A800000F8B5CCB2D4
:1023C000012C0669054617460BD918491848194AC1
:1023D00040F24D1304F036FC164840F24D1104F063
:1023E0002AFC4FF02003EFF3118183F31288BFF32F
:1023F0006F8F0C2202FB04639B6C13F0C00301D0AF
:102400009F4210D102FB04660123B364002081F3D4
:102410001188BFF36F8F28B9696801EBC404636842
:1024200098470020F8BD4FF0FF30F0E787800000AC
:10243000D47900004A80000070B50D460649411A63
:102440000446491105484022FFF7B8FF2B460146D4
:102450002046BDE870401847100A0020CC730000E9
:10246000002270B5012104461046FFF7C3FA0F4859
:1024700001F06CF90E4B984215D101F08DF92669E7
:102480000C49304604F032FB00280BDB2469094973
:102490000125B56404F1200004F028FB002801DBCD
:1024A0006565002070BD6FF00400FBE7ED240000BF
:1024B0000000AD0B7876000001460C2309484B4321
:1024C00070B5C418D4E91056002248332264184469
:1024D00004F020FC2DB132462B460348BDE8704085
:1024E000184770BD100A0020CC730000012808B501
:1024F00006D0032808D0A8B9104B9B6C5B071BD1F2
:10250000BDE80840FFF7D8BF0D490E4A0E4840F21B
:102510005E2304F097FB40F25E21BDE808400948C5
:1025200004F089BB0649074A074840F2622304F0D9
:1025300089FB40F26221F0E708BD00BF100A0020CD
:102540007C7A00004A800000D479000008B54FF082
:102550002003EFF3118183F31288BFF36F8F124AC8
:10256000136843F0020013F0010310600CD04FF029
:102570008042D2F80C34D2F80C2413F0010303D0BB
:102580000A4804F0C7FB012381F31188BFF36F8F62
:1025900023B1BDE808400020FFF78EBFBDE808402A
:1025A000012001F01DB900BF680A0020580A002070
:1025B0001FB500220123CDE90223094ACDF800D03E
:1025C0006B46CDF804D004F0E9FB002805DB4FF49E
:1025D00080420023684602F0A5FB05B05DF804FBCD
:1025E000C96D0000094BBFF35B8F53E8002F22F049
:1025F000020143E800100028F7D1BFF35B8FD30737
:1026000002D4012001F050B9704700BF680A0020D1
:102610002DE9F0414749BFF35B8F0646012251E89F
:10262000003F41E800200028F9D1BFF35B8FA3B938
:10263000414942484B60CB608A60FEF73DFA002872
:102640000BDA3F493F48404A4FF4087304F0FAFA66
:102650003D484FF4087104F0EEFA96B3731E012B57
:1026600053D8012E07D14FF08043D3F81C3403F028
:102670000303012B25D004F018FE044618B9334B90
:102680001B78002B4FD14FF02003EFF3118783F31A
:102690001288BFF36F8F0124DFF8B4804FF08045BC
:1026A000D5F81834D5F81824D2030CD503F0030359
:1026B000012B01D0012E06D10CB387F31188BFF393
:1026C0006F8FBDE8F081ACB13846FFF76BF9D5F8F4
:1026D0001835002BE4D1D5F80421002AE0D0C5F844
:1026E0000431D5F804310123C5F81835C8F8803114
:1026F000AB60D5E70021212003F068FBE7E74FF04E
:1027000080430222C3F80423DBE712490D480E4A36
:1027100040F2322304F096FABDE8F0410A4840F254
:10272000322104F088BA4FF080430222C3F8082314
:102730000746B1E76C0A0020000A0020300A00209A
:10274000AB800000D47900004A800000791100209D
:1027500000E100E07C7A000008B5084B08481860EA
:1027600004F079FD38B10748FFF778FD0548FDF71B
:102770006FFF002008BD6FF01200FBE7700A002019
:102780002C740000892700000A2838B5074D04463C
:1027900004D1286883680D215B689847286883689E
:1027A000E1B25B689847204638BD00BF700A002040
:1027B00070B5056916460C4661B92249224A23487C
:1027C000242304F03FFA224804F03CFA1E48242156
:1027D00004F031FA636863B91E491B4A1B4825237C
:1027E00004F030FA1C4804F02DFA1748252104F0B3
:1027F00022FA6B685BB100229C4212D12368A9685F
:1028000052B9A1426B6000D1AB60002323606EB966
:10281000002070BD0B46EFE7A142136008BFAA601D
:10282000F3E719681A460029F4D13EB1A8686B682D
:1028300023606C600028EBD1AC60EAE76FF0150014
:10284000E7E700BFE7800000BA800000D47900000D
:10285000F0800000FF800000118100007FB540681B
:10286000057B01F01F04B2F5001F44EA45144FF048
:10287000000504D1204601F03DFB002054E0B2F5F4
:10288000800FCDE9025551D1B3F1007F0CBF042375
:1028900005238DF80830836823FA01F111F0010156
:1028A00055D1B2F1A07F52D166094AD04FF6FF73DD
:1028B000012E08BF194604F01F05E940CA070BD4D2
:1028C0002B492C482C4A40F2292304F0BBF92A4812
:1028D00040F2292104F0AFF96EB1012E34D027491E
:1028E0002448254A40F22E2304F0ACF9224840F255
:1028F0002E2104F0A0F94FF0A04305F5E07553F840
:102900002530DB0723D40DF107052946204601F0C9
:1029100015FA1B4B984219D1284601F071FA194B50
:10292000984213D06FF00B0004B070BDB3F1C06FCC
:1029300005D0B3F1007F0CBF02230123A9E70323D5
:10294000A7E74FF0FF31B6E70F4BD6E7039500231B
:10295000194602AA204601F0C9F80A4B984204D150
:102960000121204601F052FA87E76FF00400DBE70F
:102970005B810000D4790000288100007C7A00008F
:102980000400AD0B0000AD0B0003005010B501F0CA
:1029900027FA044668B901F0FBF9084B98420AD1BE
:1029A0000748214601F0C4F9224605210620FFF719
:1029B00021F8002010BD6FF00400FBE70000AD0B14
:1029C000C529000043092DE9F04703D0012B2ED083
:1029D000BDE8F087174F3B695C68002CF8D000F029
:1029E0001F0001262568DFF85080DFF85090DFF8DF
:1029F00050A08640A3681E4214D0636863B949465C
:102A000045234246504604F01DF90E4804F01AF9D9
:102A10004521404604F00FF9D4E901322146324005
:102A200038469847002DD3D02C462D68E2E7064F54
:102A3000D1E700BFE4730000BA8000007E8100008F
:102A4000D479000011810000FC7300002DE9F043EF
:102A500047683B7B01F01F0585B00E4645EA4315EC
:102A60001446CAB902A9284601F068F90446284666
:102A700001F06AFA4A4B984204D06FF0040005B0A6
:102A8000BDE8F083844205D19DF8080001F0B2F959
:102A9000A042F2D10020F2E74FF000090DF103014E
:102AA0003046CDE9029901F049F94B46804602AA29
:102AB0004946284601F01AF8394B984202D06FF087
:102AC0001500DCE7804503D19DF8030001F092F981
:102AD000A30351D540F20663234040F206229342FD
:102AE0003BD00CD8062B15D004D89BB1022BE6D1D5
:102AF00004230FE0B3F5007FE1D101230AE040F2A7
:102B0000024293422BD0B3F5C06F2AD0B3F5806F49
:102B1000D5D102238DF8043084F48033C3F300430D
:102B2000E0068DF8053054BFC4F34013032321039E
:102B30008DF8063017D57B68012101FA06F6C3F837
:102B40000865002201A9284601F07EF8144B98423E
:102B500014BF6FF01500002091E70723DAE7052383
:102B6000D8E70323D6E7620341BF7B68012101FA5E
:102B700006F6C3F80C65E4E7E3064FF0000354BF24
:102B8000C4F3401403241A4601A928468DF80440D2
:102B900000F0ACFF024B98423FF47CAF8FE700BFE0
:102BA0000000AD0BF0B54B79012B26D0032B21D1C2
:102BB00010268B79032B1DD1CC790CB1012C19D1A6
:102BC0000A7912B1022A15D10E220B684568B3F5B5
:102BD000164F2D6865D02DD8B3F5165F64D016D882
:102BE000B3F5966F62D00AD8B3F5967F61D0B3F58E
:102BF000167F61D06FF0850052E00026D9E7B3F56B
:102C0000166F5CD0B3F5965FF4D1374B3CE0B3F56B
:102C1000E14F57D007D8B3F5615F55D0B3F5964F64
:102C2000E8D1324B30E047F61227BB42E2D14FF4F5
:102C3000000329E0B3F5613F48D013D8B3F5963FC0
:102C400047D009D84DF6C027BB4244D0B3F5614FF9
:102C5000D0D14FF46B0317E0B3F5E13FCAD14FF089
:102C6000EB7311E0B3F5612F38D008D8204FBB4289
:102C700037D0B3F5E12FBDD14FF0E86304E01D4F2D
:102C8000BB42B7D14FF080530069C5F82435031D0E
:102C900003C934432243C5F86C2583E803000020B0
:102CA000F0BD4FF41D03EFE7134BEDE74FF49E2308
:102CB000EAE74FF4A033E7E74FF41C33E4E74FF4BF
:102CC0001D23E1E70D4BDFE70D4BDDE74FF06C73A4
:102CD000DAE70C4BD8E74FF46503D5E74FF07063A4
:102CE000D2E74FF08063CFE700B0130000A04E00A2
:102CF00090D0030040420F000050270000C0750034
:102D000000F03A0000903A012DE9F743D0F8048032
:102D10000669D8F80040D8F80C900021C4F80015D6
:102D20000746306001AA484604F002F9051E56DB4A
:102D3000019BD9F800201979186804F050F9051E94
:102D40004DDB311D3846FFF72DFF0546002846D1E3
:102D5000D8F80430990719D506F1120001F0F0F9FE
:102D6000224B98423FD1B07CC30003F1804303F56E
:102D7000F83304F10C0204F59071C3F81015C3F890
:102D800014251B4A01238340C2F804350823C4F8E4
:102D9000003598F808305BB9C4F81031D4F8103118
:102DA00006F11103C4F834350123C4F83835236023
:102DB000D8F804309A075CBF4FF48072C4F804233B
:102DC000DB0644BF4FF48003C4F8043310360023FD
:102DD000C4F84465C4F848350123A360E36028467D
:102DE00003B0BDE8F0836FF00405F8E70000AD0B19
:102DF00000F00140F8B5066905460F4604F055FAA3
:102E000010B92C4B1B7883B94FF02003EFF31184DA
:102E100083F31288BFF36F8F686804F021F828BB32
:102E200084F31188BFF36F8FEEE76424686804F0C1
:102E300017F870B9012004F08AF9013CF6D100219D
:102E4000212002F0C3FFF0E784F31188BFF36F8FF6
:102E5000F5E74FF02003EFF3118483F31288BFF3FB
:102E60006F8F686803F0FCFF0028EDD006F8107F34
:102E700069680B680122C3F84465C3F8482500223D
:102E8000C3F82021D3F82001C3F85821D3F85821E2
:102E90004A68D20641BF0822C3F800254FF48002D9
:102EA000C3F8042301229A6084F31188BFF36F8F63
:102EB000F8BD00BF7911002010B501238340114AED
:102EC000BFF35B8FDC4352E8001F01EA040C42E8C9
:102ED00000CEBEF1000FF6D1BFF35B8F4FF480320E
:102EE00002FA00F002F1804202F58052C2F80803B3
:102EF000BFF35F8FBFF36F8F0B4214BF0120002021
:102F000010BD00BF900A00201949F8B5044622F010
:102F10007F450868C1E90023A5F50013101AB3F531
:102F2000400F22D2134B1B681A0A1B065E19124B64
:102F300042F10007C3E90067012603F04BFAA30042
:102F400003F1804303F58833D3F84025AA420BD11F
:102F50001EB94FF40002C3F84025084B4FF48030EF
:102F600000FA04F4C3F84443F8BD0026E5E700BFC7
:102F700060030020940A0020480300200010014054
:102F800019B3BFF35B8F0123104A834052E8001F3F
:102F9000194342E8001CBCF1000FF7D1BFF35B8F6F
:102FA0000B4A4FF480338340C2F80433094BBFF31C
:102FB0005B8F1B68BFF35B8F23FA00F0C30742BF30
:102FC000054B4FF40032C3F800217047900A0020EF
:102FD000001001408C0A002000E100E00D4B186851
:102FE000010A0006BFF35F8F0B4BD3F804351818A6
:102FF00041F10001B3F5801F0AD2084BD3E9002349
:10300000904271EB030303D210F1807041F1000193
:10301000704700BF940A00200010014048030020C0
:103020002DE9F04F85B0164698460546FFF744FF58
:103030000090FFF7D3FFB04271EB080378D2464B04
:10304000301A68EB0101984271F1000380F0818031
:10305000424B03EB0513D3E902ABD84508BF5645F5
:1030600051D04FEA850909F1804905F1500709F56A
:103070008839BF004FF4803101FA05F3BFB226F062
:103080007F4207F180470193D9F84005344B07F59B
:1030900088371446D3F80415401A20F07F4021F0F9
:1030A0007F4C0128C9F840C507D1CDE90221132082
:1030B00004F045F9DDE90221294B01F1020CA4EBF2
:1030C0000C0020F07F40B0F5000F88BF6446002060
:1030D000386038680198C3F8440324F07F40C9F889
:1030E0004005D3F80405814206D0201A023820F0AA
:1030F0007F40B0F5000F19D8A41A24F07F4414EBD8
:10310000060A48F1000B15490E982B0101EB051238
:10311000C2E902ABC8500F9B5360002428460099B7
:10312000FFF72EFF204605B0BDE8F08F2046B1E73F
:1031300001230C4ABFF35B8FAB4052E8001F1943D9
:1031400042E800100028F8D1BFF35B8FB246C346B7
:10315000D9E76FF01504E1E70100000150030020FA
:10316000001001408C0A002073B5194B194D002442
:103170004FF0FF304FF0FF31C5F80845C3E90201B9
:103180004FF48033C5F80433134B02264FF400325A
:103190000121C5F804631120C3F880212246FEF7FF
:1031A00029FC1120FEF708FC0C4A0123AB602B60C0
:1031B00013600B4B0B4A0093019400232046FFF74A
:1031C0002FFF3046FFF724FA204602B070BD00BF43
:1031D000500300200010014000E100E0900A0020B0
:1031E000092F0000FFFF7F002DE9F743354CD4F88D
:1031F00004339A070BD5D4F8043143B1324A002383
:10320000C4F80431D4F804311368013313604FF06B
:103210002003EFF3118283F31288BFF36F8FD4F88A
:103220000433DB0312D5BFF35B8F284B53E8001F39
:1032300021F0010043E80006002EF7D1BFF35B8FB9
:10324000002936D1D4F84031002B32D1002382F34B
:103250001188BFF36F8F4BB3FFF7C0FE4FF0200311
:10326000EFF3118C83F31288BFF36F8F184BD3E900
:103270000267B04271EB07024FF0000220D34FF01B
:10328000FF384FF0FF39D3E90015C3E902891A600E
:103290004FF48033C4F848338CF31188BFF36F8F39
:1032A00021B1009532463B460020884703B0BDE877
:1032B000F0830023C4F84031D4F840310123C6E73D
:1032C0001146E9E700100140940A00208C0A002012
:1032D00050030020431C13B521D0012821DDB0F597
:1032E000000F20DA441EFFF779FE104BD3E90013DC
:1032F000401AB0F5000F28BF0024013002190C4815
:10330000824228BF024652184FF00000094901903E
:10331000009143F10003FFF783FE02B010BD0448A3
:10332000E0E70024DFE7024CDDE700BF6003002098
:10333000FFFF7F00092F000008B5FFF74FFE024B8B
:103340001B68C01A08BD00BF600300200268530953
:1033500010B504462CD0012B4FF6FF7318BF002385
:1033600002F01F02D340DB070BD414491448154A5E
:1033700040F2292303F066FC124840F2292103F0B1
:103380005AFC236803F01F025B0922600DD0012B59
:1033900011D00D490A480B4A40F22E2303F052FC8B
:1033A000084840F22E2103F046FC4FF0A04010BD2B
:1033B0004FF0FF33D4E70548F9E700BF5B81000019
:1033C000D4790000288100007C7A000000030050BE
:1033D0004FF08053D3F83021082A06D1D3F8343186
:1033E000052B02D8024AD05C70470020704700BF0E
:1033F000AC810000024AD2F80034002BFBD07047A9
:1034000000E0014010B503F098FE40B14FF080435A
:103410000022C3F80C21C3F81021C3F8382503F0AB
:103420008CFE002846D04FF08052604BD2F8041436
:10343000C3F82015D2F80814C3F82415D2F80C14D8
:10344000C3F82815D2F81014C3F82C15D2F81414A8
:10345000C3F83015D2F81814C3F83415D2F81C1478
:10346000C3F84015D2F82014C3F84415D2F8241438
:10347000C3F84815D2F82814C3F84C15D2F82C1408
:10348000C3F85015D2F83014C3F85415D2F83414D8
:10349000C3F86015D2F83814C3F86415D2F83C1498
:1034A000C3F86815D2F84014C3F86C15D2F8442458
:1034B000C3F87025FFF78CFF18B13D4B3D4AC3F8A8
:1034C0008C26FFF785FF18B13B4BFB22C3F818256C
:1034D000FFF77EFF70B14FF080414FF08053D1F87D
:1034E000E42ED3F8583222F00F0203F00F031343F7
:1034F000C1F8E43EFFF76CFF20B1304B4FF400728F
:10350000C3F8402603F019FE48B14FF08043D3F8CA
:103510000024D20744BF6FF00102C3F800244FF02B
:103520008053D3F83021082A0ED1D3F83431052B3B
:1035300002D8234AD35C3BB14FF01023D3F80822C2
:103540004FF08043C3F858254FF01023D3F80022E2
:10355000002A03DBD3F80432002B22DA19490123B5
:103560004FF01020C1F804351224FFF743FFC0F8D4
:103570000042FFF73FFFC0F80442FFF73BFF002384
:10358000C1F80435FFF736FFBFF34F8F0E490F4BDD
:10359000CA6802F4E0621343CB60BFF34F8F00BFF1
:1035A000FDE70B4B0B4A1A6010BD00BF00C0004086
:1035B000005000404881030000F0004000900240AD
:1035C000A681000000E0014000ED00E00400FA05E3
:1035D0005C0000200090D00370B501250268B2FAAB
:1035E00082F3C3F11F035E1CDCB214D0BFF35B8F08
:1035F00005FA03F322EA030350E8006F964204D170
:1036000040E8003CBCF1000FF6D1BFF35B8FE5D181
:1036100002480C7070BD0248FCE700BF0000AD0B13
:103620000200AD0B0368CB40DB0710B515D40123B6
:1036300003FA01F10368BFF35B8F41EA030250E82C
:10364000004F9C4204D140E8002CBCF1000FF6D1A1
:10365000BFF35B8FEED1024810BD0248FCE700BF0C
:103660000000AD0B0400AD0BF7B5044670B10128A6
:1036700031D031493148324AD82303F0E3FA304897
:10368000D82103B0BDE8F04003F0D5BA4FF0804335
:103690000222C3F80823C3F80401D3F8042101224D
:1036A000DA6001239C428DF8073014BF00250DF12C
:1036B000070542F210774FF08046BCB1012C2CD0A8
:1036C0001D491E481F4A4FF44F7303F0BBFA1D48B3
:1036D0004FF44F71D5E74FF080430022C3F8080341
:1036E000C3F80021D3F800215860DAE725B1D6F8F5
:1036F000183403F003032B60D6F81834DA0319D515
:103700001DB19DF80730012B04D1012003F01FFDEE
:10371000013FD2D1012C0AD00CE025B1D6F80C34EF
:1037200003F001032B70D6F80C34DB03E8D4064B0E
:1037300000225A7103B0F0BD7C7A0000D4790000F9
:10374000B2810000EF810000980A002010B5044605
:1037500058B90B490B480C4A40F2151303F072FAA2
:10376000094840F2151103F066FA084B1A7922B99C
:10377000012207481C609A8010BD0648FCE700BF84
:1037800023820000D4790000B2810000980A002052
:103790000000AD0B0C00AD0B08B50D4B1B795BB9F0
:1037A0000C490D480D4A4FF4977303F04BFA0B4840
:1037B0004FF4977103F03FFA0020FEF70DF908B9B6
:1037C000FEF7FAF84FF080430022C3F8182508BD31
:1037D000980A002031820000D4790000B2810000F4
:1037E0002C4B1B7910B504465BB92B492B482C4A4E
:1037F0004FF4B47303F026FA29484FF4B47103F080
:103800001AFA7CB1012C3AD026492448244A4FF4B4
:10381000D37303F017FABDE8104021484FF4D37179
:1038200003F009BA4FF08042D2F81814D2F81834D5
:1038300013F480330BD1D2F81414C90710D5D2F881
:103840001C349B0708D40223C2F8043316E001F0AD
:103850000303012B04D01BB10020FFF705FF002359
:103860004FF08042C2F818350023C2F80431D2F874
:1038700004310223C2F804330123936010BD4FF0DA
:1038800080430022C3F80021D3F80021C3F8044389
:103890001C60F3E7980A002031820000D479000010
:1038A000B28100007C7A00000A4B1B7910B50446F7
:1038B0005BB9094909480A4A40F2AD1303F0C2F95D
:1038C000074840F2AD1103F0B6F92046BDE81040BC
:1038D000FFF7CABE980A002031820000D4790000A8
:1038E000B28100004FF0804310B5D3F800216AB1D7
:1038F0000022C3F80021D3F800210122C3F80823D5
:10390000114B587910B95A711B6898474FF0804392
:10391000D3F8042172B10022C3F80421D3F80421A2
:10392000D3F81824D3F81814920704D10122C3F84D
:1039300018259A6010BD0222C3F80823024BBDE887
:1039400010401B6801201847980A0020034B0830DC
:1039500033F81000C0F34010704700BF6000002033
:10396000044B083033F8100010F01C0018BF012081
:10397000704700BF60000020034B083033F8100090
:10398000C0F34000704700BF6000002070B500F138
:1039900008030C4C34F81330DA0505460E4607D5FB
:1039A000C3F3432304EBC30254F8333052689847FF
:1039B000A3682BB1E26831462846BDE8704018473D
:1039C00070BD00BF60000020194A083010B532F801
:1039D0001030D9051DD5C3F3432123F4F85322F841
:1039E000103002F11004002034F8023B13F4807F01
:1039F00003D0C3F3432399420BD001303028F3D1D5
:103A0000002342F831300B48FFF70CFE0A4B984276
:103A100000D110BD09490A480A4A4FF4997303F0CE
:103A200011F9BDE8104007484FF4997103F003B94C
:103A300060000020D40000200000AD0BB382000025
:103A4000D47900004F82000038B50246FFF77EFFB0
:103A5000094C02F1080540B134F8153007495B0BF9
:103A600003F5A273002041F823001046FFF7ACFFD6
:103A7000002324F8153038BD6000002000600040AD
:103A800010B50446006803F064FB58B912491348A6
:103A9000134A40F2292303F0D5F8114840F22921B6
:103AA00003F0C9F8236803F01F025B0922600DD000
:103AB000012B0ED00B490948094A40F22E2303F08E
:103AC000C1F8074840F22E2103F0B5F84FF0A040AE
:103AD00010BD0548FCE700BF5B810000D479000001
:103AE000288100007C7A000000030050F0B50446F5
:103AF00085B017461D46F1B103F03CFB10B14D48AF
:103B000005B0F0BD0B46CDE900008DF80E008DF834
:103B10000F000DF10F020DF10E01204603F039FBED
:103B2000454A04F1080132F8113023F0020343F052
:103B3000010322F8113097B120463E787A68FFF7EA
:103B40001BFF80B1002ADAD13B4A04F1080132F8A8
:103B5000113023F01C0343EA860322F81130002DB4
:103B60003DD13648CCE7344F04F1080C37F81C102F
:103B700021F02001C904C90C27F81C10002AE3D049
:103B8000032EBCD813782EB92D4A03F5A27142F842
:103B90002160D9E79A0002F1804202F5C04241EA71
:103BA0004331D2F8100520F00300C2F81005D2F816
:103BB000100520F44F3020F44070C2F81005D2F800
:103BC00010E5200200F47C504EEA064E40EA0E005A
:103BD00041F0200127F81C10C2F81005B4E7D5E920
:103BE00000672046FFF7F0FE002EBAD0124D2B687A
:103BF0009E4204D16B689F4201D100220AE0114825
:103C00000DF10F01FFF7E8FC0C4B98427FF478AF01
:103C10009DF80F2045F8326005EBC20308345F6061
:103C200035F8143043EA422343F4807325F8143006
:103C300097E700BF0400AD0B600000200000AD0B53
:103C400000600040D4000020F0B5044685B0154661
:103C500021B3FFF791FE20B92046FFF777FE002839
:103C60005ED12046FFF77CFE10B14B78012B57D078
:103C700001238DF80F300023CDE900134A1C8B1C63
:103C800020460DF10F0103F084FA264A04F10801E1
:103C900032F8113043F0030322F8113015B92248ED
:103CA00005B0F0BD2046FFF767FEC8B31D4E95F87E
:103CB00000C004F10807614636F81700890020F0BB
:103CC000200001F18041C00401F5C041C00C26F87C
:103CD00017000023C1F810356A78002ADFD0D1F828
:103CE0001035AD7823F4991323F4F853C1F8103547
:103CF000D1F810E5230203F47C53120402F440329D
:103D000043EA0E0313432A0502F4801240EA4C30C2
:103D1000134340F0200026F81700C1F81035BEE725
:103D20000248BDE7600000200000AD0B0400AD0BB1
:103D3000014BC3E9020170476000002038B504461A
:103D40000D4659B90C490D480D4A40F2352302F091
:103D500079FF0B4840F2352102F06DFF2046FFF756
:103D6000F5FD38B1074B0848083433F814305B0BC5
:103D70002B7038BD0548FCE7C7820000D4790000ED
:103D80004F820000600000200000AD0B0400AD0B6E
:103D900038B50F4C94F87850BDB96022294604F12B
:103DA000100002F097FF0620FDF706FE094B0A48B7
:103DB000C3F87C51D3F87C214FF00042C3F80423B0
:103DC000012384F87830636738BD0448FCE700BFFE
:103DD00060000020006000400000AD0B0500AD0B4E
:103DE000034B93F87800003818BF0120704700BFDC
:103DF0006000002001460148FFF714BCD0000020FD
:103E000001460148FFF7E8BBD0000020F7B50446A3
:103E10000D46FFF7A5FD58B930493148314A40F207
:103E2000DF3302F00FFF2F4840F2DF3102F003FFD3
:103E30002046FFF78BFD2C4E04F1080718B32046EF
:103E4000FFF79AFD0246F0B936F81700410B084615
:103E500003F09BF900F1804303F5C0431A601B682F
:103E60008B0003F1804303F5C043D3F8102542F0E3
:103E70000102C3F8102525B11C4A01238B40C2F86A
:103E8000043303B0F0BD5DB919491548154A40F235
:103E9000EE3302F0D7FE134840F2EE3102F0CBFED3
:103EA00036F81730C3F38203042B12D0052B12D03F
:103EB00001A80194FFF7E4FD019BD0F81015D9404B
:103EC00001F001010231204603B0BDE8F04003F0EB
:103ED000ABB90321F7E70221F5E700BFD18200006B
:103EE000D47900004F820000600000200060004094
:103EF000E682000008B50246FFF728FDC8B110466B
:103F0000FFF73AFDA8B908320D4B0E4933F81230CD
:103F100001225B0B9A409B0003F1804303F5C043F1
:103F2000C1F80823D3F8102522F00302C3F81025A6
:103F300008BDBDE808400021104603F075B900BF78
:103F400060000020006000400E4B00F1080213B535
:103F500033F81230DB07044611D5FFF7CBFF2046BC
:103F6000FFF772FD01A80194FFF78AFD019B03F59D
:103F7000E073022240F82320034802B010BD03483A
:103F8000FBE700BF600000200000AD0B0400AD0B9C
:103F90002DE9F04F654B66486649002687B001223F
:103FA00034461D6835B1D0F8045315421EBF1C605D
:103FB0001D68164304338B424FEA4202F1D1DFF809
:103FC0007081D8F87C31002B00F093804FF0A04333
:103FD000D3F820250492C3F82025D3F82028059291
:103FE000C3F8202800270DF110097B0100934FF042
:103FF000010A4BE0009B504A94FAA4F4B4FA84F40A
:104000001C4404F10803E00832F81330039404F070
:1040100007020AFA02FC19F8002022EA0C029908A9
:1040200009F8002003A8C3F382050191FFF728FDDA
:10403000039A019902F5E0724B0750F82220AB4633
:10404000C2F3014229D559462046D5B2FFF79EFC5E
:1040500003A80394FFF714FD039B03F5E07350F8E6
:104060002330C3F301439D4207D10021204603F0D2
:10407000DBF82946204603F0D7F803A80394FFF79E
:10408000FFFC039B0AFA03F3C0F8203559F82740D8
:10409000002CAFD1CFB90127A7E7022A0CBF03211B
:1040A00002212046019203F0BFF8032D04D0019AAB
:1040B000022A06D1012DE0D159462046FFF766FCC1
:1040C000DBE7032AD9D1022DF5E7C8F87C41D8F8FF
:1040D0007C311A494FF0A043D3F820250492C3F84D
:1040E0002025D1F820350593C1F8203513437FF4FE
:1040F00079AF012416B907B0BDE8F08F96FAA6F3A0
:10410000B3FA83F304FA03F29B0003F1804303F54F
:10411000C04326EA0206D3F81005D3F81015C0F301
:104120000520C1F30141FFF731FCE3E700610040E6
:10413000006000402061004060000020000300504B
:1041400001460148FFF748BADC00002010B5144CC6
:10415000144A1549032323616361144BA261E3618F
:104160004FF4806323620023A3626362E3622266EA
:104170000F4A6266E01D1022A2662367E36663674A
:1041800002F083FDBFF35F8F0A49204602F07DFDF8
:10419000BFF35F8F2023A371BFF35F8F10BD00BFFC
:1041A000A00A0020F1820000FA820000790D0020B0
:1041B000690D0020FE8200000E4B70B553F82040C0
:1041C000013053F82060A64200D870BDD4E9003514
:1041D0002846984765B1EB6830B10028B8BF404227
:1041E000FF28A8BFFF2018705A7842F001025A70C9
:1041F0000834E8E73C770000F8B504460E464FF077
:104200002003EFF3118783F31288BFF36F8F01F060
:1042100015FE31460546204602F080FF042C0CD1E5
:104220000A490B4A0B488F2302F00CFD0A4802F0A2
:1042300009FD07488F2102F0FEFC87F31188BFF3C8
:104240006F8F2846BDE8F840FDF7C2BE2783000007
:1042500005830000D47900004483000008B50A4BB0
:10426000012202201A70FFF7A7FF02F0C3F9032012
:10427000FFF7A2FF00F07AFAFCF75CF9034A137B20
:1042800023F00103137308BD79110020E803002017
:1042900008B50348034A0021121A02F0E6FF08BDE0
:1042A000C80100207C11002070B5002386B00122D7
:1042B000CDE90423134E144D01930F22CDE90232B0
:1042C0001249182303FB005506EBC01604464FF4B1
:1042D000B07000FB04110E4B00954FF4A0723046F5
:1042E00000F090F9737B0B482C7523F00403737373
:1042F0004FF4026303FB04041C44EE606C6006B0E0
:1043000070BD00BF68030020480B00200022002081
:10431000C94800006023002080B52E4BA6B083F36F
:1043200008882D4D2D4E6B692D4F43F400736B6142
:104330000024E02385F82230EC772C766C76AC767E
:1043400085F820406B6A43F4E0236B6285F82340D4
:10435000FDF7B2FDFDF712FB4FF0FF33AB62EB62EE
:1043600006ADFDF719FFFDF749FE40F2011328469F
:10437000ADF82430CDE91F4402F036F9B56002F003
:1043800069FF2046FFF718FF0120164DFFF714FFC5
:1043900001F0C6FB144BF56105930123134900940A
:1043A000CDE903434FF480623B46CDE90144284602
:1043B00000F028F96A7B064622F0040228466A7358
:1043C00001F000F82046FFF76FFF3A4631462846D5
:1043D000FDF7EAFB802B002000ED00E0480B0020F9
:1043E0005D420000E803002079830000E01D00200A
:1043F000F8B5164C164D174EAC420CD91649174855
:104400003D23324602F01EFC154802F01BFC3D2104
:10441000304602F010FCAC4201D30020F8BDD4E9D4
:10442000042141EA020313F003030BD1E068A36106
:10443000834201D12034DFE7A7690F600133A16116
:104440001144F5E76FF01500E8E700BF5C010020BC
:104450005C0100207E830000A3830000D47900006B
:10446000C08300002DE9F74304460E4690461F46E0
:1044700000F108054FF02003EFF3118983F3128850
:10448000BFF36F8F284600F0F9F968B9244A25492F
:1044900025488E2302F0D6FB2448294602F0D2FBA1
:1044A0001F488E2102F0C7FB284600F005FAA369D9
:1044B000EBB133601B68A361E3690133E36100245E
:1044C000284600F0E9F968B9154A19491648B92390
:1044D00002F0B8FB1748294602F0B4FB1048B92196
:1044E00002F0A9FB89F31188BFF36F8F13E058EA3C
:1044F000070203D133606FF00B04E1E72246CDE9F8
:1045000000874946284601F00DF9044618B90A4BC0
:104510009B685B693360204603B0BDE8F08300BF51
:10452000947A0000ED7A0000D4790000027B00004C
:10453000C17A0000D87A0000480B00202DE9F04134
:1045400004460E4600F108054FF02003EFF31187F3
:1045500083F31288BFF36F8F284600F08FF968B994
:10456000224A234923488E2302F06CFB2248294625
:1045700002F068FB1D488E2102F05DFB284600F02A
:104580009BF9D4F81880B8F1000F0FD1204601F044
:1045900077FA58B132684261C0F8788000F012FFB3
:1045A00039462846BDE8F04100F0C0BC3368A26936
:1045B0001A603368A361E369013BE361284600F0B8
:1045C0006BF968B9094A0D490A48B92302F03AFB68
:1045D0000B48294602F036FB0448B92102F02BFBB8
:1045E00087F31188BFF36F8FBDE8F081947A0000E4
:1045F000ED7A0000D4790000027B0000C17A00004F
:10460000D87A00002DE9F04385B00446DDF83C80FF
:10461000B8F10F0F0F461546994632D1254B9945F3
:1046200033D104F15803C4E91633109B23730735C3
:104630000423637325F0070507F12003C4E9193546
:104640000E9B84F80E80029305F120080D9B0193C8
:1046500000260C9B0093B8444B46C4E90666A6604E
:10466000E673E666424639462046FDF76BFA124B82
:1046700066659B6803B11B6F2367404605B0BDE8C4
:10468000F08308F110031E2BCBD90C4A0C490D48BE
:1046900040F2FF1302F0D6FA41460B486FF00F03C9
:1046A0000E2202F0CFFA054840F2FF1102F0C3FAE1
:1046B000B7E700BFC9480000480B0020DF830000B7
:1046C00002840000D4790000828400002DE9F043C8
:1046D00087B0DDE9146504460F4690469946EFF32E
:1046E000058373B11C491D4A1D4840F26E2302F038
:1046F000A9FA1C4802F0A6FA184840F26E2102F00E
:104700009AFA00230593129B0493119B0393109B29
:1047100002930F9B01930E9B009342464B463946F2
:104720002046FFF76FFFB5F1FF3F08BFB6F1FF3F2F
:1047300005D055EA060306D1204600F08BFE204640
:1047400007B0BDE8F083084932462B4604F1180053
:1047500001F092FCF3E700BFB3840000DF830000A8
:10476000D4790000C5840000FD5400002DE9F04319
:104770003B4C3C4D3C4F87B0AC4226460ED93B49A2
:104780003B4840F2D5233A4602F05CFA394802F041
:1047900059FA40F2D521384602F04DFAAE4204F102
:1047A00030041FD300F006FC2D4C2F4EDFF8BC80E8
:1047B000DFF8BC90AC420ED941464FF43D7332460F
:1047C000484602F03FFA2B4802F03CFA4FF43D71A4
:1047D000304602F030FAAC4220D307B0BDE8F043D7
:1047E00001F0D2B854F8043C059354F8103C0493FB
:1047F00054F8143C039354F8183C029354F81C3CAE
:10480000019354F8203C009354E90C0154E90A2325
:10481000FFF7F8FE54F8303C5E65ADE7636A5A1C5A
:104820000FD023EAE3734FF4004240F2E730002157
:10483000C3FB020151EAC333276804D1384600F0B4
:1048400009FE3034B6E74FF47A720023FBF758FCC8
:1048500002460B4607F11800074901F00DFCF0E78E
:104860005C0100205C010020DF830000EA8400007E
:10487000D4790000C0830000FD540000006838B106
:10488000044B1B7D00F00300C01A18BF01207047C5
:1048900001207047480B0020064903468A68087DBE
:1048A0001968024391424FF0000004BF18600120D4
:1048B000704700BF480B0020024A117D93680B43EC
:1048C00003607047480B0020134C08B5A36893F9A8
:1048D0000E30002B09DA11491148124A272302F041
:1048E000B1F91048272102F0A6F90F4D4FF0200230
:1048F000EFF3118382F31288BFF36F8F01F0D2FCC4
:104900002B78A06113B9FDF73FF8EFE7FCF792FEB3
:104910000028EBD1F7E700BF480B002038850000E6
:10492000D479000017850000791100202DE9F341AA
:10493000044617461E46EFF3058363B16D496E4A80
:104940006E48652302F07EF96D4802F07BF96A48F3
:10495000652102F070F94FF02003EFF3118883F323
:104960001288BFF36F8F6748FFF788FF68B9664A00
:10497000664962488E2302F065F96249644802F094
:1049800061F961488E2102F056F95E48FFF794FF05
:10499000E368604AFBB1A068916888423DD057EA5D
:1049A00006033CD15748FFF777FF68B9564A5A4982
:1049B0005248B92302F046F95249584802F042F9E8
:1049C0005148B92102F037F988F31188BFF36F8F8E
:1049D0006FF00F001EE0916891F90E1049482161B7
:1049E0000133E3609368A360FFF756FF68B9464A56
:1049F00049494248B92302F025F94249474802F0A3
:104A000021F94148B92102F016F988F31188BFF362
:104A10006F8F002002B0BDE8F0812169DEE791F9D7
:104A20000E1090F90E309942A8BF19466FF07E0221
:104A30009142B8BF11468B4243DD02F043FC05466C
:104A4000CDE900762F482246414600F06BFE002853
:104A5000E0D04FF02003EFF3118683F31288BFF309
:104A60006F8F2848FFF70AFF68B9274A274923486C
:104A70008E2302F0E7F82349254802F0E3F82248A4
:104A80008E2102F0D8F81F48FFF716FF236821692E
:104A90009C420AD04BB193F90E309942A8BF1946F7
:104AA0006FF07E039942B8BF1946A06802F00AFC75
:104AB00000B945B11348314600F038FA6FF00A00EA
:104AC000A8E70025BCE70F48FFF7E6FE68B90E4AE5
:104AD00011490A48B92302F0B5F80A490F4802F013
:104AE000B1F80948B92102F0A6F886F31188BFF39E
:104AF0006F8FE3E7B384000060850000D479000085
:104B000082850000700B0020947A0000ED7A00008E
:104B1000027B0000480B0020C17A0000D87A000018
:104B200038B50446EFF3058363B15049504A514804
:104B3000C72302F087F8504802F084F84C48C72198
:104B400002F079F8A368002B00F089804B4DAA6829
:104B5000934240F08780E3684BB949494548444A4D
:104B6000DF2302F06FF84248DF2102F064F8EFF330
:104B7000058363B13D49434A3E48FD2302F062F894
:104B8000414802F05FF83F48FD2102F054F8AB685D
:104B9000DB7B012B0CD13D493A4A3648FE2302F01B
:104BA00051F8394802F04EF83648FE2102F043F839
:104BB000AA68D37B013BD373E368012B05D9013B82
:104BC000E36000F0E1FE002038BD4FF02003EFF37A
:104BD000118583F31288BFF36F8F2D48FFF74EFEC8
:104BE00068B92C4A2C4923488E2302F02BF8284917
:104BF0002A4802F027F827488E2102F01CF82448A2
:104C0000FFF75AFE2169A06802F05CFB204600F025
:104C100037FFA06058B190F90E2022610022826710
:104C200000F0D0FB1A48294600F080F9C9E7E0609F
:104C30001748FFF731FE68B9164A19490D48B923DC
:104C400002F000F81249174801F0FCFF1148B921A1
:104C500001F0F1FF85F31188BFF36F8FB1E76FF0BB
:104C60001500B1E74FF0FF30AEE700BFB38400009E
:104C700060850000D479000082850000480B002088
:104C8000A7850000BE850000E9850000EC850000D6
:104C9000700B0020947A0000ED7A0000027B000087
:104CA000C17A0000D87A000038B504464FF02003DE
:104CB000EFF3118583F31288BFF36F8F1448FFF76A
:104CC000DDFD68B9134A144914488E2301F0BAFF78
:104CD0000F49134801F0B6FF0E488E2101F0ABFFDB
:104CE0000B48FFF7E9FD204600F0CAFE48B100225C
:104CF000826700F067FB29460548BDE8384000F0B0
:104D000015B9D4E902329A4218BF0133A360F2E721
:104D1000740B0020947A0000ED7A0000D479000032
:104D2000027B0000F7B5044616461D46EFF30583E7
:104D30007BB152EA05030CD03549364A364879230F
:104D400001F080FF354801F07DFF3248792101F004
:104D500072FF4FF02003EFF3118783F31288BFF344
:104D60006F8F2F48FFF78AFD68B92E4A2E492A48CF
:104D70008E2301F067FF2A492C4801F063FF294880
:104D80008E2101F058FF2648FFF796FDA368D3B1A6
:104D9000013B2348A360FFF77FFD68B9214A2449FE
:104DA0001D48B92301F04EFF1D49224801F04AFF7A
:104DB0001C48B92101F03FFF87F31188BFF36F8FC3
:104DC000002003B0F0BD56EA050318D11448FFF7E0
:104DD00063FD68B9134A16490F48B92301F032FF41
:104DE0000F49144801F02EFF0E48B92101F023FFAE
:104DF00087F31188BFF36F8F6FF00F00E1E7CDE904
:104E0000006522463946064800F08CFCD9E700BF11
:104E10003D8600001D860000D4790000E985000071
:104E2000740B0020947A0000ED7A0000027B0000F1
:104E3000C17A0000D87A000038B5074D2C6854B10B
:104E4000FEF77AFA054B04441C6128680021BDE88E
:104E5000384001F06FBA38BD840B0020480B0020A9
:104E6000F8B504460D464FF02003EFF3118783F3A6
:104E70001288BFF36F8F2348FFF700FD68B9224AFD
:104E8000224923488E2301F0DDFE1E49214801F00E
:104E9000D9FE1D488E2101F0CEFE1A481E4EFFF7A6
:104EA0000BFD00214FF4004C40F2E730316100234C
:104EB0004FF47A72E4FB0C01FBF722F9002C174B3C
:104EC0001CDC1860164BB0681D60FFF7B5FF0D487D
:104ED000FFF7E2FC68B90C4A12490D48B92301F00A
:104EE000B1FE0849104801F0ADFE0748B92101F0B4
:104EF000A2FE87F31188BFF36F8FF8BD0228B8BFF9
:104F00000220DEE77C0B0020947A0000ED7A00009E
:104F1000D4790000027B0000480B0020840B0020A5
:104F2000800B0020C17A0000D87A000038B5044612
:104F30000D46E9B9EFF30583D3B9194BDA699B68DC
:104F40009A4215D0FFF7A8FC68B9164A16491748C7
:104F5000D02301F077FE1648214601F073FE114878
:104F6000D02101F068FEBDE838400020FCF796BD76
:104F70002046FFF791FC68B90A4A0B490B48B92350
:104F800001F060FE0A48214601F05CFE0548B921A7
:104F900001F051FE85F31188BFF36F8F38BD00BF5C
:104FA000480B0020947A0000C17A0000D4790000F8
:104FB000D87A000038B54FF02003EFF3118583F362
:104FC0001288BFF36F8F2948FFF758FC68B9284A49
:104FD000284929488E2301F035FE2449274801F04D
:104FE00031FE23488E2101F026FE2048FFF764FCA5
:104FF000EFF3058363B12249224A1F48FD2301F0E4
:1050000021FE214801F01EFE1E48FD2101F013FE85
:105010001E4CA368DB7B012B0CD11D49194A164895
:10502000FE2301F00FFE184801F00CFE1548FE218A
:1050300001F001FEA268D37B013BD3730B48FFF75D
:105040002BFC68B90A4A13490B48B92301F0FAFD51
:105050000649114801F0F6FD0548B92101F0EBFDC4
:1050600085F31188BFF36F8F38BD00BF7C0B002024
:10507000947A0000ED7A0000D4790000027B0000F1
:10508000B3840000BE850000E9850000480B0020C5
:10509000EC850000C17A0000D87A00000C4B9942E0
:1050A00010B50C460BD10B490B480C4A40F23D435E
:1050B00001F0C8FD094840F23D4101F0BCFDD4E9D2
:1050C000003213605A600023C4E9003310BD00BFF2
:1050D00068030020AD860000D47900008B860000B4
:1050E000836810B504465BB90B490C480C4A40F282
:1050F000B92301F0A7FD0A4840F2B92101F09BFD58
:10510000A0682146FFF7CAFF637B23F002036373A5
:105110000023A36010BD00BFCE860000D47900003C
:105120008B86000038B502461448154D02F0FBF896
:10513000044600B9EC68CAB9AB6863B91149124AB0
:105140001248892301F07EFD114801F07BFD0E48D5
:10515000892101F070FDAB685A7BD20606D1A269A5
:1051600022B9DA897F2A01D9EB6138BDAB68A34245
:1051700002D02046FFF760FEEC61F6E7680B0020E6
:10518000480B0020E58600008B860000D4790000E3
:10519000E985000070B590F90D20437B002A044694
:1051A00006DA03F07F03437301461E48FFF776FFDC
:1051B000637B63F07F0363731B4B9C4209D11B49E4
:1051C0001B481C4ABA2301F03DFD1A48BA2101F0E0
:1051D00032FD194AD2E9083002F12005AB421BD05A
:1051E000D3B194F90E6093F90E108E420FD0891B43
:1051F00000290CDD5968C4E900310C605C609068DE
:10520000031B5842BDE870405841FFF78BBF8342F3
:1052100002D01B68002BE6D1C4E900500460546240
:10522000EDE700BF680B002068030020AD8600009A
:10523000D47900008B860000480B002070B505462D
:105240004FF02003EFF3118683F31288BFF36F8FC3
:105250002A48FFF713FB68B9294A2A492A488E23AE
:1052600001F0F0FC2549294801F0ECFC24488E218E
:1052700001F0E1FC2148FFF71FFB254B254A9C6804
:1052800011688C4219D12046FFF7D6FD1B48FFF765
:1052900003FB68B91A4A20491B48B92301F0D2FC24
:1052A00016491E4801F0CEFC1548B92101F0C3FC97
:1052B00086F31188BFF36F8F70BD00211160184A0B
:1052C0001268C2B1E2897F2A15D8627BD20612D158
:1052D000144A94F90E10126891420CDB124A94425F
:1052E00009D01A69AA4203DC2046FFF753FFCAE738
:1052F000521B1A61CAE70022FBE700BF7C0B0020AB
:10530000947A0000ED7A0000D4790000027B00005E
:10531000480B0020780B0020C17A0000D87A0000EA
:10532000840B0020800B00206803002070B590F9EA
:105330000D20437B002A044639DBDA0637D1826927
:10534000002A34D163F07F034373194B984209D18B
:1053500018491948194ABA2301F074FC1748BA21B0
:1053600001F069FC164AD2E9083002F12005AB428F
:1053700018D0BBB194F90E6093F90E108E420CD088
:10538000891B002909DD5A68C4E9003214605C6099
:10539000BDE870400020FFF7C5BE984202D01B68F0
:1053A000002BE9D1C4E9005004605462F0E770BDFD
:1053B00068030020AD860000D47900008B860000D1
:1053C000480B002038B504464FF02003EFF3118559
:1053D00083F31288BFF36F8F1748FFF74FFA68B94E
:1053E000164A174917488E2301F02CFC124916481B
:1053F00001F028FC11488E2101F01DFC0E48FFF73A
:105400005BFA2046FFF792FF0B48FFF745FA68B9B1
:105410000A4A0E490B48B92301F014FC06490C480E
:1054200001F010FC0548B92101F005FC85F3118855
:10543000BFF36F8F38BD00BF7C0B0020947A000053
:10544000ED7A0000D4790000027B0000C17A0000F0
:10545000D87A000038B504464FF02003EFF31185E9
:1054600083F31288BFF36F8F1D48FFF707FA68B9FF
:105470001C4A1D491D488E2301F0E4FB18491C48B5
:1054800001F0E0FB17488E2101F0D5FB1448FFF72F
:1054900013FA637B5A0716D41148FFF7FDF968B970
:1054A000104A14491148B92301F0CCFB0C491248A9
:1054B00001F0C8FB0B48B92101F0BDFB85F3118851
:1054C000BFF36F8F38BD23F0040320466373FFF7EB
:1054D0002DFF29460248BDE83840FFF727BD00BF31
:1054E0007C0B0020947A0000ED7A0000D479000053
:1054F000027B0000C17A0000D87A000070B5044633
:105500004FF02003EFF3118683F31288BFF36F8F00
:105510002048FFF7B3F968B91F4A204920488E2375
:1055200001F090FB1B491F4801F08CFB1A488E21AB
:1055300001F081FB1748FFF7BFF914F80B3C13F09B
:10554000280F10D154F8103CA4F1180513B12846C7
:10555000FFF7C6FD14F80B3C23F0140304F80B3CD2
:105560002846FFF7E3FE0B48FFF796F968B90A4AA9
:105570000D490B48B92301F065FB06490B4801F0C2
:1055800061FB0548B92101F056FB86F31188BFF392
:105590006F8F70BD7C0B0020947A0000ED7A0000C4
:1055A000D4790000027B0000C17A0000D87A0000A4
:1055B00010B590F90D20437B002A044606DA03F06B
:1055C0007F03437301460648FFF768FD054B986863
:1055D000031B5842BDE810405841FFF7A3BD00BF70
:1055E000680B0020480B002038B504460D46FFF735
:1055F000DFFF637B43F002036373FDB1164BA560CD
:105600009C4209D115491648164ABA2301F01AFBE3
:105610001448BA2101F00FFB2B689D4215D0A3B1AD
:1056200094F90E1093F90E20914208D0521A002AD4
:1056300005DD5A68C4E9003214605C6038BD6A68F0
:10564000934202D01B68002BECD16B68C4E9005375
:105650001C606C60F2E700BF68030020AD860000AC
:10566000D47900008B8600002DE9F041044688467D
:1056700016461D464FF02003EFF3118783F312887F
:10568000BFF36F8F1F48FFF7F9F868B91E4A1F492B
:105690001F488E2301F0D6FA1A491E4801F0D2FAAB
:1056A00019488E2101F0C7FA1648FFF705F9204680
:1056B0004146FFF799FF1348FFF7EEF868B9124A21
:1056C00015491348B92301F0BDFA0E49134801F0FA
:1056D000B9FA0D48B92101F0AEFA87F31188BFF38A
:1056E0006F8FB5F1FF3F08BFB6F1FF3F08D03246DC
:1056F0002B4604F118000A49BDE8F04100F0BCBC9B
:10570000BDE8F0817C0B0020947A0000ED7A000067
:10571000D4790000027B0000C17A0000D87A000032
:10572000FD54000038B5114B04469868104B0D46E7
:1057300018601146DDE90423FFF796FF2046FFF7C6
:10574000ABF868B90B4A0C490C48D02301F07AFA3F
:105750000B48214601F076FA0648D02101F06BFA99
:105760002846BDE83840FCF799B900BF480B002037
:10577000780B0020947A0000C17A0000D4790000F0
:10578000D87A0000F8B504460D464FF02003EFF339
:10579000118683F31288BFF36F8F3A48FFF76EF8D4
:1057A00068B9394A39493A488E2301F04BFA3549EC
:1057B000384801F047FA34488E2101F03CFA31486C
:1057C000FFF77AF8637BDA066DB257D1A269002A37
:1057D00054D103F07F0363732F482146FFF75EFC2B
:1057E000637BA57363F07F0363732C4B9C4209D1E9
:1057F0002B4927482B4ABA2301F024FA2948BA2119
:1058000001F019FA284AD2E9083002F12005AB422A
:105810002FD073B394F90E7093F90E108F4223D0EA
:10582000C91B002920DD5A68C4E9003214605C609D
:105830000120FFF777FC01241248FFF72DF868B923
:10584000114A1A491248B92301F0FCF90D491848C8
:1058500001F0F8F90C48B92101F0EDF986F311884F
:10586000BFF36F8F2046F8BD834202D01B68002B28
:10587000D2D1C4E9005004605462D9E7A573002472
:10588000DAE700BF7C0B0020947A0000ED7A00007C
:10589000D4790000027B0000680B00206803002020
:1058A000AD8600008B860000480B0020C17A000006
:1058B000D87A000070B50446183000F0A5FC4FF00F
:1058C0002003EFF3118683F31288BFF36F8F25480F
:1058D000FEF7D4FF68B9244A244925488E2301F0F5
:1058E000B1F92049234801F0ADF91F488E2101F09C
:1058F000A2F91C48FEF7E0FF94F90D20637B002A13
:1059000006DA03F07F031C4863732146FFF7C6FBEA
:105910001A4D637BA86843F010036373031B58425E
:105920005841FFF7FFFB0F48FEF7B6FF68B90E4A74
:1059300013490F48B92301F085F90A49114801F0CC
:1059400081F90948B92101F076F986F31188BFF38E
:105950006F8FAB68A34203D1BDE8704001F0D9BCA2
:1059600070BD00BF7C0B0020947A0000ED7A00002F
:10597000D4790000027B0000680B0020480B002057
:10598000C17A0000D87A000038B54FF02003EFF359
:10599000118583F31288BFF36F8F2D48FEF76EFFDA
:1059A00068B92C4A2C492D488E2301F04BF928491F
:1059B0002B4801F047F927488E2101F03CF9294C8A
:1059C0002348FEF779FFA368DB7B73B92649274A92
:1059D000224840F2BB3301F035F9254801F032F995
:1059E000224840F2BB3101F026F9EFF3058373B191
:1059F00020491E4A19484FF46F7301F023F91C48DF
:105A000001F020F919484FF46F7101F014F9A26800
:105A1000D37B01330020D373FFF784FB0C48FEF7E0
:105A20003BFF68B90B4A14490C48B92301F00AF945
:105A30000749124801F006F90648B92101F0FBF8C0
:105A400085F31188BFF36F8FBDE8384001F061BC6A
:105A50007C0B0020947A0000ED7A0000D4790000DD
:105A6000027B0000480B00200C8700008B860000A2
:105A7000E9850000B3840000C17A0000D87A0000F4
:105A800038B504464FF02003EFF3118583F31288F5
:105A9000BFF36F8F1B48FEF7F1FE68B91A4A1B4926
:105AA0001B488E2301F0CEF816491A4801F0CAF8B7
:105AB00015488E2101F0BFF81248FEF7FDFE204682
:105AC00001F031FC044628B1FFF70AFB04F118008D
:105AD00000F09AFB0B48FEF7DFFE68B90A4A0E4950
