:1000000020160020A51E0000C5740000791E000007
:10001000791E0000791E0000791E0000000000001B
:10002000000000000000000000000000D51A0000E1
:10003000791E000000000000811A0000791E0000F7
:10004000851B0000851B0000851B0000851B000030
:10005000851B0000851B0000851B0000851B000020
:10006000851B0000851B0000851B0000851B000010
:10007000851B0000851B0000851B0000851B000000
:10008000851B0000851B0000851B0000851B0000F0
:10009000851B0000851B0000851B0000851B0000E0
:1000A000851B0000851B0000851B0000851B0000D0
:1000B000851B0000851B0000851B0000851B0000C0
:1000C000851B0000851B0000851B0000851B0000B0
:1000D000851B0000851B0000851B0000851B0000A0
:1000E000851B0000851B0000851B0000851B000090
:1000F000851B0000851B0000851B0000851B000080
:1001000053B94AB9002908BF00281CBF4FF0FF317E
:100110004FF0FF3000F00CB8ADF1080C6DE904CEE3
:1001200000F008F8DDF804E0DDE9022304B07047D0
:10013000704700BF2DE9F04F07468C460846099EE0
:1001400015463C461946002B40F0C6808242B2FA62
:1001500082F746D94FB1C7F1200E24FA0EFE00FAFD
:1001600007F3BD404EEA030CBC404FEA15481FFAA6
:1001700085FEBCFBF8F9220C08FB19C309FB0EFA3B
:1001800042EA03439A4528D9EB1809F1FF3004D21B
:100190009A4502D9A9F102002B44A3EB0A03A4B2A9
:1001A000B3FBF8F208FB123302FB0EFE44EA0344F1
:1001B000A64514D92C1902F1FF3303D2A64501D963
:1001C000931E2C44A4EB0E0443EA00401EB1FC40F5
:1001D000002334607360BDE8F08F4846DDE71346C6
:1001E000F0E702B9FFDE87BB831A01214FEA154E03
:1001F000AAB2B3FBFEFC200C0EFB1C330CFB02F876
:1002000040EA0343984563D9EB180CF1FF3004D260
:10021000984502D9ACF102002B44A3EB0803A4B229
:10022000B3FBFEFC0EFB1C330CFB02F244EA03445E
:10023000A2424FD92C190CF1FF3304D2A24202D9A9
:10024000ACF102032C44A41ABEE7C7F1200C20FA3B
:100250000CF800FA07F324FA0CFCBD404CEA030248
:100260004FEA154EABB2B8FBFEFC110C0EFB1C8026
:100270000CFB03F941EA0040814504FA07F423D955
:1002800028180CF1FF3104D2814502D9ACF10201EA
:100290002844A0EB090092B2B0FBFEFC0EFB1C0050
:1002A0000CFB03F842EA004398450FD9EB180CF118
:1002B000FF3204D2984502D9ACF102022B44A3EBE1
:1002C000080342EA014191E76146E2E76246F6E748
:1002D0006046A2E76346B6E7834205D90EB1C6E998
:1002E00000700021084676E7B3FA83F181B98342B2
:1002F00001D3BA420AD8BC1A60EB030301209C4622
:10030000002E68D0C6E9004C002164E70846F7E7F4
:10031000C1F1200C8B4022FA0CF41C4302FA01F5C7
:1003200000FA01F327FA0CF220FA0CFB4FEA144909
:100330001343BBFBF9F81FFA84FE09FB18BB1A0C28
:1003400008FB0EFA42EA0B42924507FA01F73ED942
:10035000A21808F1FF3004D2924502D9A8F1020098
:100360002244A2EB0A029BB2B2FBF9F809FB182265
:1003700008FB0EFE43EA024296452AD9A21808F16C
:10038000FF3304D2964502D9A8F10203224443EA7E
:100390000040A0FB0593A2EB0E029A42CE4698467F
:1003A00002D306D14F4504D2B9EB050E63EB040826
:1003B000013886B1B7EB0E0362EB080707FA0CFCB5
:1003C000CB404CEA0303CF40C6E900379CE74046E8
:1003D000C7E74346DBE73146FDE6000038B50B785A
:1003E0000C46062B3BD8DFE803F004090B1C1E204B
:1003F00038001C48BDE8384006F04EBF1A48F9E7FF
:100400001A481B4D06F048FFD4E9021219482B6820
:1004100001441948184407F082F82B6801332B6017
:1004200038BD1648E6E71648E4E7164806F034FFFC
:10043000154B186883680F49DC683C224FF47A73C7
:10044000A04701460028EBD0104806F025FFBDE884
:1004500038404FF0FF3001F0D9BE0D48CAE70D48D3
:10046000C8E700BF9C830000B2830000CB8300007C
:10047000A40400207C0D0020B80D0020E0830000C3
:10048000FD8300001B840000A004002035840000D0
:100490005D840000768400002DE9F041A4B0354968
:1004A0004D2210A807F03BF83348344C04F060F9B3
:1004B000206020B93049324806F0EEFE09E03148AC
:1004C00006F0EAFE206883685B6A2BB92E4806F0C6
:1004D000E3FE24B0BDE8F0812C4998475830F5D0B0
:1004E000206883681B6833B1294900229847014678
:1004F00020B12848E0E76FF05701FAE720688368E9
:100500002549DD683C224FF47A73A847014608B1BB
:100510002248D1E72068836810A95D684D224FF01A
:10052000FF33A847014610BB1D4D1E4F4FF400403E
:10053000002105F075FF2B68002BF7DD2A681A49AA
:100540000023BB5401A8174A2B6001F06DFE01A8DF
:10055000266806F0C8FF0246B36801A9D3F80480F4
:1005600030464FF0FF33C04701460028DED00F4829
:10057000A2E700BF678500008D840000A004002072
:1005800094840000C0840000DA84000088810000A8
:10059000DD0300000A8500007C0D0020358400008A
:1005A000A4040020B80D0020568500003585000009
:1005B00038B54468816004F00304032C054602D07A
:1005C0002CB1002000E0006800236B6038BD054AB4
:1005D00005490648452306F059FF0248452106F023
:1005E0004EFFEEE7B48500007F860000D78500004F
:1005F0000B6801330B60014B1B681847000000209B
:10060000014B1860704700BF0000002007B50B4683
:10061000002102460191034801A900F053FB03B0F9
:100620005DF804FBF10500002DE9F74FB0F81C90D0
:10063000009219F0080F044622D001290CBF49F09E
:10064000100949F02009A0F81C901434204604F049
:10065000B9FB68B99B4A9C499C48B92306F016FF30
:100660009B48214606F012FF9648B92106F007FF85
:10067000009B83F31188BFF36F8F03B0BDE8F08F49
:10068000944FDFF8488209F00709022906D1204675
:1006900006F00FFE0028D8D0012864D1D4F818B095
:1006A000A38BBBF1000F19DA0026256823F007039E
:1006B000C4E9006643F00103A383A38B03F00702A0
:1006C0004A45019203D0A268002A40F0138115B96F
:1006D000002E00F059814FF0000A0DE103F00702EF
:1006E000511F012920D8002123F00703062A25687D
:1006F0009BB2C4E900110AD13DB1E28B29460968D9
:10070000013292B20029FAD1E28343F00203A383BB
:10071000204606F0CEFD06460028CED0A38B43F03F
:100720002003A3830026C8E7042A0DD123F0070382
:100730009AB2A283204606F0BCFD054688B142F07D
:100740002002A2830025EDE7634940F21B133A46DD
:10075000404606F09BFE40F21B11384606F08FFE25
:1007600000252E46A9E7032834D1B9F1000F0BD09C
:100770005A4940464FF4AB733A4606F087FE4FF4B1
:10078000AB71384606F07BFE23685BB9544940469E
:1007900040F257133A4606F079FE40F257113846B8
:1007A00006F06DFE23691E685EB94E4940464FF45F
:1007B000AD733A4606F06AFE4FF4AD71384606F066
:1007C0005EFEA38B23F0070343F00603A3830025FB
:1007D000AB4672E7042831D1B9F1020F0BD0424980
:1007E000404640F25D133A4606F050FE40F25D117D
:1007F000384606F044FEE38B5BB13C4940464FF47B
:10080000AF733A4606F042FE4FF4AF71384606F039
:1008100036FE23695E685EB93249404640F2611394
:100820003A4606F033FE40F26111384606F027FEE4
:10083000A38B23F0070343F00403C7E7052831D156
:10084000B9F1010F0BD02A4940464FF4B2733A4632
:1008500006F01CFE4FF4B271384606F010FE236815
:100860005BB91F49404640F265133A4606F00EFE5A
:1008700040F26511384606F002FE23699E685EB9B3
:10088000184940464FF4B4733A4606F0FFFD4FF462
:10089000B471384606F0F3FDA38B23F0070343F051
:1008A000050393E70C4940F26B133A46404606F0C5
:1008B000EDFD002540F26B11384606F0E0FD2E46B6
:1008C00086E700BF97860000C4860000D785000039
:1008D000DB860000F48500007F860000168600009D
:1008E00022860000458600005C86000072860000BB
:1008F000818600004FF0010A43F0080304F1140957
:10090000A383484604F05EFA68B9384A3849B923E7
:10091000404606F0BBFD3748494606F0B7FD334870
:10092000B92106F0ACFD009B83F31188BFF36F8FF4
:10093000BAF1000F37D1002D47D116B12E4920460C
:10094000B0474FF02003EFF3118B83F31288BFF30E
:100950006F8F4846CDF800B004F026FA68B9234AF4
:1009600026498E23404606F091FD2548494606F06B
:100970008DFD1E488E2106F082FD484604F032FAB5
:10098000A38B23F00803A383A38BDA0625D523F0DA
:100990001003A3830121B4F81C9009F00709002972
:1009A0007FF473AE51E6A1680029C4D0D1F800A04D
:1009B0004B68019A9C4620465B46E047BAF1000F1F
:1009C000B9D05146DAF800A0F2E72946019A2D681D
:1009D0005B46204606F089FCADE713F020011EBF00
:1009E00023F02003A3830221D5E700BF97860000F0
:1009F000C4860000DB860000050A0000F0860000C7
:100A000005870000F8B504460D4600F114064FF0C6
:100A10002003EFF3118783F31288BFF36F8F304603
:100A200004F0C2F968B90C4A0C490D488E2306F04F
:100A30002DFD0C48314606F029FD07488E2106F0B1
:100A40001EFD304604F0CEF9A5613A46204601214C
:100A5000BDE8F840FFF7E8BD97860000F08600008B
:100A6000D7850000058700002DE9F04704460F46B2
:100A700006F051FC051E5EDB04F114094FF0200363
:100A8000EFF3118A83F31288BFF36F8F484604F0A7
:100A90008BF968B9384A394939488E2306F0F6FC93
:100AA0003848494606F0F2FC33488E2106F0E7FC50
:100AB000484604F097F9E38BA28B4FF6FF718B4207
:100AC00002F0070650D0022E24D10133E3833546CD
:100AD0004FF00108484604F075F968B9264A2A49DA
:100AE0002748B92306F0D2FC2848494606F0CEFC38
:100AF0002148B92106F0C3FC8AF31188BFF36F8F38
:100B0000B8F1000F17D0002332463946204606F0D0
:100B1000ECFB10E0930701D0062E0FD100233B60C1
:100B20006368F3B9C4E900773546FEB9524602213D
:100B30002046FFF779FD2846BDE8F087052E18D03E
:100B4000012E0BD012490E48124A40F2C91306F08A
:100B50009DFC104840F2C91106F091FC6FF00405AD
:100B600004E01F606760DFE76FF00A054FF00008E0
:100B7000B0E76FF08505F9E797860000F086000082
:100B8000D785000005870000C4860000DB860000D2
:100B900081860000F4850000B2F5802F2DE9F04138
:100BA00004460E4617466AD33E493F4A3F4840F244
:100BB000E31306F06BFC3E4806F068FC40F2E311DC
:100BC000394806F05CFC043FF51D3E4425F007055E
:100BD00026F00706761B172E4FEAD6070ED83549A2
:100BE000314A324840F2F31306F050FC324806F026
:100BF0004DFC2D4840F2F31106F041FC2560B7FA98
:100C000087F4C4F12008C4F12404A40007340023AD
:100C1000E408EB60631CBB42AF600ED92749224A4F
:100C200022484FF4017306F031FC234806F02EFCF5
:100C30001D484FF4017106F022FC05F1100303EB8F
:100C400088080022984529D1630043F001036B8096
:100C500005EBC4013B1B58002A804880A91925F8E0
:100C600034404A80AB5305EBC70321465A8842F013
:100C7000010228465A80BDE8F04106F07DBB042AF7
:100C8000A1D80F49084A09484FF4F57306F0FEFB56
:100C9000094806F0FBFB4FF4F57191E743F8042B8C
:100CA000D0E700BFE98700001D870000D78500005E
:100CB000FF87000050880000378800007988000016
:100CC000168800002DE9F04F91B08B4602909246B5
:100CD0001C4600259AF8000008B928465FE325283D
:100CE0000AF1010707D0029B594698470028C0F235
:100CF0005683013512E2182200210AA806F01AFCD8
:100D00009AF80130252B78D000221046964694465A
:100D10001646394617F8013B2B2B00F09D8000F258
:100D20009480202B00F09B80232B00F09B802EB121
:100D30009DF8306046F004068DF83060BCF1000F7D
:100D400005D09DF8306046F008068DF83060BEF1A1
:100D5000000F05D09DF8306046F010068DF8306029
:100D600028B19DF8300040F020008DF830002AB105
:100D70009DF8302042F040028DF830209DF8302060
:100D800002F04400442803D16FF386128DF830201E
:100D90009DF830202A2B42F080028DF830207BD144
:100DA0009DF8312042F001024B1C8DF831201A7859
:100DB0002E2A9DF831200CBF0121002161F3410250
:100DC0008DF8312074D15A782A2A6AD00133002153
:100DD0000A26184610F8012BA2F13007092F40F21D
:100DE0008E809DF830200E91C2F3400040EAD17110
:100DF00061F341028DF830205AE00AF102078DF8C4
:100E000033309DF83130D90740F1498154F8049BC3
:100E1000B9F1000F07DA9DF8302042F004028DF896
:100E20003020C9F100095A0740F1428154F8048B7F
:100E3000B8F1000F80F241819DF831306FF341032A
:100E40008DF831304FF0FF3837E12D2B0CD0302B9F
:100E50007FF46DAF01225CE74FF0010C59E74FF0D2
:100E6000010E56E7012054E7012652E70CFB02026F
:100E7000303A33461E4616F8010BA0F13007092F11
:100E8000F4D9994293D09DF830100D92D20F62F3AD
:100E900041018DF830108AE70B4600224FF00A0C12
:100EA000E8E79DF8312042F004028DF8312002334A
:100EB0001F4617F8012B6C2A41D025D8682A2BD061
:100EC0006A2A46D04C2A4CD01F4617F8012B9DF8B1
:100ED00031308DF83320782A00F2D980572A4DD846
:100EE000412A03D0453A022A00F2D1809DF83230DF
:100EF000042262F302038DF8323001239EE006FBE8
:100F000001213039034664E7742A26D07A2ADBD1DE
:100F10009DF8313006220DE05A78682A9DF831207C
:100F200006D1012161F3C6028DF831209F1CCCE768
:100F30001346022262F3C6038DF83130C5E75A78B2
:100F40006C2A9DF8312001D10421EBE713460322DE
:100F5000F0E79DF831300522ECE79DF831300722AB
:100F6000E8E7BDF8303023F4F04323F0020343F404
:100F7000804343F00203ADF83030A6E7A2F15801F8
:100F8000202900F2848001A050F821F051100000C7
:100F90008F1000008F1000008F1000008F100000D5
:100FA0008F1000008F1000008F1000008F100000C5
:100FB000ED0E00008F100000511000001110000015
:100FC000ED0E0000ED0E0000ED0E00008F10000091
:100FD000111000008F1000008F1000008F10000013
:100FE0008F10000059100000511000007510000013
:100FF0008F1000008F100000751000008F1000008F
:10100000511000008F1000008F10000051100000E0
:101010009DF83210012003F0780360F30201402BA9
:101020008DF8321002BF9DF8301041F001018DF8AB
:101030003010632A31D1003B18BF01239DF83020C6
:10104000C2F340010B4363F341028DF83020D8E630
:101050009DF832100220DEE79DF8322003F078037D
:10106000A3F14000032161F3020243428DF83220D4
:101070004341E3E79DF83220032113F0780F61F339
:1010800002028DF8322014BF01230023D6E79DF819
:10109000303043F001038DF830300023CEE79DF966
:1010A0003020002AB4BFDDF834904FF0FF39BAE6A3
:1010B0009B077FF5C7AEDDF838809DF8311000231F
:1010C000CDE90D339DF8323003F00703012BC1F356
:1010D000C30138D1CB1E042B22D8DFE803F003096B
:1010E0000921210054F8043BDA17CDE90A3206E061
:1010F000073424F00704F4E80223CDE90A239DF81D
:10110000303013F0030656D002983B4652465946FB
:1011100006F09FF90028C0F242810544BA46D9E59D
:1011200054F8043B01294FEAE372CDE90A3205D1B4
:101130009DF828300A9300230B93E0E70229DED1C3
:10114000BDF92830D0E7022B23D1CB1E042B13D8B6
:10115000DFE803F0030A0A12120022680A92002351
:10116000201D0B930446CAE7E01D20F00700F0E8BD
:101170000223CDE90A23F5E754F8043B0A93012939
:101180004FF000030B93D3D00229B8D1BDF828301B
:10119000D0E7042B09D1E31D23F0070303F1080472
:1011A000D3E90023CDE90A23A9E7032B04BF54F8B0
:1011B000043B0A93A3E79DF833007828AED8622851
:1011C00022D825283FF48FAD5828A7D10DF126034A
:1011D0000093DDE90A0104AB0CAA06F0F4F882469C
:1011E000B8F1000F0DF126000CDB9DF83020A0EBCC
:1011F0000A036FF3861298458DF8302002D9A8EBC8
:1012000003030D9380463DE06338152886D801A27C
:1012100052F820F095120000F91200001D11000094
:101220001D1100001D1100001D110000F912000029
:101230001D1100001D1100001D1100001D110000F6
:101240005313000021130000251300001D1100009E
:101250001D1100006D1200001D110000211300007F
:101260001D1100001D11000021130000B8F1000F36
:10127000DDF828A00ADB4146504606F03BF90AEBB0
:1012800000080026BAF1000F0CD147E7504606F0DF
:101290002AF9F4E70A9B8DF8103000260DF1100AA8
:1012A0000DF11108A8EB0A0306B101339DF83220B5
:1012B000D00668D5023352060D9948BF0E9A0B44EA
:1012C00048BF9B18B9F1000F76DD9DF83020A9EBDF
:1012D0000309C2F38003039353076DD4500661D50D
:1012E00046B1029B594630469847002857DB039B7E
:1012F00001351E46302356E01E070FD413F01006AA
:1013000018BF2026DDE90A23002BBFF65FAF52424B
:1013100063EB4303CDE90A232D2657E72B26F1E79C
:10132000002653E70A9840B30DF1260300930CAA58
:1013300004AB002106F047F8BDF8323003F0EF03AC
:1013400043F4F04343F010038246ADF832300026F8
:1013500046E70A9B07293FF6E1AEDFE801F00C04FF
:10136000060C08080C0C1D70D8E61D80D6E6EA179E
:10137000C3E90052D2E61D60D0E6DFF8C8A00646F9
:101380000AF105088EE7110748BF013393E71846B5
:1013900003935946029B98470028039B04DA11B037
:1013A000BDE8F08F20234D444A46002AA5EB0901F1
:1013B00009F1FF39EBDC0D4636B1029B5946304648
:1013C00098470028EBDB01359DF83230D90601D46F
:1013D0001A0706D5029B5946302098470028DEDBC5
:1013E00001359DF83230DB0607D59DF83300029BAE
:1013F000594698470028D2DB01350D9E2E44731BB9
:10140000002B16DC029843465246594606F021F856
:101410000028C4DB0544A944A9EB0503002B7FF792
:101420007DAE029B5946202098470028B7DB013546
:10143000F2E7029B5946302098470028AFDB013580
:10144000DDE700BFA488000008B54FF02002EFF3ED
:10145000118382F31288BFF36F8F00F02DFF0348D2
:1014600005F01AFF00F068FAFCE700BFAA88000048
:101470002DE9F84305464FF02003EFF3118683F37F
:101480001288BFF36F8F224803F08EFC68B9214A9F
:10149000214922488E2305F0F9FF1D49204805F017
:1014A000F5FF1C488E2105F0EAFF194803F09AFC6D
:1014B0001C4B1C689CB11C4FDFF870804FF00C096E
:1014C000D4E90132002D08BF13462BB198F814203F
:1014D00009FB02F2B85C98472468002CF0D10C4854
:1014E00003F070FC68B90B4A11490C48B92305F0A8
:1014F000CDFF07490F4805F0C9FF0648B92105F09F
:10150000BEFF86F31188BFF36F8FBDE8F88300BF7D
:10151000A804002097860000F0860000D785000010
:1015200005870000AC040020B4040020580B002004
:10153000C4860000DB8600004209012300F01F0082
:1015400003FA00F0074BBFF35B8FC04303EB82034A
:1015500053E8002F024043E800210029F8D1BFF3EF
:101560005B8F7047C004002038B51A4B1C7DBFF359
:101570005B8F04F01F0301229A40174B6109D0438F
:1015800003EB810353E8001F01EA000543E8005C18
:10159000BCF1000FF6D1BFF35B8F114213D00F4B9C
:1015A0000F4D8BB10C236343EA18E85C517805F0CA
:1015B000E6FF0020FFF75CFF0C235C432A190023A1
:1015C0002B51C2E9013338BD83F31188BFF36F8F0C
:1015D000EFE700BF580B0020C40400207F75000017
:1015E000B40400202DE9F843324B334A1C7DBFF38D
:1015F0005B8F63094FEA830952F823302F4EBFF304
:101600005B8F04F01F0843FA08F313F0010F07463D
:101610000AD10146204600F069F828B107C80C231A
:1016200003FB046383E807000C236343F218F55CB3
:101630002DB92046FFF780FF2846BDE8F8837B1CC4
:101640000FD0D2F808C01E481E4A4FF400450021B2
:101650000023ECFB0501FEF753FD0121381A05F0CC
:1016600093F903F085FF0120FFF702FFBFF35B8FC3
:10167000012303FA08F8144B994459E8003F43EA60
:10168000080349E80032002AF7D1BFF35B8F0F4B04
:1016900033B10C236343F218F05C517805F063FF1B
:1016A000FFF762FF2046FFF747FF04F04BFC0120E5
:1016B000C3E700BF580B0020C0040020B404002082
:1016C0003F420F0040420F00C40400206775000035
:1016D000054BBFF35B8F53F82000BFF35B8F0038DF
:1016E00018BF0120704700BFC80400202DE9F04F4B
:1016F00085B00F4603A900F047F8DFF88080DFF8D7
:1017000080A0441E24B24FF0000B631C04D10026BD
:10171000304605B0BDE8F08F039A04EB440302EBBA
:10172000830612F82300FFF7D3FF054610BB70684D
:101730004FF40049C4462946E0FB09C152465B46C6
:101740006046FEF7DDFC0190B068C4462946E0FB28
:1017500009C15B4652466046FEF7D2FC094B1B6846
:10176000591C01D0834205D97A1CD1D0019B184461
:10177000B842CDD9013C24B2C7E700BF3F420F00B9
:1017800040420F000400002008B9024B0B6000200B
:10179000704700BF90810000014805F0DBBB00BF2F
:1017A0009081000010B5044618B90D4B0D485B68D8
:1017B0009847616808290DD031F004030AD011F070
:1017C000020108D00848214603F09EF90023236057
:1017D0000023636010BD2068142205F0ABFEF7E71C
:1017E000E8000020D3880000E404002008B508B316
:1017F0004368042B10D101220368BFF35B8F53E8C9
:10180000001F002903D143E800200028F7D1BFF3CF
:101810005B8F0BD1002008BD53B100684FF0FF3241
:101820004FF0FF3303F018FB0028F3D00348F2E732
:101830000348F0E76FF4E040EDE700BFE98FFFFFFA
:10184000EA8FFFFF08B5D0B14368042B11D1002205
:101850000368BFF35B8F53E8001F012903D143E8FE
:1018600000200028F7D1BFF35B8F074808BF104660
:1018700008BD3BB1006803F0E9FB0020F8E76FF416
:10188000E040F5E70148F3E7E98FFFFFEA8FFFFF4C
:1018900010B5044618B9164B16485B68984763683C
:1018A000042B23D0082B21D0CBB92368BBB9124815
:1018B0004FF0FF324FF0FF33214603F0B9F808B97B
:1018C00023681BB90A4B0D485B68984720681422AF
:1018D000002105F02FFE636843F002036360206877
:1018E00006F0AAFA636843F00103636010BD00BF0D
:1018F000E8000020D3880000E4040020F9880000FC
:1019000008B5064906484023142206F064FABDE8EB
:1019100008400449044805F07DBB00BF04050020D1
:10192000E4040020A88100009881000001491022F1
:101930000A60704710ED00E072B6404080F31188F5
:10194000BFF36F8FBFF34F8F30BF62B6BFF36F8FA0
:10195000704700BF72B6494081F3118820BF80F301
:10196000118862B6704700BF43B2002B08DB01222A
:1019700000F01F0002FA00F05B09024A42F823005F
:10198000704700BF00E100E0054B420900F01F0076
:1019900053F82220012303FA00F01040704700BFE3
:1019A00000E100E070B54C1C072C05460E460FD92F
:1019B000114A12491248572305F068FD1148314673
:1019C00007232A4605F062FD0B48572105F057FD15
:1019D0006BB2002BACBF03F160430B4B4FEA4414D6
:1019E000B8BF05F00F05E4B2AABF03F561435C552B
:1019F00083F8004370BD00BF268900005C890000A9
:101A0000D78500007789000014ED00E030BFFFF7B4
:101A1000FDBF00BF0B4A08B50B4B22F07F029A6056
:101A2000BFF34F8FBFF36F8FD3F8882022F470027B
:101A3000C3F8882002F012FF04F0E4FD00F026FA5B
:101A400002F050FF0000000000ED00E0094A0A49E2
:101A5000936809689967094958674B6843F0805350
:101A60004B60002383F31188BFF36F8F9368986FE7
:101A7000704700BF580B00201083000000ED00E00D
:101A800012498A684FF030001044EFF3098C80E867
:101A9000F01F202080F31288BFF36F8F0C4F4FF0A0
:101AA0000066CA698A603E60506F0023536780F306
:101AB000118804B5104600F085FABDE8044002F133
:101AC000300090E8F01F8CF309887047580B002015
:101AD00004ED00E01EF0040F0CBFEFF30880EFF3FD
:101AE0000980816911F8021C0229FFD001B505F0B7
:101AF000E1FC01BD42F8203C009B42F81C3C0A4935
:101B0000019B42F8183C029B42F8143C21F0010171
:101B10004FF0807342F8043C42F8081C0023203A3E
:101B200002654367704700BF5B730000094A0346C4
:101B3000906870B113F1160F406E05D0A0F120022D
:101B40009A4205D8834203D2814228BF00207047C1
:101B500000207047580B002008B5094B98600D46CF
:101B6000144600F02FFA204685F30988002163B659
:101B700081F31188BFF36F8F0022002305F0EDFB86
:101B8000580B002001B572B60B4A906900281EBFA1
:101B90000021916106F041F962B6EFF30580A0F1F2
:101BA00010004FEAC0000549014409C99847BDE843
:101BB0000140034908470000580B0020DC7F00006B
:101BC000C51B0000044B9968D869884203D00349BB
:101BD0004FF080520A607047580B002004ED00E07F
:101BE000264B70B515469A6A9A6A9A6A9207044615
:101BF00021D5586B9A6A16061DD519B19A6A22F03A
:101C000080029A629A6A9A6A9A6AD10616D49B6A84
:101C10009A0713D40024194B9A6A920642BF5A6A53
:101C200022F400525A629A6A42F0FF029A6200233A
:101C30002B70204670BD6FF01500E3E70F4E736800
:101C40001B05E7D52146FFF771FF044618B180F365
:101C500009880224DFE7B36AD906DBD5084A0949B7
:101C6000094840F2491305F011FC084805F00EFC44
:101C7000034840F2491105F002FCCCE700ED00E01A
:101C8000B7890000F1890000D78500003B8A000079
:101C90000D4B9A6A9A6A9A6A920508D59A6B9A6A63
:101CA000120404D518B19A6A22F400429A62064BD3
:101CB0009A6A9A6AD20558BF9A6A9A6A002042F4D0
:101CC0007F429A620870704700ED00E070B55E4B8D
:101CD0005C688AB00D46C4F30804002686F31188B8
:101CE000BFF36F8F02F07F43B3F17F4F08D102F053
:101CF0000C03082B04D011075CBF054601267DB9F3
:101D0000524A5349534840F2FB3305F0BFFB524857
:101D100005F0BCFB4D4840F2FB3105F0B0FB00255F
:101D200000238DF80730E31E032B00F28680DFE8E6
:101D300003F0026F7377444BDC6A14F002047CD129
:101D4000DA6A002A0ADBDA6A520054D5AA6932F844
:101D5000021C4DF60272914219D12C689DF8073091
:101D60009BB92022294602A805F0D9FB099B002E29
:101D700065D0C3F3080222B96FEA53236FEA432305
:101D8000099302A9204605F093FB0AB070BD93F8B1
:101D900028203AB10DF1070201212846FFF720FF64
:101DA0000446DBE793F829202AB10DF10701012051
:101DB000FFF76EFFF4E75A8D92B262B19A6A9A6A9F
:101DC0009A6A9A6A9A6A9A6A9A6A6FEA02426FEA09
:101DD00012429A62C2E721491C4A1E4840F2CD23B2
:101DE00005F054FB1E4805F051FB40F2CD21174889
:101DF00005F045FBB2E71949144A164840F2D123D1
:101E000005F044FB174805F041FB40F2D121EEE715
:101E10000DF107020021C0E70DF107010020C7E71F
:101E2000094B9A6A9A6A9A6A9A6A9A6A9A6A9A6A42
:101E30006FEA02426FEA12429A6200248EE723F4AC
:101E4000FF7323F001039BE700ED00E0B78900007A
:101E50005E8A0000D7850000718A00007F8600003E
:101E6000AF8A0000D38A0000024A536943F010038E
:101E70005361704700ED00E0EFF30880EFF3098154
:101E800001B57246FFF722FF01BD00BF04480023E1
:101E90002021C2180133302B82F80013F9D170478A
:101EA00000E100E0002080F31488BFF36F8F06F09C
:101EB0001FF800200D490860BFF34F8F0C4880F3D6
:101EC000088800F02BF8202080F3118809484FF48F
:101ED0000261401880F30988EFF31480022108435F
:101EE00080F31488BFF36F8FFFF794FD94ED00E04B
:101EF00020160020A01700200749D1F890200023C9
:101F0000C2F307221846934200D17047C1F89830B7
:101F1000C1F8A0000133F6E700ED00E008B572B6A5
:101F2000002383F31388FFF7E7FF144B4FF0FF32D2
:101F3000C3F88020C3F88420C3F88820C3F88C201D
:101F4000C3F89020C3F89420C3F89820C3F89C20CD
:101F5000C3F88021C3F88421C3F88821C3F88C21F9
:101F6000C3F89021C3F89421C3F89821C3F89C21A9
:101F700062B6BFF34F8FBFF36F8F08BD00E100E083
:101F8000084B9B6883420BD1EFF3058343B1064BAB
:101F90005A6842F080525A605A6A22F400425A62E9
:101FA00004F07CBA580B002000ED00E0024B034A1D
:101FB0000348012100F06EB800000420000000205A
:101FC000BC810000426E054B203A1A60044A202171
:101FD000C3E901121846012100F084B8040A002068
:101FE00000000B15F0B51F4F00268E4201DB104696
:101FF000F0BD44689CB353B104F1FF3C14EA0C0FEC
:1020000018D11F2C16D905681CEA050F12D1202CF7
:102010000568D0F808C0D2B20FD9B4F1004F0ED87D
:10202000013CB4FA84F4C4F11F046400072A4CEAAA
:10203000040406D96FF01502D9E70824F6E73E2418
:10204000F4E725F01F05154345F0100544F00104A1
:10205000C7F89820C7F89C500132C7F8A040013655
:102060000C30C2E700ED00E0044B0522C3F89420D9
:10207000BFF34F8FBFF36F8F704700BF00ED00E0DD
:10208000BFF35F8F024B0022C3F89420704700BF5C
:1020900000ED00E038B50E4D01232A78FFF7A2FFCE
:1020A000287016300C4611D140F21113094A0A4922
:1020B0000A4805F0EBF92146094805F0E7F9BDE8C3
:1020C0003840044840F2111105F0D9B938BD00BFBD
:1020D000F40D0020038B00007F860000D7850000F0
:1020E0003A8B000010B5124A00231278FFF77AFFEE
:1020F00010F1160F0C4609D00E4A072800DD10BD5E
:10210000C2F89800C2F8A0300130F6E70A4A0B493D
:102110000B484FF4987305F0B9F92146094805F0CA
:10212000B5F9BDE8104004484FF4987105F0A7B91F
:10213000F40D002000ED00E0038B00007F8600001E
:10214000D7850000668B0000274910B50C68082C65
:1021500013D94FF4A473254A2549264805F096F96A
:1021600025480822214605F091F920484FF4A47132
:1021700005F085F94FF0FF3010BDFFF781FF48688B
:102180001E490022944200F10C001AD11C4B1C7015
:10219000FFF76AFFD1F89030C3F30723082B0ED066
:1021A0001849124A13484FF4D47305F06FF91648D2
:1021B00005F06CF90D484FF4D47105F060F900207A
:1021C000DAE7C1F8982050F80C3C23F01F031343C2
:1021D00043F01003C1F89C3050F8043C43F0010375
:1021E000C1F8A0300132CDE7C8810000038B0000A8
:1021F0007F860000D7850000938B000000ED00E093
:10220000F40D0020C78B0000178C000008B50248B1
:1022100005F042F8FEE700BF388C0000014B186063
:10222000704700BF280000200EB40FB505AB6FF05B
:10223000004153F8042B029003910648019302A930
:10224000FEF740FD029B00221A7004B05DF804EB1B
:1022500003B070474D75000010B54FF02003EFF349
:10226000118083F31288BFF36F8F114A0123C2F8E4
:1022700040354FF080424FF08051C2F87835D1F8A8
:102280003041082C08D1D1F83411052904D8094C63
:10229000615C09B1C2F838364FF080430122C3F8BF
:1022A000802580F31188BFF36F8F002010BD00BF21
:1022B00000E001404D8C00004FF08043C0B2C3F8F5
:1022C0001C05BFF34F8F0549054BCA6802F4E06255
:1022D0001343CB60BFF34F8F00BFFDE700ED00E07D
:1022E0000400FA0520B1034B800143F001031847B5
:1022F000704700BF8081000037B50C460A490B4A81
:10230000411A40230093491105462346084805F029
:102310004FF9011E05DA2846234603B0BDE83040D8
:10232000184703B030BD00BF200A0020217600000E
:10233000647F000038B5CCB2012C054609D90949A3
:1023400009480A4A792305F0A1F80848792105F0DF
:1023500096F829690C2304FB0314A06C00F0070015
:1023600038BD00BF908C0000D7850000538C000062
:10237000F8B5CCB2012C0669054617460BD91849A9
:102380001848194A40F24D1305F080F8164840F2FB
:102390004D1105F074F84FF02003EFF3118183F332
:1023A0001288BFF36F8F0C2202FB04639B6C13F047
:1023B000C00301D09F4210D102FB04660123B36425
:1023C000002081F31188BFF36F8F28B9696801EB92
:1023D000C404636898470020F8BD4FF0FF30F0E771
:1023E000908C0000D7850000538C000070B50D461E
:1023F0000649411A0446491105484022FFF7B8FF33
:102400002B4601462046BDE870401847200A0020B0
:10241000647F0000002270B5012104461046FFF7DA
:10242000C1FA0F4801F04EFC0E4B984215D101F055
:102430006FFC26690C49304604F07CFF00280BDB5A
:10244000246909490125B56404F1200004F072FFF4
:10245000002801DB6565002070BD6FF00400FBE71C
:10246000A12400000000AD0B1082000001460C23E7
:1024700009484B4370B5C418D4E9105600224833BC
:102480002264184405F081F82DB132462B460348EA
:10249000BDE87040184770BD200A0020647F00002E
:1024A000012808B506D0032808D0A8B9104B9B6CAA
:1024B0005B071BD1BDE80840FFF7D8BF0D490E4AA6
:1024C0000E4840F25E2304F0E1FF40F25E21BDE8D9
:1024D0000840094804F0D3BF0649074A074840F2BC
:1024E000622304F0D3FF40F26221F0E708BD00BF91
:1024F000200A00207F860000538C0000D785000052
:1025000008B54FF02003EFF3118183F31288BFF376
:102510006F8F124A136843F0020013F0010310603A
:102520000CD04FF08042D2F80C34D2F80C2413F0C7
:10253000010303D00A4805F028F8012381F311882C
:10254000BFF36F8F23B1BDE808400020FFF78EBFB7
:10255000BDE80840012001F0FFBB00BF780A002061
:10256000680A00201FB500220123CDE90223094A91
:10257000CDF800D06B46CDF804D005F04AF800281D
:1025800005DB4FF480420023684602F061FE05B08F
:102590005DF804FB3F760000094BBFF35B8F53E807
:1025A000002F22F0020143E800100028F7D1BFF30A
:1025B0005B8FD30702D4012001F032BC704700BF0B
:1025C000780A00202DE9F0414749BFF35B8F0646AA
:1025D000012251E8003F41E800200028F9D1BFF373
:1025E0005B8FA3B9414942484B60CB608A60FEF7DC
:1025F0003BFA00280BDA3F493F48404A4FF4087342
:1026000004F044FF3D484FF4087104F038FF96B3DE
:10261000731E012B53D8012E07D14FF08043D3F8FE
:102620001C3403F00303012B25D005F0F0FB044616
:1026300018B9334B1B78002B4FD14FF02003EFF329
:10264000118783F31288BFF36F8F0124DFF8B48002
:102650004FF08045D5F81834D5F81824D2030CD59E
:1026600003F00303012B01D0012E06D10CB387F335
:102670001188BFF36F8FBDE8F081ACB13846FFF72A
:1026800069F9D5F81835002BE4D1D5F80421002AD2
:10269000E0D0C5F80431D5F804310123C5F8183568
:1026A000C8F88031AB60D5E70021212003F0B8FEE7
:1026B000E7E74FF080430222C3F80423DBE7124927
:1026C0000D480E4A40F2322304F0E0FEBDE8F0412E
:1026D0000A4840F2322104F0D2BE4FF08043022279
:1026E000C3F808230746B1E77C0A0020100A00203F
:1026F000400A0020B48C0000D7850000538C0000F5
:102700000512002000E100E07F86000008B5084BBC
:102710000848186005F051FB38B10748FFF77EFD07
:102720000548FDF76DFF002008BD6FF01200FBE7C4
:10273000800A0020C47F00003D2700000A2838B529
:10274000074D044604D1286883680D21DB6998474A
:1027500028688368E1B2DB699847204638BD00BF2E
:10276000800A002070B5056916460C4661B92249F9
:10277000224A2348242304F089FE224804F086FEDE
:102780001E48242104F07BFE636863B91E491B4A7E
:102790001B48252304F07AFE1C4804F077FE1748F6
:1027A000252104F06CFE6B685BB100229C4212D1C3
:1027B0002368A96852B9A1426B6000D1AB600023C5
:1027C00023606EB9002070BD0B46EFE7A142136095
:1027D00008BFAA60F3E719681A460029F4D13EB190
:1027E000A8686B6823606C600028EBD1AC60EAE7F6
:1027F0006FF01500E7E700BFF08C0000C38C00000D
:10280000D7850000F98C0000088D00001A8D0000AB
:102810007FB54068057B01F01F04B2F5001F44EA54
:1028200045144FF0000504D1204601F01FFE0020A2
:1028300054E0B2F5800FCDE9025551D1B3F1007FDC
:102840000CBF042305238DF80830836823FA01F1B7
:1028500011F0010155D1B2F1A07F52D166094AD0E1
:102860004FF6FF73012E08BF194604F01F05E9401B
:10287000CA070BD42B492C482C4A40F2292304F0D8
:1028800005FE2A4840F2292104F0F9FD6EB1012E1F
:1028900034D027492448254A40F22E2304F0F6FD7F
:1028A000224840F22E2104F0EAFD4FF0A04305F546
:1028B000E07553F82530DB0723D40DF107052946D1
:1028C000204601F0F7FC1B4B984219D1284601F035
:1028D00053FD194B984213D06FF00B0004B070BD3C
:1028E000B3F1C06F05D0B3F1007F0CBF0223012309
:1028F000A9E70323A7E74FF0FF31B6E70F4BD6E771
:1029000003950023194602AA204601F0ABFB0A4BAF
:10291000984204D10121204601F034FD87E76FF091
:102920000400DBE7648D0000D7850000318D0000D6
:102930007F8600000400AD0B0000AD0B00030050CB
:1029400010B501F009FD044668B901F0DDFC084B43
:1029500098420AD10748214601F0A6FC22460521EB
:102960000620FFF71FF8002010BD6FF00400FBE702
:102970000000AD0B7929000043092DE9F04703D091
:10298000012B2ED0BDE8F087174F3B695C68002C07
:10299000F8D000F01F0001262568DFF85080DFF82E
:1029A0005090DFF850A08640A3681E4214D06368A0
:1029B00063B9494645234246504604F067FD0E4838
:1029C00004F064FD4521404604F059FDD4E901328C
:1029D0002146324038469847002DD3D02C462D68EA
:1029E000E2E7064FD1E700BF7C7F0000C38C000008
:1029F000878D0000D78500001A8D0000947F0000AD
:102A00002DE9F04347683B7B01F01F0585B00E467A
:102A100045EA43151446CAB902A9284601F04AFC02
:102A20000446284601F04CFD4A4B984204D06FF012
:102A3000040005B0BDE8F083844205D19DF808008C
:102A400001F094FCA042F2D10020F2E74FF000091F
:102A50000DF103013046CDE9029901F02BFC4B4604
:102A6000804602AA4946284601F0FCFA394B9842B2
:102A700002D06FF01500DCE7804503D19DF803001C
:102A800001F074FCA30351D540F20663234040F2E9
:102A9000062293423BD00CD8062B15D004D89BB10C
:102AA000022BE6D104230FE0B3F5007FE1D101232F
:102AB0000AE040F2024293422BD0B3F5C06F2AD015
:102AC000B3F5806FD5D102238DF8043084F48033C0
:102AD000C3F30043E0068DF8053054BFC4F3401340
:102AE000032321038DF8063017D57B68012101FAF5
:102AF00006F6C3F80865002201A9284601F060FB2C
:102B0000144B984214BF6FF01500002091E7072383
:102B1000DAE70523D8E70323D6E7620341BF7B68E2
:102B2000012101FA06F6C3F80C65E4E7E3064FF06D
:102B3000000354BFC4F3401403241A4601A92846D5
:102B40008DF8044001F08EFA024B98423FF47CAFBE
:102B50008FE700BF0000AD0B2DE9F3411C46436831
:102B600007690E46054619684FF02003EFF31188F8
:102B700083F31288BFF36F8FF868C36843B188F39B
:102B80001188BFF36F8F6FF00F0002B0BDE8F081C6
:102B90004FF4800CC2608660C1F804C306F0604147
:102BA000B1F1005F28D1C0E904623946284604F03B
:102BB000D8FE88F31188BFF36F8FFB7A012B19D1F0
:102BC000631C17D024EAE4750D48FE680D4A002402
:102BD0004FF4004721460023C5FB0701FDF790FA9B
:102BE000283602460B4600200021CDE90001304680
:102BF00004F0DAF80020C8E7036204F067FED4E7C7
:102C00003F420F0040420F00F0B54B79012B26D018
:102C1000032B21D110268B79032B1DD1CC790CB13C
:102C2000012C19D10A7912B1022A15D10E220B6892
:102C30004568B3F5164F2D6865D02DD8B3F5165FEE
:102C400064D016D8B3F5966F62D00AD8B3F5967FE4
:102C500061D0B3F5167F61D06FF0850052E0002699
:102C6000D9E7B3F5166F5CD0B3F5965FF4D1374B67
:102C70003CE0B3F5E14F57D007D8B3F5615F55D0CD
:102C8000B3F5964FE8D1324B30E047F61227BB42FE
:102C9000E2D14FF4000329E0B3F5613F48D013D8E7
:102CA000B3F5963F47D009D84DF6C027BB4244D074
:102CB000B3F5614FD0D14FF46B0317E0B3F5E13FAB
:102CC000CAD14FF0EB7311E0B3F5612F38D008D8BB
:102CD000204FBB4237D0B3F5E12FBDD14FF0E863B1
:102CE00004E01D4FBB42B7D14FF080530069C5F8D7
:102CF0002435031D03C934432243C5F86C2583E8FA
:102D000003000020F0BD4FF41D03EFE7134BEDE788
:102D10004FF49E23EAE74FF4A033E7E74FF41C3368
:102D2000E4E74FF41D23E1E70D4BDFE70D4BDDE753
:102D30004FF06C73DAE70C4BD8E74FF46503D5E737
:102D40004FF07063D2E74FF08063CFE700B013001D
:102D500000A04E0090D0030040420F00005027001A
:102D600000C0750000F03A0000903A012DE9F743E9
:102D7000D0F804900669D9F80040D9F80C800021F9
:102D8000C4F800150746306001AA404604F082FEF0
:102D9000051EC0F28780019BD8F8002019791868B9
:102DA00004F0CFFE051E7DDB311D3846FFF72CFFFA
:102DB0000546002876D1D9F8043099071AD506F1CE
:102DC000160001F079FC454B984240F08380B07DBD
:102DD000C30003F1804303F5F83304F10C0204F55A
:102DE0009071C3F81015C3F814253D4A01238340A0
:102DF000C2F80435F368002B58D07B68D7F81080F0
:102E00001B68D8F80C0037490422C3F804230122B8
:102E1000C0F8C820C3F804130821C3F80015D3F87C
:102E20004C11A1B15A60D3F844211AB9D3F8242126
:102E3000002AF8D00022C3F84C21D3F84C11C3F873
:102E40001021D3F81011C3F84421D3F84431264996
:102E50000022883005F01BF8D8F80C30D8F80C00A8
:102E6000C3F8BC8021490022283005F010F8D8F8BA
:102E70000C30C3F85C80D9F804309A075CBF4FF47B
:102E80008072C4F80423DB0644BF4FF48003C4F807
:102E9000043314360023C4F84465C4F848350123CC
:102EA000A360E360284603B0BDE8F0830823C4F8BC
:102EB000003599F80830002BDDD1C4F81031D4F872
:102EC000103106F11503C4F834350123C4F8383540
:102ED0002360D0E76FF00405E4E700BF0000AD0B0E
:102EE00000F0014010020A00D17900008B7A000046
:102EF000F8B5066904460F4604F089FF10B9284B5F
:102F00001B785BBB4FF02003EFF3118183F3128832
:102F1000BFF36F8F60680D4604F013FDC8B1F3680E
:102F20005BB1DA684AB1D3F8C420002A05DA6268D6
:102F30001268D2F84C25C3F8C4203146012201F8AA
:102F4000147F204604F0B4FB85F31188BFF36F8F24
:102F5000F8BD81F31188BFF36F8FD3E764256068F4
:102F600004F0EFFC48B9012004F0A3FE013DF6D1C6
:102F70000021212003F054FAF0E74FF02003EFF393
:102F8000118583F31288BFF36F8F606804F0D9FC5A
:102F90000028D2D185F31188BFF36F8FE8E700BF17
:102FA000051200202DE9D04FD0F804A0D0F810B0C1
:102FB000DAF8008014469AF808200646894692B14D
:102FC000434A4449444840F27F3304F05FFA43489F
:102FD00004F05CFA3E4840F27F3104F050FA6FF0A2
:102FE0008500BDE8D08FDBF80C1091F8D220002AC4
:102FF0006BD1B3F5E87FCB67D2BF5C23052293FB8F
:10300000F2F3C1F880300023C1E91A330B67DAF814
:103010000430DA06C1E9189423D591F8D17007B3CA
:10302000A74228BF274648463A46CC3104F077FAF3
:10303000E41BB94415D1DBF80C2092F8D130DB1B2E
:1030400082F8D1303946304604F05FFBDBF80C10D3
:103050003046603104F072FB304604F087FB0020FC
:10306000BFE70023C8F83495C8F83845C8F81031D0
:10307000D8F81021C8F84C31D8F84C31DBF80C30B6
:10308000012283F8D220DAF80430DB0619D54FF09C
:103090002003EFF3118183F31288BFF36F8F33693D
:1030A0007068DB682BB1D3F8C82042F00202C3F885
:1030B000C82003680822C3F8002581F31188BFF3F4
:1030C0006F8F0123C8F80030C9E76FF00F0088E761
:1030D000A18D00007F860000D7850000D58D0000FF
:1030E00043682DE9F0411D68D5F8081188B0044601
:1030F00071B103690022C5F80821D5F80821DA6802
:10310000D2F8C0300133C2F8C03008B0BDE8F08159
:10311000D5F8243113B3C5F82411D5F82431D5F8E6
:103120008064C5F88064142203A804F003FA06231F
:103130008DF80C30F30700F10081B70700F1FF8034
:10314000700700F1FE8006F00806204603A98DF8FE
:10315000106004F0D3FA204604F063FBD5F8103178
:103160007BB3D5F80433D9062BD54FF00008276977
:10317000C5F81081D5F810316368F8681E6801231E
:1031800080F8D530883004F08EFEFA68D6F83C1509
:1031900092F8D130906E82F8D1801B1A0B44906F58
:1031A00023EAE37108444345906702DD204604F0BA
:1031B000ACFAF96891F8D230002B40F0C48081F865
:1031C000D530D5F84C317BB3D5F8106166BB1422ED
:1031D0002769C5F84C61314603A8D5F84C3104F095
:1031E000A9F9032303A920468DF80C3004F086FAD0
:1031F000FF68FB6F5A1C17D0C7F88430D7F88030AF
:1032000089488A4A23EAE37C4FF4004E3146002382
:10321000CCFB0E01FCF774FF02460B46CDE9000122
:1032200007F1880003F0C0FDD5F8443133B3D5F879
:1032300010611EBB2769C5F84461F968D5F84431AF
:10324000D4F804806031204604F078FAF96820460A
:103250006C3104F073FAFB6893F8D220002A00F076
:103260009F8083F8D260D8F80430D80603D50221B5
:10327000204604F03FFB204604F078FAD5F82031D0
:10328000DBB1D5F80433D90517D563681B684FF057
:103290002001EFF3118281F31288BFF36F8FD3F80F
:1032A000201131B10021C3F82011D3F820110121E0
:1032B000D96082F31188BFF36F8FD5F85831002B96
:1032C0003FF423AFD5F804335A027FF51EAF63688D
:1032D0002569D3E90073DB0667D4EB689B68002B94
:1032E0003FF413AF4FF02003EFF3118283F3128802
:1032F000BFF36F8FEB68D3F8C4100029ACBFD3F8CD
:10330000C460D7F84C6582F31188BFF36F8FE8680B
:1033100090F8D430002B55D04FF02003EFF31186F6
:1033200083F31288BFF36F8F2946204604F019FB00
:1033300086F31188BFF36F8FE7E6012605E70226C3
:1033400003E7042601E76031204604F0F7F94FF067
:103350002003EFF3118183F31288BFF36F8FFB68B3
:10336000DA6ED2B11A661A6F5A660022C3E91B22BE
:103370009A66D6F84C310BB901233360D6F8003287
:1033800023F02003C6F8003281F31188BFF36F8F5A
:10339000FB68002283F8D52013E701237360F3E76D
:1033A0006068114604F05EFA5DE74FF48003C7F8E9
:1033B00008330121204604F09DFAEB68DB68002BFE
:1033C0008BD1A2E6826803699A420BD04269036AF4
:1033D000B242334425D1036204F078FA00289BD12D
:1033E000EB681E6AE868283004F05DFD14220021B5
:1033F00003A804F09FF8EB689A68CDE90426DA6820
:1034000096421CBF01228DF80C204FF48002C7F8B1
:10341000082300229A60DA6003A9204604F06EF9BE
:1034200073E61E46DEE700BF3F420F0040420F003A
:1034300010B501238340114ABFF35B8FDC4352E890
:10344000001F01EA040C42E800CEBEF1000FF6D1E5
:10345000BFF35B8F4FF4803202FA00F002F180423A
:1034600002F58052C2F80803BFF35F8FBFF36F8F7E
:103470000B4214BF0120002010BD00BFA00A002095
:103480001949F8B5044622F07F450868C1E90023D0
:10349000A5F50013101AB3F5400F22D2134B1B6889
:1034A0001A0A1B065E19124B42F10007C3E90067B6
:1034B000012603F0B9FAA30003F1804303F5883332
:1034C000D3F84025AA420BD11EB94FF40002C3F82D
:1034D0004025084B4FF4803000FA04F4C3F844430D
:1034E000F8BD0026E5E700BF90030020A40A0020F5
:1034F000780300200010014019B3BFF35B8F012354
:10350000104A834052E8001F194342E8001CBCF1F6
:10351000000FF7D1BFF35B8F0B4A4FF4803383402A
:10352000C2F80433094BBFF35B8F1B68BFF35B8F9B
:1035300023FA00F0C30742BF054B4FF40032C3F833
:1035400000217047A00A0020001001409C0A0020C2
:1035500000E100E00D4B1868010A0006BFF35F8F21
:103560000B4BD3F80435181841F10001B3F5801F57
:103570000AD2084BD3E90023904271EB030303D234
:1035800010F1807041F10001704700BFA40A0020D3
:1035900000100140780300202DE9F04F85B0164659
:1035A00098460546FFF744FF0090FFF7D3FFB0426F
:1035B00071EB080378D2464B301A68EB0101984250
:1035C00071F1000380F08180424B03EB0513D3E9D6
:1035D00002ABD84508BF564551D04FEA850909F1DD
:1035E000804905F1500709F58839BF004FF4803153
:1035F00001FA05F3BFB226F07F4207F1804701933D
:10360000D9F84005344B07F588371446D3F804152C
:10361000401A20F07F4021F07F4C0128C9F840C5B6
:1036200007D1CDE90221132004F02DFCDDE90221B0
:10363000294B01F1020CA4EB0C0020F07F40B0F507
:10364000000F88BF64460020386038680198C3F8CE
:10365000440324F07F40C9F84005D3F804058142B3
:1036600006D0201A023820F07F40B0F5000F19D89C
:10367000A41A24F07F4414EB060A48F1000B154904
:103680000E982B0101EB0512C2E902ABC8500F9B4B
:103690005360002428460099FFF72EFF204605B00E
:1036A000BDE8F08F2046B1E701230C4ABFF35B8FE2
:1036B000AB4052E8001F194342E800100028F8D13F
:1036C000BFF35B8FB246C346D9E76FF01504E1E75D
:1036D0000100000180030020001001409C0A00202E
:1036E00073B5194B194D00244FF0FF304FF0FF31E7
:1036F000C5F80845C3E902014FF48033C5F8043327
:10370000134B02264FF400320121C5F80463112047
:10371000C3F880212246FEF745F91120FEF724F96F
:103720000C4A0123AB602B6013600B4B0B4A0093D8
:10373000019400232046FFF72FFF3046FEF742FF9B
:10374000204602B070BD00BF800300200010014081
:1037500000E100E0A00A002081340000FFFF7F00AC
:103760002DE9F743354CD4F804339A070BD5D4F838
:10377000043143B1324A0023C4F80431D4F804318F
:103780001368013313604FF02003EFF3118283F3CA
:103790001288BFF36F8FD4F80433DB0312D5BFF365
:1037A0005B8F284B53E8001F21F0010043E800061F
:1037B000002EF7D1BFF35B8F002936D1D4F840310A
:1037C000002B32D1002382F31188BFF36F8F4BB3EC
:1037D000FFF7C0FE4FF02003EFF3118C83F3128844
:1037E000BFF36F8F184BD3E90267B04271EB07024A
:1037F0004FF0000220D34FF0FF384FF0FF39D3E9EC
:103800000015C3E902891A604FF48033C4F84833C5
:103810008CF31188BFF36F8F21B1009532463B4680
:103820000020884703B0BDE8F0830023C4F840318E
:10383000D4F840310123C6E71146E9E70010014002
:10384000A40A00209C0A002080030020431C13B51A
:1038500021D0012821DDB0F5000F20DA441EFFF74A
:1038600079FE104BD3E90013401AB0F5000F28BFC2
:103870000024013002190C48824228BF0246521827
:103880004FF0000009490190009143F10003FFF758
:1038900083FE02B010BD0448E0E70024DFE7024CDD
:1038A000DDE700BF90030020FFFF7F0081340000B0
:1038B00008B5FFF74FFE024B1B68C01A08BD00BFDA
:1038C000900300200268530910B504462CD0012B48
:1038D0004FF6FF7318BF002302F01F02D340DB072F
:1038E0000BD414491448154A40F2292303F0CEFDA5
:1038F000124840F2292103F0C2FD236803F01F02A1
:103900005B0922600DD0012B11D00D490A480B4AEA
:1039100040F22E2303F0BAFD084840F22E2103F0B6
:10392000AEFD4FF0A04010BD4FF0FF33D4E7054887
:10393000F9E700BF648D0000D7850000318D0000DD
:103940007F860000000300504FF08053D3F83021F1
:10395000082A06D1D3F83431052B02D8024AD05CAC
:1039600070470020704700BFFB8D0000024AD2F86C
:103970000034002BFBD0704700E0014010B504F08C
:103980008EF940B14FF080430022C3F80C21C3F8F8
:103990001021C3F8382504F082F9002846D04FF0F2
:1039A0008052604BD2F80414C3F82015D2F80814E2
:1039B000C3F82415D2F80C14C3F82815D2F8101443
:1039C000C3F82C15D2F81414C3F83015D2F8181413
:1039D000C3F83415D2F81C14C3F84015D2F82014DB
:1039E000C3F84415D2F82414C3F84815D2F82814A3
:1039F000C3F84C15D2F82C14C3F85015D2F8301473
:103A0000C3F85415D2F83414C3F86015D2F838143A
:103A1000C3F86415D2F83C14C3F86815D2F8401402
:103A2000C3F86C15D2F84424C3F87025FFF78CFF57
:103A300018B13D4B3D4AC3F88C26FFF785FF18B1FE
:103A40003B4BFB22C3F81825FFF77EFF70B14FF008
:103A500080414FF08053D1F8E42ED3F8583222F051
:103A60000F0203F00F031343C1F8E43EFFF76CFFAE
:103A700020B1304B4FF40072C3F8402604F00FF928
:103A800048B14FF08043D3F80024D20744BF6FF011
:103A90000102C3F800244FF08053D3F83021082AE4
:103AA0000ED1D3F83431052B02D8234AD35C3BB175
:103AB0004FF01023D3F808224FF08043C3F8582565
:103AC0004FF01023D3F80022002A03DBD3F804328E
:103AD000002B22DA194901234FF01020C1F80435D8
:103AE0001224FFF743FFC0F80042FFF73FFFC0F882
:103AF0000442FFF73BFF0023C1F80435FFF736FF10
:103B0000BFF34F8F0E490F4BCA6802F4E0621343B4
:103B1000CB60BFF34F8F00BFFDE70B4B0B4A1A6022
:103B200010BD00BF00C000400050004048810300AD
:103B300000F0004000900240F58D000000E00140E0
:103B400000ED00E00400FA055C0000200090D003C6
:103B500070B501250268B2FA82F3C3F11F035E1C3F
:103B6000DCB214D0BFF35B8F05FA03F322EA030340
:103B700050E8006F964204D140E8003CBCF1000FD1
:103B8000F6D1BFF35B8FE5D102480C7070BD0248DF
:103B9000FCE700BF0000AD0B0200AD0B0368CB409B
:103BA000DB0710B515D4012303FA01F10368BFF355
:103BB0005B8F41EA030250E8004F9C4204D140E889
:103BC000002CBCF1000FF6D1BFF35B8FEED10248A1
:103BD00010BD0248FCE700BF0000AD0B0400AD0BB8
:103BE000F7B5044670B1012831D031493148324A25
:103BF000D82303F04BFC3048D82103B0BDE8F04097
:103C000003F03DBC4FF080430222C3F80823C3F801
:103C10000401D3F804210122DA6001239C428DF8CB
:103C2000073014BF00250DF1070542F210774FF061
:103C30008046BCB1012C2CD01D491E481F4A4FF4B0
:103C40004F7303F023FC1D484FF44F71D5E74FF03D
:103C500080430022C3F80803C3F80021D3F80021F1
:103C60005860DAE725B1D6F8183403F003032B6067
:103C7000D6F81834DA0319D51DB19DF80730012B99
:103C800004D1012004F015F8013FD2D1012C0AD053
:103C90000CE025B1D6F80C3403F001032B70D6F8F4
:103CA0000C34DB03E8D4064B00225A7103B0F0BD9C
:103CB0007F860000D7850000018E00003E8E000048
:103CC000A80A002010B5044658B90B490B480C4A05
:103CD00040F2151303F0DAFB094840F2151103F026
:103CE000CEFB084B1A7922B9012207481C609A8042
:103CF00010BD0648FCE700BF728E0000D7850000AB
:103D0000018E0000A80A00200000AD0B0C00AD0BD6
:103D100008B50D4B1B795BB90C490D480D4A4FF4A2
:103D2000977303F0B3FB0B484FF4977103F0A7FBB5
:103D30000020FDF729FE08B9FDF716FE4FF080437D
:103D40000022C3F8182508BDA80A0020808E0000B4
:103D5000D7850000018E00002C4B1B7910B504465E
:103D60005BB92B492B482C4A4FF4B47303F08EFBFC
:103D700029484FF4B47103F082FB7CB1012C3AD096
:103D800026492448244A4FF4D37303F07FFBBDE84F
:103D9000104021484FF4D37103F071BB4FF08042C3
:103DA000D2F81814D2F8183413F480330BD1D2F8A7
:103DB0001414C90710D5D2F81C349B0708D4022369
:103DC000C2F8043316E001F00303012B04D01BB149
:103DD0000020FFF705FF00234FF08042C2F818359E
:103DE0000023C2F80431D2F804310223C2F80433AC
:103DF0000123936010BD4FF080430022C3F80021DF
:103E0000D3F80021C3F804431C60F3E7A80A00209C
:103E1000808E0000D7850000018E00007F860000A4
:103E20000A4B1B7910B504465BB9094909480A4A8F
:103E300040F2AD1303F02AFB074840F2AD1103F046
:103E40001EFB2046BDE81040FFF7CABEA80A0020AE
:103E5000808E0000D7850000018E00004FF0804367
:103E600010B5D3F800216AB10022C3F80021D3F8BD
:103E700000210122C3F80823114B587910B95A7157
:103E80001B6898474FF08043D3F8042172B1002299
:103E9000C3F80421D3F80421D3F81824D3F8181454
:103EA000920704D10122C3F818259A6010BD02229E
:103EB000C3F80823024BBDE810401B6801201847D7
:103EC000A80A0020034B083033F81000C0F340105C
:103ED000704700BF60000020044B083033F810002A
:103EE00010F01C0018BF0120704700BF60000020C8
:103EF000034B083033F81000C0F34000704700BF98
:103F00006000002070B500F108030C4C34F8133049
:103F1000DA0505460E4607D5C3F3432304EBC30277
:103F200054F8333052689847A3682BB1E2683146A1
:103F30002846BDE87040184770BD00BF60000020F3
:103F4000194A083010B532F81030D9051DD5C3F321
:103F5000432123F4F85322F8103002F1100400201A
:103F600034F8023B13F4807F03D0C3F34323994218
:103F70000BD001303028F3D1002342F831300B4808
:103F8000FFF70CFE0A4B984200D110BD09490A48C0
:103F90000A4A4FF4997303F079FABDE810400748D4
:103FA0004FF4997103F06BBA60000020D400002038
:103FB0000000AD0B028F0000D78500009E8E000030
:103FC00038B50246FFF77EFF094C02F1080540B103
:103FD00034F8153007495B0B03F5A273002041F854
:103FE00023001046FFF7ACFF002324F8153038BD3E
:103FF000600000200060004010B50446006803F037
:104000005AFE58B912491348134A40F2292303F0C3
:104010003DFA114840F2292103F031FA236803F0F8
:104020001F025B0922600DD0012B0ED00B490948FD
:10403000094A40F22E2303F029FA074840F22E21C4
:1040400003F01DFA4FF0A04010BD0548FCE700BF8B
:10405000648D0000D7850000318D00007F86000050
:1040600000030050F0B5044685B017461D46F1B177
:1040700003F032FE10B14D4805B0F0BD0B46CDE95E
:1040800000008DF80E008DF80F000DF10F020DF1FC
:104090000E01204603F02FFE454A04F1080132F8D4
:1040A000113023F0020343F0010322F8113097B1DD
:1040B00020463E787A68FFF71BFF80B1002ADAD1EC
:1040C0003B4A04F1080132F8113023F01C0343EAA3
:1040D000860322F81130002D3DD13648CCE7344F0D
:1040E00004F1080C37F81C1021F02001C904C90C98
:1040F00027F81C10002AE3D0032EBCD813782EB961
:104100002D4A03F5A27142F82160D9E79A0002F125
:10411000804202F5C04241EA4331D2F8100520F056
:104120000300C2F81005D2F8100520F44F3020F437
:104130004070C2F81005D2F810E5200200F47C505F
:104140004EEA064E40EA0E0041F0200127F81C100E
:10415000C2F81005B4E7D5E900672046FFF7F0FE86
:10416000002EBAD0124D2B689E4204D16B689F423C
:1041700001D100220AE011480DF10F01FFF7E8FC20
:104180000C4B98427FF478AF9DF80F2045F83260D1
:1041900005EBC20308345F6035F8143043EA42236C
:1041A00043F4807325F8143097E700BF0400AD0B8B
:1041B000600000200000AD0B00600040D400002033
:1041C000F0B5044685B0154621B3FFF791FE20B93E
:1041D0002046FFF777FE00285ED12046FFF77CFEE1
:1041E00010B14B78012B57D001238DF80F300023ED
:1041F000CDE900134A1C8B1C20460DF10F0103F082
:104200007AFD264A04F1080132F8113043F0030325
:1042100022F8113015B9224805B0F0BD2046FFF74D
:1042200067FEC8B31D4E95F800C004F1080761464B
:1042300036F81700890020F0200001F18041C00409
:1042400001F5C041C00C26F817000023C1F8103555
:104250006A78002ADFD0D1F81035AD7823F49913AD
:1042600023F4F853C1F81035D1F810E5230203F414
:104270007C53120402F4403243EA0E0313432A052E
:1042800002F4801240EA4C30134340F0200026F83C
:104290001700C1F81035BEE70248BDE760000020F6
:1042A0000000AD0B0400AD0B014BC3E902017047E8
:1042B0006000002038B504460D4659B90C490D4838
:1042C0000D4A40F2352303F0E1F80B4840F2352166
:1042D00003F0D5F82046FFF7F5FD38B1074B084845
:1042E000083433F814305B0B2B7038BD0548FCE7FD
:1042F000168F0000D78500009E8E00006000002011
:104300000000AD0B0400AD0B38B50F4C94F878509D
:10431000BDB96022294604F1100003F00BF9062014
:10432000FDF722FB094B0A48C3F87C51D3F87C21E6
:104330004FF00042C3F80423012384F87830636708
:1043400038BD0448FCE700BF60000020006000406A
:104350000000AD0B0500AD0B034B93F8780000385F
:1043600018BF0120704700BF6000002001460148CF
:10437000FFF714BCD000002001460148FFF7E8BB5E
:10438000D0000020F7B504460D46FFF7A5FD58B94B
:1043900030493148314A40F2DF3303F077F82F4893
:1043A00040F2DF3103F06BF82046FFF78BFD2C4E17
:1043B00004F1080718B32046FFF79AFD0246F0B94A
:1043C00036F81700410B084603F091FC00F18043DA
:1043D00003F5C0431A601B688B0003F1804303F5AB
:1043E000C043D3F8102542F00102C3F8102525B1CF
:1043F0001C4A01238B40C2F8043303B0F0BD5DB901
:1044000019491548154A40F2EE3303F03FF81348B6
:1044100040F2EE3103F033F836F81730C3F382037D
:10442000042B12D0052B12D001A80194FFF7E4FD54
:10443000019BD0F81015D94001F00101023120464E
:1044400003B0BDE8F04003F0A1BC0321F7E702216F
:10445000F5E700BF208F0000D78500009E8E00008A
:104460006000002000600040358F000008B5024663
:10447000FFF728FDC8B11046FFF73AFDA8B908328A
:104480000D4B0E4933F8123001225B0B9A409B0012
:1044900003F1804303F5C043C1F80823D3F8102586
:1044A00022F00302C3F8102508BDBDE80840002132
:1044B000104603F06BBC00BF6000002000600040AD
:1044C0000E4B00F1080213B533F81230DB07044637
:1044D00011D5FFF7CBFF2046FFF772FD01A801942D
:1044E000FFF78AFD019B03F5E073022240F82320C9
:1044F000034802B010BD0348FBE700BF6000002086
:104500000000AD0B0400AD0B2DE9F04F654B664884
:104510006649002687B0012234461D6835B1D0F8BF
:10452000045315421EBF1C601D68164304338B42A2
:104530004FEA4202F1D1DFF87081D8F87C31002BCC
:1045400000F093804FF0A043D3F820250492C3F8E5
:104550002025D3F820280592C3F8202800270DF144
:1045600010097B0100934FF0010A4BE0009B504A79
:1045700094FAA4F4B4FA84F41C4404F10803E008A7
:1045800032F81330039404F007020AFA02FC19F817
:10459000002022EA0C02990809F8002003A8C3F3BE
:1045A00082050191FFF728FD039A019902F5E07257
:1045B0004B0750F82220AB46C2F3014229D5594699
:1045C0002046D5B2FFF79EFC03A80394FFF714FD25
:1045D000039B03F5E07350F82330C3F301439D427E
:1045E00007D10021204603F0D1FB2946204603F0E5
:1045F000CDFB03A80394FFF7FFFC039B0AFA03F328
:10460000C0F8203559F82740002CAFD1CFB9012789
:10461000A7E7022A0CBF032102212046019203F0E2
:10462000B5FB032D04D0019A022A06D1012DE0D159
:1046300059462046FFF766FCDBE7032AD9D1022D55
:10464000F5E7C8F87C41D8F87C311A494FF0A0430F
:10465000D3F820250492C3F82025D1F820350593FE
:10466000C1F8203513437FF479AF012416B907B0A0
:10467000BDE8F08F96FAA6F3B3FA83F304FA03F2D7
:104680009B0003F1804303F5C04326EA0206D3F8FA
:104690001005D3F81015C0F30520C1F30141FFF751
:1046A00031FCE3E700610040006000402061004011
:1046B000600000200003005001460148FFF748BA9F
:1046C000DC00002010B5144C144A15490323236163
:1046D0006361144BA261E3614FF4806323620023A2
:1046E000A3626362E36222660F4A6266E01D1022E3
:1046F000A2662367E366636702F0EBFEBFF35F8F9A
:104700000A49204602F0E5FEBFF35F8F2023A37124
:10471000BFF35F8F10BD00BFB00A0020408F0000C4
:10472000498F0000050E0020F50D00204D8F000080
:104730000E4B70B553F82040013053F82060A6426C
:1047400000D870BDD4E900352846984765B1EB68BC
:1047500030B10028B8BF4042FF28A8BFFF20187022
:104760005A7842F001025A700834E8E7FC820000EF
:1047700070B5054610B90024204670BD0378002BA3
:10478000F9D00E4C0E4EB44208D10C4CB442F2D0CB
:10479000204603F012FB50B91834F7E7204603F027
:1047A0000CFB10B12368AB42E6D01834EBE721686C
:1047B000284602F0A8FE0028EED1DDE7647F000065
:1047C000DC7F0000F8B504460E464FF02003EFF3FF
:1047D000118783F31288BFF36F8F01F059FE3146C2
:1047E0000546204603F04CFA042C0CD10A490B4A2A
:1047F0000B488F2302F04AFE0A4802F047FE0748A2
:104800008F2102F03CFE87F31188BFF36F8F28469B
:10481000BDE8F840FDF7B4BB768F0000548F000070
:10482000D7850000938F000008B50A4B01220220B3
:104830001A70FFF77DFF02F00FFB0320FFF778FFF0
:1048400000F02AFAFBF728FE034A137B23F001034A
:10485000137308BD051200201804002008B5034892
:10486000034A0021121A03F0B2FA08BDC801002061
:104870000812002070B5002386B00122CDE9042380
:10488000134E144D01930F22CDE902321249182321
:1048900003FB005506EBC01604464FF4B07000FB56
:1048A00004110E4B00954FF4A072304600F090F9C1
:1048B000737B0B482C7523F0040373734FF402636E
:1048C00003FB04041C44EE606C6006B070BD00BFC6
:1048D00098030020580B002040160020F54D0000E2
:1048E000A017002080B52E4BA6B083F308882D4D6D
:1048F0002D4E6B692D4F43F400736B610024E02350
:1049000085F82230EC772C766C76AC7685F82040F2
:104910006B6A43F4E0236B6285F82340FDF7A4FA49
:10492000FDF704F84FF0FF33AB62EB6206ADFDF725
:104930000BFCFDF73BFB40F201132846ADF8243099
:10494000CDE91F4402F082FAB56003F035FA204643
:10495000FFF7EEFE0120164DFFF7EAFE01F00AFC1C
:10496000144BF5610593012313490094CDE90343EA
:104970004FF480623B46CDE90144284600F028F917
:104980006A7B064622F0040228466A7300F0F8FFAC
:104990002046FFF76FFF3A4631462846FDF7DCF820
:1049A000C01F002000ED00E0580B00202948000047
:1049B00018040020C88F000020120020F8B5164C03
:1049C000164D174EAC420CD9164917483D233246B6
:1049D00002F05CFD154802F059FD3D21304602F021
:1049E0004EFDAC4201D30020F8BDD4E9042141EAD8
:1049F000020313F003030BD1E068A361834201D1EA
:104A00002034DFE7A7690F600133A1611144F5E7A6
:104A10006FF01500E8E700BF5C0100205C0100209A
:104A2000CD8F0000F28F0000D78500000F900000AE
:104A30002DE9F74304460E4690461F4600F108054F
:104A40004FF02003EFF3118983F31288BFF36F8FC8
:104A5000284600F0A9F968B9244A254925488E233B
:104A600002F014FD2448294602F010FD1F488E2153
:104A700002F005FD284600F0B5F9A369EBB13360FB
:104A80001B68A361E3690133E3610024284600F059
:104A900099F968B9154A19491648B92302F0F6FC84
:104AA0001748294602F0F2FC1048B92102F0E7FC51
:104AB00089F31188BFF36F8F13E058EA070203D11F
:104AC00033606FF00B04E1E72246CDE900874946E9
:104AD000284601F005F9044618B90A4B9B685B6942
:104AE0003360204603B0BDE8F08300BF9786000026
:104AF000F0860000D785000005870000C48600000E
:104B0000DB860000580B00202DE9F04104460E46DC
:104B100000F108054FF02003EFF3118783F31288AB
:104B2000BFF36F8F284600F03FF968B9224A234946
:104B300023488E2302F0AAFC2248294602F0A6FC54
:104B40001D488E2102F09BFC284600F04BF9D4F85A
:104B50001880B8F1000F0FD1204601F0BBFA58B110
:104B600032684261C0F8788000F00AFF3946284672
:104B7000BDE8F04100F0B8BC3368A2691A60336840
:104B8000A361E369013BE361284600F01BF968B9C2
:104B9000094A0D490A48B92302F078FC0B48294616
:104BA00002F074FC0448B92102F069FC87F3118813
:104BB000BFF36F8FBDE8F08197860000F08600009C
:104BC000D785000005870000C4860000DB86000052
:104BD0002DE9F04385B00446DDF83C80B8F10F0FB5
:104BE0000F461546994632D1254B994533D104F1EC
:104BF0005803C4E91633109B2373073504236373EA
:104C000025F0070507F12003C4E919350E9B84F848
:104C10000E80029305F120080D9B019300260C9B4A
:104C20000093B8444B46C4E90666A660E673E666A0
:104C3000424639462046FCF75DFF124B66659B688D
:104C400003B11B6F2367404605B0BDE8F08308F150
:104C500010031E2BCBD90C4A0C490D4840F2FF1310
:104C600002F014FC41460B486FF00F030E2202F0D5
:104C70000DFC054840F2FF1102F001FCB7E700BF50
:104C8000F54D0000580B00202E90000051900000C0
:104C9000D7850000D19000002DE9F0433B4C3C4DFE
:104CA0003C4F87B0AC4226460ED93B493B4840F2C8
:104CB000D5233A4602F0EAFB394802F0E7FB40F21E
:104CC000D521384602F0DBFBAE4204F130041FD39D
:104CD00000F04EFC2D4C2F4EDFF8BC80DFF8BC906E
:104CE000AC420ED941464FF43D733246484602F07D
:104CF000CDFB2B4802F0CAFB4FF43D71304602F069
:104D0000BEFBAC4220D307B0BDE8F04301F01AB9B6
:104D100054F8043C059354F8103C049354F8143CA4
:104D2000039354F8183C029354F81C3C019354F834
:104D3000203C009354E90C0154E90A23FFF748FF93
:104D400054F8303C5E65ADE7636A5A1C0FD023EA25
:104D5000E3734FF4004240F2E7300021C3FB02014D
:104D600051EAC333276804D1384600F051FE30348D
:104D7000B6E74FF47A720023FBF7C2F902460B46FE
:104D800007F11800074901F0A1FCF0E75C010020E1
:104D90005C0100202E90000002910000D7850000E9
:104DA0000F900000B95A0000006838B1044B1B7D19
:104DB00000F00300C01A18BF01207047012070479F
:104DC000580B0020064903468A68087D196802438B
:104DD00091424FF0000004BF18600120704700BFEF
:104DE000580B0020024A117D93680B430360704703
:104DF000580B0020134C08B5A36893F90E30002B14
:104E000009DA11491148124A272302F03FFB1048E2
:104E1000272102F034FB0F4D4FF02002EFF31183F6
:104E200082F31288BFF36F8F01F066FD2B78A061CB
:104E300013B9FCF781FDEFE7FCF7D4FB0028EBD1B9
:104E4000F7E700BF580B002050910000D785000005
:104E50002F910000051200202DE9F341044617466A
:104E60001E46EFF3058363B16D496E4A6E486523B4
:104E700002F00CFB6D4802F009FB6A48652102F064
:104E8000FEFA4FF02003EFF3118883F31288BFF38B
:104E90006F8F6748FFF788FF68B9664A66496248BE
:104EA0008E2302F0F3FA6249644802F0EFFA614897
:104EB0008E2102F0E4FA5E48FFF794FFE368604A4F
:104EC000FBB1A068916888423DD057EA06033CD107
:104ED0005748FFF777FF68B9564A5A495248B923ED
:104EE00002F0D4FA5249584802F0D0FA5148B92198
:104EF00002F0C5FA88F31188BFF36F8F6FF00F00CF
:104F00001EE0916891F90E10494821610133E36078
:104F10009368A360FFF756FF68B9464A494942487B
:104F2000B92302F0B3FA4249474802F0AFFA4148C8
:104F3000B92102F0A4FA88F31188BFF36F8F002023
:104F400002B0BDE8F0812169DEE791F90E1090F919
:104F50000E309942A8BF19466FF07E029142B8BF49
:104F600011468B4243DD02F05FFF0546CDE9007636
:104F70002F482246414600F0B3FE0028E0D04FF013
:104F80002003EFF3118683F31288BFF36F8F284855
:104F9000FFF70AFF68B9274A274923488E2302F002
:104FA00075FA2349254802F071FA22488E2102F051
:104FB00066FA1F48FFF716FF236821699C420AD052
:104FC0004BB193F90E309942A8BF19466FF07E039A
:104FD0009942B8BF1946A06802F026FF00B945B152
:104FE0001348314600F080FA6FF00A00A8E7002568
:104FF000BCE70F48FFF7E6FE68B90E4A11490A48B8
:10500000B92302F043FA0A490F4802F03FFA09486F
:10501000B92102F034FA86F31188BFF36F8FE3E70A
:105020009A91000078910000D7850000AC910000B3
:10503000800B002097860000F086000005870000A6
:10504000580B0020C4860000DB86000038B50446FB
:10505000EFF3058363B15049504A5148C72302F02A
:1050600015FA504802F012FA4C48C72102F007FA2C
:10507000A368002B00F089804B4DAA68934240F052
:105080008780E3684BB949494548444ADF2302F029
:10509000FDF94248DF2102F0F2F9EFF3058363B135
:1050A0003D49434A3E48FD2302F0F0F9414802F0F1
:1050B000EDF93F48FD2102F0E2F9AB68DB7B012B03
:1050C0000CD13D493A4A3648FE2302F0DFF939480F
:1050D00002F0DCF93648FE2102F0D1F9AA68D37B50
:1050E000013BD373E368012B05D9013BE36000F07A
:1050F00029FF002038BD4FF02003EFF3118583F323
:105100001288BFF36F8F2D48FFF74EFE68B92C4A07
:105110002C4923488E2302F0B9F928492A4802F085
:10512000B5F927488E2102F0AAF92448FFF75AFE64
:105130002169A06802F078FE204600F0CBFFA06055
:1051400058B190F90E2022610022826700F018FC0D
:105150001A48294600F0C8F9C9E7E0601748FFF788
:1051600031FE68B9164A19490D48B92302F08EF983
:105170001249174802F08AF91148B92102F07FF963
:1051800085F31188BFF36F8FB1E76FF01500B1E7BA
:105190004FF0FF30AEE700BF9A9100007891000019
:1051A000D7850000AC910000580B0020D191000081
:1051B000E89100001392000016920000800B00207E
:1051C00097860000F086000005870000C486000076
:1051D000DB86000038B504464FF02003EFF311855D
:1051E00083F31288BFF36F8F1448FFF7DDFD68B9B2
:1051F000134A144914488E2302F048F90F49134802
:1052000002F044F90E488E2102F039F90B48FFF7FD
:10521000E9FD204600F05EFF48B10022826700F001
:10522000AFFB29460548BDE8384000F05DB9D4E938
:1052300002329A4218BF0133A360F2E7840B0020C8
:1052400097860000F0860000D785000005870000E3
:10525000F7B5044616461D46EFF305837BB152EAC7
:1052600005030CD03549364A3648792302F00EF949
:10527000354802F00BF93248792102F000F94FF07D
:105280002003EFF3118783F31288BFF36F8F2F484A
:10529000FFF78AFD68B92E4A2E492A488E2302F06C
:1052A000F5F82A492C4802F0F1F829488E2102F03D
:1052B000E6F82648FFF796FDA368D3B1013B2348E3
:1052C000A360FFF77FFD68B9214A24491D48B9232F
:1052D00002F0DCF81D49224802F0D8F81C48B92138
:1052E00002F0CDF887F31188BFF36F8F002003B071
:1052F000F0BD56EA050318D11448FFF763FD68B9FD
:10530000134A16490F48B92302F0C0F80F49144850
:1053100002F0BCF80E48B92102F0B1F887F3118809
:10532000BFF36F8F6FF00F00E1E7CDE90065224614
:105330003946064800F0D4FCD9E700BF6792000068
:1053400047920000D785000013920000840B0020D4
:1053500097860000F086000005870000C4860000E4
:10536000DB86000038B5074D2C6854B1FEF7A0FA73
:10537000054B04441C6128680021BDE8384001F059
:1053800003BB38BD940B0020580B0020F8B5044631
:105390000D464FF02003EFF3118783F31288BFF31C
:1053A0006F8F2348FFF700FD68B9224A224923483E
:1053B0008E2302F06BF81E49214802F067F81D4861
:1053C0008E2102F05CF81A481E4EFFF70BFD0021FB
:1053D0004FF4004C40F2E730316100234FF47A7211
:1053E000E4FB0C01FAF78CFE002C174B1CDC186058
:1053F000164BB0681D60FFF7B5FF0D48FFF7E2FCE4
:1054000068B90C4A12490D48B92302F03FF808491F
:10541000104802F03BF80748B92102F030F887F352
:105420001188BFF36F8FF8BD0228B8BF0220DEE7F6
:105430008C0B002097860000F0860000D7850000C6
:1054400005870000580B0020940B0020900B0020D3
:10545000C4860000DB86000038B504464FF0200308
:10546000EFF3118583F31288BFF36F8F1748FFF7AF
:105470009BFC68B9164A174917488E2302F006F8B4
:105480001249164802F002F811488E2101F0F7FF88
:105490000E48FFF7A7FC204600F000F90B48FFF785
:1054A00091FC68B90A4A0E490B48B92301F0EEFF96
:1054B00006490C4801F0EAFF0548B92101F0DFFF79
:1054C00085F31188BFF36F8F38BD00BF8C0B0020B0
:1054D00097860000F0860000D78500000587000051
:1054E000C4860000DB86000038B504460D46E9B9E5
:1054F000EFF30583D3B9194BDA699B689A4215D04B
:10550000FFF760FC68B9164A16491748D02301F026
:10551000BDFF1648214601F0B9FF1148D02101F026
:10552000AEFFBDE838400020FCF790BA2046FFF7F8
:1055300049FC68B90A4A0B490B48B92301F0A6FF98
:105540000A48214601F0A2FF0548B92101F097FF62
:1055500085F31188BFF36F8F38BD00BF580B002053
:1055600097860000C4860000D7850000DB86000017
:1055700038B54FF02003EFF3118583F31288BFF3A2
:105580006F8F2948FFF710FC68B9284A2849294835
:105590008E2301F07BFF2449274801F077FF234841
:1055A0008E2101F06CFF2048FFF71CFCEFF3058310
:1055B00063B12249224A1F48FD2301F067FF2148B9
:1055C00001F064FF1E48FD2101F059FF1E4CA36845
:1055D000DB7B012B0CD11D49194A1648FE2301F033
:1055E00055FF184801F052FF1548FE2101F047FF12
:1055F000A268D37B013BD3730B48FFF7E3FB68B989
:105600000A4A13490B48B92301F040FF06491148E3
:1056100001F03CFF0548B92101F031FF85F3118805
:10562000BFF36F8F38BD00BF8C0B00209786000042
:10563000F0860000D7850000058700009A910000E1
:10564000E891000013920000580B00201692000011
:10565000C4860000DB8600000C4B994210B50C4656
:105660000BD10B490B480C4A40F23D4301F00EFFB1
:10567000094840F23D4101F002FFD4E900321360D5
:105680005A600023C4E9003310BD00BF9803002016
:10569000D7920000D7850000B5920000836810B54E
:1056A00004465BB90B490C480C4A40F2B92301F09F
:1056B000EDFE0A4840F2B92101F0E1FEA068214662
:1056C000FFF7CAFF637B23F0020363730023A36029
:1056D00010BD00BFF8920000D7850000B592000011
:1056E00038B502461448154D02F0C3FB044600B914
:1056F000EC68CAB9AB6863B91149124A12488923E8
:1057000001F0C4FE114801F0C1FE0E48892101F0EC
:10571000B6FEAB685A7BD20606D1A26922B9DA89F5
:105720007F2A01D9EB6138BDAB68A34202D0204685
:10573000FFF718FEEC61F6E7780B0020580B00200D
:105740000F930000B5920000D7850000139200006F
:1057500070B590F90D20437B002A044606DA03F069
:105760007F03437301461E48FFF776FF637B63F0B8
:105770007F0363731B4B9C4209D11B491B481C4A86
:10578000BA2301F083FE1A48BA2101F078FE194AC3
:10579000D2E9083002F12005AB421BD0D3B194F915
:1057A0000E6093F90E108E420FD0891B00290CDD7C
:1057B0005968C4E900310C605C609068031B584272
:1057C000BDE870405841FFF78BBF834202D01B6891
:1057D000002BE6D1C4E9005004605462EDE700BF3D
:1057E000780B002098030020D7920000D785000096
:1057F000B5920000580B002070B505464FF020030D
:10580000EFF3118683F31288BFF36F8F2A48FFF7F7
:10581000CBFA68B9294A2A492A488E2301F036FE74
:105820002549294801F032FE24488E2101F027FE47
:105830002148FFF7D7FA254B254A9C6811688C420E
:1058400019D12046FFF78EFD1B48FFF7BBFA68B958
:105850001A4A20491B48B92301F018FE16491E4870
:1058600001F014FE1548B92101F009FE86F31188F4
:10587000BFF36F8F70BD00211160184A1268C2B16A
:10588000E2897F2A15D8627BD20612D1144A94F994
:105890000E10126891420CDB124A944209D01A6928
:1058A000AA4203DC2046FFF753FFCAE7521B1A61E6
:1058B000CAE70022FBE700BF8C0B002097860000A0
:1058C000F0860000D785000005870000580B0020F7
:1058D000880B0020C4860000DB860000940B0020AB
:1058E000900B00209803002070B590F90D20437BA9
:1058F000002A044639DBDA0637D18269002A34D11E
:1059000063F07F034373194B984209D11849194832
:10591000194ABA2301F0BAFD1748BA2101F0AFFDC8
:10592000164AD2E9083002F12005AB4218D0BBB1CB
:1059300094F90E6093F90E108E420CD0891B002949
:1059400009DD5A68C4E9003214605C60BDE870404B
:105950000020FFF7C5BE984202D01B68002BE9D19A
:10596000C4E9005004605462F0E770BD9803002061
:10597000D7920000D7850000B5920000580B002098
:1059800038B504464FF02003EFF3118583F31288F6
:10599000BFF36F8F1748FFF707FA68B9164A174920
:1059A00017488E2301F072FD1249164801F06EFD72
:1059B00011488E2101F063FD0E48FFF713FA2046CF
:1059C000FFF792FF0B48FFF7FDF968B90A4A0E4945
:1059D0000B48B92301F05AFD06490C4801F056FD69
:1059E0000548B92101F04BFD85F31188BFF36F8F96
:1059F00038BD00BF8C0B002097860000F0860000A9
:105A0000D785000005870000C4860000DB86000003
:105A100038B504464FF02003EFF3118583F3128865
:105A2000BFF36F8F1D48FFF7BFF968B91C4A1D49C6
:105A30001D488E2301F02AFD18491C4801F026FD5F
:105A400017488E2101F01BFD1448FFF7CBF9637B4B
:105A50005A0716D41148FFF7B5F968B9104A144926
:105A60001148B92301F012FD0C49124801F00EFD56
:105A70000B48B92101F003FD85F31188BFF36F8F47
:105A800038BD23F0040320466373FFF72DFF29463A
:105A90000248BDE83840FFF727BD00BF8C0B00204F
:105AA00097860000F0860000D7850000058700007B
:105AB000C4860000DB86000070B504464FF020036A
:105AC000EFF3118683F31288BFF36F8F2048FFF73F
:105AD0006BF968B91F4A204920488E2301F0D6FC93
